{
  "contractName": "Distributor",
  "abi": [
    {
      "inputs": [
        {
          "internalType": "address",
          "name": "_batchId",
          "type": "address"
        },
        {
          "internalType": "address",
          "name": "_sender",
          "type": "address"
        },
        {
          "internalType": "address",
          "name": "_shipper",
          "type": "address"
        },
        {
          "internalType": "address",
          "name": "_retailer",
          "type": "address"
        }
      ],
      "payable": false,
      "stateMutability": "nonpayable",
      "type": "constructor"
    },
    {
      "constant": true,
      "inputs": [],
      "name": "batchId",
      "outputs": [
        {
          "internalType": "address",
          "name": "",
          "type": "address"
        }
      ],
      "payable": false,
      "stateMutability": "view",
      "type": "function"
    },
    {
      "constant": true,
      "inputs": [],
      "name": "getBatchIdStatus",
      "outputs": [
        {
          "internalType": "uint256",
          "name": "",
          "type": "uint256"
        }
      ],
      "payable": false,
      "stateMutability": "view",
      "type": "function"
    },
    {
      "constant": false,
      "inputs": [
        {
          "internalType": "address",
          "name": "_batchId",
          "type": "address"
        },
        {
          "internalType": "address",
          "name": "_shipper",
          "type": "address"
        }
      ],
      "name": "pickPackageForRetailer",
      "outputs": [],
      "payable": false,
      "stateMutability": "nonpayable",
      "type": "function"
    },
    {
      "constant": false,
      "inputs": [
        {
          "internalType": "address",
          "name": "_batchId",
          "type": "address"
        },
        {
          "internalType": "address",
          "name": "_receiver",
          "type": "address"
        }
      ],
      "name": "receivePackageRetailer",
      "outputs": [],
      "payable": false,
      "stateMutability": "nonpayable",
      "type": "function"
    }
  ],
  "bytecode": "0x608060405234801561001057600080fd5b506040516107023803806107028339818101604052608081101561003357600080fd5b8101908080519060200190929190805190602001909291908051906020019092919080519060200190929190505050826000806101000a81548173ffffffffffffffffffffffffffffffffffffffff021916908373ffffffffffffffffffffffffffffffffffffffff16021790555083600160006101000a81548173ffffffffffffffffffffffffffffffffffffffff021916908373ffffffffffffffffffffffffffffffffffffffff16021790555082600260006101000a81548173ffffffffffffffffffffffffffffffffffffffff021916908373ffffffffffffffffffffffffffffffffffffffff16021790555081600360006101000a81548173ffffffffffffffffffffffffffffffffffffffff021916908373ffffffffffffffffffffffffffffffffffffffff16021790555080600460006101000a81548173ffffffffffffffffffffffffffffffffffffffff021916908373ffffffffffffffffffffffffffffffffffffffff16021790555050505050610549806101b96000396000f3fe608060405234801561001057600080fd5b506004361061004c5760003560e01c8063190d65de146100515780634972134a146100b5578063b4779a3c146100ff578063e2785eee14610163575b600080fd5b6100b36004803603604081101561006757600080fd5b81019080803573ffffffffffffffffffffffffffffffffffffffff169060200190929190803573ffffffffffffffffffffffffffffffffffffffff169060200190929190505050610181565b005b6100bd6102f1565b604051808273ffffffffffffffffffffffffffffffffffffffff1673ffffffffffffffffffffffffffffffffffffffff16815260200191505060405180910390f35b6101616004803603604081101561011557600080fd5b81019080803573ffffffffffffffffffffffffffffffffffffffff169060200190929190803573ffffffffffffffffffffffffffffffffffffffff169060200190929190505050610317565b005b61016b6104a8565b6040518082815260200191505060405180910390f35b600360009054906101000a900473ffffffffffffffffffffffffffffffffffffffff1673ffffffffffffffffffffffffffffffffffffffff168173ffffffffffffffffffffffffffffffffffffffff1614610227576040517f08c379a00000000000000000000000000000000000000000000000000000000081526004018080602001828103825260278152602001806104ee6027913960400191505060405180910390fd5b6001600281111561023457fe5b600460146101000a81548160ff0219169083600281111561025157fe5b02179055508173ffffffffffffffffffffffffffffffffffffffff1663ef488803826040518263ffffffff1660e01b8152600401808273ffffffffffffffffffffffffffffffffffffffff1673ffffffffffffffffffffffffffffffffffffffff168152602001915050600060405180830381600087803b1580156102d557600080fd5b505af11580156102e9573d6000803e3d6000fd5b505050505050565b600160009054906101000a900473ffffffffffffffffffffffffffffffffffffffff1681565b8073ffffffffffffffffffffffffffffffffffffffff16600460009054906101000a900473ffffffffffffffffffffffffffffffffffffffff1673ffffffffffffffffffffffffffffffffffffffff16146103bd576040517f08c379a00000000000000000000000000000000000000000000000000000000081526004018080602001828103825260238152602001806104cb6023913960400191505060405180910390fd5b6002808111156103c957fe5b600460146101000a81548160ff021916908360028111156103e657fe5b02179055508173ffffffffffffffffffffffffffffffffffffffff1663f64cd21e600460009054906101000a900473ffffffffffffffffffffffffffffffffffffffff166040518263ffffffff1660e01b8152600401808273ffffffffffffffffffffffffffffffffffffffff1673ffffffffffffffffffffffffffffffffffffffff168152602001915050600060405180830381600087803b15801561048c57600080fd5b505af11580156104a0573d6000803e3d6000fd5b505050505050565b6000600460149054906101000a900460ff1660028111156104c557fe5b90509056fe4f6e6c7920726563656976657220697320616c6c6f77656420746f20726563656976654f6e6c79205368697070657220697320616c6c6f77656420746f207069636b207061636b616765a265627a7a7231582032c665d671003c94f513f022d5296c83290ba9e6508f5e3e30c3d2c97ce33a5d64736f6c63430005100032",
  "source": "pragma solidity >=0.5.0 <0.8.6;\r\n\r\nimport \"./Medicine.sol\";\r\n\r\ncontract Distributor{\r\n    address owner;\r\n    enum packageStatus{atCreator,picked,delivered}\r\n\r\n    address public batchId;\r\n    address sender;\r\n    address shipper;\r\n    address retailer;\r\n    packageStatus status;\r\n\r\n    constructor(\r\n        address _batchId,\r\n        address _sender,\r\n        address _shipper,\r\n        address _retailer\r\n    ) public {\r\n        owner=_sender;\r\n        batchId=_batchId;\r\n        sender=_sender;\r\n        shipper=_shipper;\r\n        retailer=_retailer;\r\n    }\r\n\r\n    function getBatchIdStatus() public view returns(uint){\r\n        return uint(status);\r\n    }\r\n\r\n    function pickPackageForRetailer(address _batchId,address _shipper) public {\r\n        require(_shipper==shipper,\"Only Shipper is allowed to pick package\");\r\n        status=packageStatus(1);\r\n        Medicine(_batchId).pickPackageRetailer(_shipper);\r\n    }\r\n\r\n    function receivePackageRetailer(address _batchId,address _receiver) public {\r\n        require(retailer==_receiver,\"Only receiver is allowed to receive\");\r\n        status=packageStatus(2);\r\n        Medicine(_batchId).receivePackageRetailer(retailer);\r\n    }\r\n\r\n\r\n    \r\n\r\n\r\n\r\n}",
  "sourcePath": "E:\\University\\FYP\\Development\\FYP_60_Percent\\dashboard\\src\\contracts\\Distributor.sol",
  "compiler": {
    "name": "solc",
    "version": "0.5.16+commit.9c3226ce.Emscripten.clang"
  },
  "schemaVersion": "3.4.13",
  "updatedAt": "2023-03-18T10:31:52.048Z",
  "devdoc": {
    "methods": {}
  },
  "userdoc": {
    "methods": {}
  }
}