{
  "contractName": "Admin",
  "abi": [
    {
      "inputs": [],
      "stateMutability": "nonpayable",
      "type": "constructor"
    },
    {
      "anonymous": false,
      "inputs": [
        {
          "indexed": true,
          "internalType": "address",
          "name": "EthAddress",
          "type": "address"
        },
        {
          "indexed": false,
          "internalType": "string",
          "name": "Name",
          "type": "string"
        }
      ],
      "name": "UserRegister",
      "type": "event"
    },
    {
      "anonymous": false,
      "inputs": [
        {
          "indexed": true,
          "internalType": "address",
          "name": "EthAddress",
          "type": "address"
        },
        {
          "indexed": false,
          "internalType": "string",
          "name": "Name",
          "type": "string"
        },
        {
          "indexed": false,
          "internalType": "uint256",
          "name": "Role",
          "type": "uint256"
        }
      ],
      "name": "UserRoleRessign",
      "type": "event"
    },
    {
      "anonymous": false,
      "inputs": [
        {
          "indexed": true,
          "internalType": "address",
          "name": "EthAddress",
          "type": "address"
        },
        {
          "indexed": false,
          "internalType": "string",
          "name": "Name",
          "type": "string"
        },
        {
          "indexed": false,
          "internalType": "uint256",
          "name": "Role",
          "type": "uint256"
        }
      ],
      "name": "UserRoleRevoked",
      "type": "event"
    },
    {
      "inputs": [
        {
          "internalType": "address",
          "name": "",
          "type": "address"
        }
      ],
      "name": "UsersDetails",
      "outputs": [
        {
          "internalType": "string",
          "name": "name",
          "type": "string"
        },
        {
          "internalType": "string",
          "name": "location",
          "type": "string"
        },
        {
          "internalType": "address",
          "name": "ethAddress",
          "type": "address"
        },
        {
          "internalType": "enum Admin.roles",
          "name": "role",
          "type": "uint8"
        }
      ],
      "stateMutability": "view",
      "type": "function"
    },
    {
      "inputs": [],
      "name": "owner",
      "outputs": [
        {
          "internalType": "address",
          "name": "",
          "type": "address"
        }
      ],
      "stateMutability": "view",
      "type": "function"
    },
    {
      "inputs": [
        {
          "internalType": "address",
          "name": "EthAddress",
          "type": "address"
        },
        {
          "internalType": "string",
          "name": "Name",
          "type": "string"
        },
        {
          "internalType": "string",
          "name": "Location",
          "type": "string"
        },
        {
          "internalType": "uint256",
          "name": "Role",
          "type": "uint256"
        }
      ],
      "name": "registerUser",
      "outputs": [],
      "stateMutability": "nonpayable",
      "type": "function"
    },
    {
      "inputs": [
        {
          "internalType": "address",
          "name": "userAddress",
          "type": "address"
        }
      ],
      "name": "revokeRole",
      "outputs": [],
      "stateMutability": "nonpayable",
      "type": "function"
    },
    {
      "inputs": [
        {
          "internalType": "address",
          "name": "userAddress",
          "type": "address"
        },
        {
          "internalType": "uint256",
          "name": "Role",
          "type": "uint256"
        }
      ],
      "name": "reassignRole",
      "outputs": [],
      "stateMutability": "nonpayable",
      "type": "function"
    },
    {
      "inputs": [
        {
          "internalType": "address",
          "name": "userAddress",
          "type": "address"
        }
      ],
      "name": "getUserInfo",
      "outputs": [
        {
          "internalType": "string",
          "name": "",
          "type": "string"
        },
        {
          "internalType": "string",
          "name": "",
          "type": "string"
        },
        {
          "internalType": "address",
          "name": "",
          "type": "address"
        },
        {
          "internalType": "uint256",
          "name": "",
          "type": "uint256"
        }
      ],
      "stateMutability": "view",
      "type": "function"
    },
    {
      "inputs": [],
      "name": "getUsersCount",
      "outputs": [
        {
          "internalType": "uint256",
          "name": "count",
          "type": "uint256"
        }
      ],
      "stateMutability": "view",
      "type": "function"
    },
    {
      "inputs": [
        {
          "internalType": "uint256",
          "name": "index",
          "type": "uint256"
        }
      ],
      "name": "getUserByIndex",
      "outputs": [
        {
          "internalType": "string",
          "name": "",
          "type": "string"
        },
        {
          "internalType": "string",
          "name": "",
          "type": "string"
        },
        {
          "internalType": "address",
          "name": "",
          "type": "address"
        },
        {
          "internalType": "uint256",
          "name": "",
          "type": "uint256"
        }
      ],
      "stateMutability": "view",
      "type": "function"
    },
    {
      "inputs": [
        {
          "internalType": "address",
          "name": "_address",
          "type": "address"
        }
      ],
      "name": "getRole",
      "outputs": [
        {
          "internalType": "uint256",
          "name": "",
          "type": "uint256"
        }
      ],
      "stateMutability": "view",
      "type": "function"
    }
  ],
  "bytecode": "0x608060405234801561001057600080fd5b50336000806101000a81548173ffffffffffffffffffffffffffffffffffffffff021916908373ffffffffffffffffffffffffffffffffffffffff160217905550611897806100606000396000f3fe608060405234801561001057600080fd5b50600436106100935760003560e01c80638da5cb5b116100665780638da5cb5b1461014a578063a4a1e26314610168578063a93c7abb14610186578063b57d63f5146101a2578063ff5d32fe146101be57610093565b80631ecd65631461009857806344276733146100cb5780636386c1c7146100fb57806380e52e3f1461012e575b600080fd5b6100b260048036038101906100ad919061108e565b6101f1565b6040516100c29493929190611376565b60405180910390f35b6100e560048036038101906100e0919061108e565b61035e565b6040516100f291906114cc565b60405180910390f35b6101156004803603810190610110919061108e565b6103c9565b60405161012594939291906113c9565b60405180910390f35b6101486004803603810190610143919061108e565b61063f565b005b6101526108f5565b60405161015f9190611339565b60405180910390f35b610170610919565b60405161017d91906114cc565b60405180910390f35b6101a0600480360381019061019b919061115a565b610926565b005b6101bc60048036038101906101b791906110bb565b610bdd565b005b6101d860048036038101906101d3919061119a565b610ef5565b6040516101e894939291906113c9565b60405180910390f35b600160205280600052604060002060009150905080600001805461021490611611565b80601f016020809104026020016040519081016040528092919081815260200182805461024090611611565b801561028d5780601f106102625761010080835404028352916020019161028d565b820191906000526020600020905b81548152906001019060200180831161027057829003601f168201915b5050505050908060010180546102a290611611565b80601f01602080910402602001604051908101604052809291908181526020018280546102ce90611611565b801561031b5780601f106102f05761010080835404028352916020019161031b565b820191906000526020600020905b8154815290600101906020018083116102fe57829003601f168201915b5050505050908060020160009054906101000a900473ffffffffffffffffffffffffffffffffffffffff16908060020160149054906101000a900460ff16905084565b6000600160008373ffffffffffffffffffffffffffffffffffffffff1673ffffffffffffffffffffffffffffffffffffffff16815260200190815260200160002060020160149054906101000a900460ff1660068111156103c2576103c1611674565b5b9050919050565b606080600080600160008673ffffffffffffffffffffffffffffffffffffffff1673ffffffffffffffffffffffffffffffffffffffff168152602001908152602001600020600001600160008773ffffffffffffffffffffffffffffffffffffffff1673ffffffffffffffffffffffffffffffffffffffff168152602001908152602001600020600101600160008873ffffffffffffffffffffffffffffffffffffffff1673ffffffffffffffffffffffffffffffffffffffff16815260200190815260200160002060020160009054906101000a900473ffffffffffffffffffffffffffffffffffffffff16600160008973ffffffffffffffffffffffffffffffffffffffff1673ffffffffffffffffffffffffffffffffffffffff16815260200190815260200160002060020160149054906101000a900460ff16600681111561051857610517611674565b5b83805461052490611611565b80601f016020809104026020016040519081016040528092919081815260200182805461055090611611565b801561059d5780601f106105725761010080835404028352916020019161059d565b820191906000526020600020905b81548152906001019060200180831161058057829003601f168201915b505050505093508280546105b090611611565b80601f01602080910402602001604051908101604052809291908181526020018280546105dc90611611565b80156106295780601f106105fe57610100808354040283529160200191610629565b820191906000526020600020905b81548152906001019060200180831161060c57829003601f168201915b5050505050925093509350935093509193509193565b60008054906101000a900473ffffffffffffffffffffffffffffffffffffffff1673ffffffffffffffffffffffffffffffffffffffff163373ffffffffffffffffffffffffffffffffffffffff16146106cd576040517f08c379a00000000000000000000000000000000000000000000000000000000081526004016106c49061146c565b60405180910390fd5b600060068111156106e1576106e0611674565b5b600160008373ffffffffffffffffffffffffffffffffffffffff1673ffffffffffffffffffffffffffffffffffffffff16815260200190815260200160002060020160149054906101000a900460ff16600681111561074357610742611674565b5b1415610784576040517f08c379a000000000000000000000000000000000000000000000000000000000815260040161077b9061148c565b60405180910390fd5b8073ffffffffffffffffffffffffffffffffffffffff167f18a4c0aa2d0b9e55cfd3c133652630cc693f845135ba74f56f45c8d38910ce5c600160008473ffffffffffffffffffffffffffffffffffffffff1673ffffffffffffffffffffffffffffffffffffffff168152602001908152602001600020600001600160008573ffffffffffffffffffffffffffffffffffffffff1673ffffffffffffffffffffffffffffffffffffffff16815260200190815260200160002060020160149054906101000a900460ff1660068111156108605761085f611674565b5b60405161086e92919061141c565b60405180910390a260068081111561088957610888611674565b5b600160008373ffffffffffffffffffffffffffffffffffffffff1673ffffffffffffffffffffffffffffffffffffffff16815260200190815260200160002060020160146101000a81548160ff021916908360068111156108ed576108ec611674565b5b021790555050565b60008054906101000a900473ffffffffffffffffffffffffffffffffffffffff1681565b6000600280549050905090565b60008054906101000a900473ffffffffffffffffffffffffffffffffffffffff1673ffffffffffffffffffffffffffffffffffffffff163373ffffffffffffffffffffffffffffffffffffffff16146109b4576040517f08c379a00000000000000000000000000000000000000000000000000000000081526004016109ab9061146c565b60405180910390fd5b600060068111156109c8576109c7611674565b5b600160008473ffffffffffffffffffffffffffffffffffffffff1673ffffffffffffffffffffffffffffffffffffffff16815260200190815260200160002060020160149054906101000a900460ff166006811115610a2a57610a29611674565b5b1415610a6b576040517f08c379a0000000000000000000000000000000000000000000000000000000008152600401610a629061144c565b60405180910390fd5b806006811115610a7e57610a7d611674565b5b600160008473ffffffffffffffffffffffffffffffffffffffff1673ffffffffffffffffffffffffffffffffffffffff16815260200190815260200160002060020160146101000a81548160ff02191690836006811115610ae257610ae1611674565b5b02179055508173ffffffffffffffffffffffffffffffffffffffff167f35ef25ed794630e2607a853ec75377c24e87b8b51c13fd3e08156fcfda7eb15a600160008573ffffffffffffffffffffffffffffffffffffffff1673ffffffffffffffffffffffffffffffffffffffff168152602001908152602001600020600001600160008673ffffffffffffffffffffffffffffffffffffffff1673ffffffffffffffffffffffffffffffffffffffff16815260200190815260200160002060020160149054906101000a900460ff166006811115610bc357610bc2611674565b5b604051610bd192919061141c565b60405180910390a25050565b60006006811115610bf157610bf0611674565b5b600160008673ffffffffffffffffffffffffffffffffffffffff1673ffffffffffffffffffffffffffffffffffffffff16815260200190815260200160002060020160149054906101000a900460ff166006811115610c5357610c52611674565b5b14610c93576040517f08c379a0000000000000000000000000000000000000000000000000000000008152600401610c8a906114ac565b60405180910390fd5b82600160008673ffffffffffffffffffffffffffffffffffffffff1673ffffffffffffffffffffffffffffffffffffffff1681526020019081526020016000206000019080519060200190610ce9929190610f51565b5081600160008673ffffffffffffffffffffffffffffffffffffffff1673ffffffffffffffffffffffffffffffffffffffff1681526020019081526020016000206001019080519060200190610d40929190610f51565b5083600160008673ffffffffffffffffffffffffffffffffffffffff1673ffffffffffffffffffffffffffffffffffffffff16815260200190815260200160002060020160006101000a81548173ffffffffffffffffffffffffffffffffffffffff021916908373ffffffffffffffffffffffffffffffffffffffff160217905550806006811115610dd557610dd4611674565b5b600160008673ffffffffffffffffffffffffffffffffffffffff1673ffffffffffffffffffffffffffffffffffffffff16815260200190815260200160002060020160146101000a81548160ff02191690836006811115610e3957610e38611674565b5b02179055506002849080600181540180825580915050600190039060005260206000200160009091909190916101000a81548173ffffffffffffffffffffffffffffffffffffffff021916908373ffffffffffffffffffffffffffffffffffffffff1602179055508373ffffffffffffffffffffffffffffffffffffffff167f4578d2996968543afa1dfb0791664b8fb16108663190bcf1f68e698c4589db1984604051610ee79190611354565b60405180910390a250505050565b606080600080610f4260028681548110610f1257610f116116d2565b5b9060005260206000200160009054906101000a900473ffffffffffffffffffffffffffffffffffffffff166103c9565b93509350935093509193509193565b828054610f5d90611611565b90600052602060002090601f016020900481019282610f7f5760008555610fc6565b82601f10610f9857805160ff1916838001178555610fc6565b82800160010185558215610fc6579182015b82811115610fc5578251825591602001919060010190610faa565b5b509050610fd39190610fd7565b5090565b5b80821115610ff0576000816000905550600101610fd8565b5090565b60006110076110028461150c565b6114e7565b90508281526020810184848401111561102357611022611735565b5b61102e8482856115cf565b509392505050565b60008135905061104581611833565b92915050565b600082601f8301126110605761105f611730565b5b8135611070848260208601610ff4565b91505092915050565b6000813590506110888161184a565b92915050565b6000602082840312156110a4576110a361173f565b5b60006110b284828501611036565b91505092915050565b600080600080608085870312156110d5576110d461173f565b5b60006110e387828801611036565b945050602085013567ffffffffffffffff8111156111045761110361173a565b5b6111108782880161104b565b935050604085013567ffffffffffffffff8111156111315761113061173a565b5b61113d8782880161104b565b925050606061114e87828801611079565b91505092959194509250565b600080604083850312156111715761117061173f565b5b600061117f85828601611036565b925050602061119085828601611079565b9150509250929050565b6000602082840312156111b0576111af61173f565b5b60006111be84828501611079565b91505092915050565b6111d08161156e565b82525050565b6111df816115bd565b82525050565b60006111f082611552565b6111fa818561155d565b935061120a8185602086016115de565b61121381611744565b840191505092915050565b6000815461122b81611611565b611235818661155d565b94506001821660008114611250576001811461126257611295565b60ff1983168652602086019350611295565b61126b8561153d565b60005b8381101561128d5781548189015260018201915060208101905061126e565b808801955050505b50505092915050565b60006112ab60138361155d565b91506112b682611755565b602082019050919050565b60006112ce60268361155d565b91506112d98261177e565b604082019050919050565b60006112f160138361155d565b91506112fc826117cd565b602082019050919050565b600061131460178361155d565b915061131f826117f6565b602082019050919050565b611333816115b3565b82525050565b600060208201905061134e60008301846111c7565b92915050565b6000602082019050818103600083015261136e81846111e5565b905092915050565b6000608082019050818103600083015261139081876111e5565b905081810360208301526113a481866111e5565b90506113b360408301856111c7565b6113c060608301846111d6565b95945050505050565b600060808201905081810360008301526113e381876111e5565b905081810360208301526113f781866111e5565b905061140660408301856111c7565b611413606083018461132a565b95945050505050565b60006040820190508181036000830152611436818561121e565b9050611445602083018461132a565b9392505050565b600060208201905081810360008301526114658161129e565b9050919050565b60006020820190508181036000830152611485816112c1565b9050919050565b600060208201905081810360008301526114a5816112e4565b9050919050565b600060208201905081810360008301526114c581611307565b9050919050565b60006020820190506114e1600083018461132a565b92915050565b60006114f1611502565b90506114fd8282611643565b919050565b6000604051905090565b600067ffffffffffffffff82111561152757611526611701565b5b61153082611744565b9050602081019050919050565b60008190508160005260206000209050919050565b600081519050919050565b600082825260208201905092915050565b600061157982611593565b9050919050565b600081905061158e8261181f565b919050565b600073ffffffffffffffffffffffffffffffffffffffff82169050919050565b6000819050919050565b60006115c882611580565b9050919050565b82818337600083830152505050565b60005b838110156115fc5780820151818401526020810190506115e1565b8381111561160b576000848401525b50505050565b6000600282049050600182168061162957607f821691505b6020821081141561163d5761163c6116a3565b5b50919050565b61164c82611744565b810181811067ffffffffffffffff8211171561166b5761166a611701565b5b80604052505050565b7f4e487b7100000000000000000000000000000000000000000000000000000000600052602160045260246000fd5b7f4e487b7100000000000000000000000000000000000000000000000000000000600052602260045260246000fd5b7f4e487b7100000000000000000000000000000000000000000000000000000000600052603260045260246000fd5b7f4e487b7100000000000000000000000000000000000000000000000000000000600052604160045260246000fd5b600080fd5b600080fd5b600080fd5b600080fd5b6000601f19601f8301169050919050565b7f55736572206e6f74207265676973746572656400000000000000000000000000600082015250565b7f736f727279212c4f6e6c79206f776e657220697320616c6c6f77656420746f2060008201527f7669736974210000000000000000000000000000000000000000000000000000602082015250565b7f75736572206e6f74207265676973746572656400000000000000000000000000600082015250565b7f5573657220416c72656164792072656769737465726564000000000000000000600082015250565b600781106118305761182f611674565b5b50565b61183c8161156e565b811461184757600080fd5b50565b611853816115b3565b811461185e57600080fd5b5056fea264697066735822122086d0c4395f34325b67df7d94e90e1848fb9ea1837021e57c5dd46df082e4ba1964736f6c63430008050033",
  "immutableReferences": {},
  "source": "pragma solidity >=0.5.0 <0.8.6;\n\ncontract Admin{\n     address public owner;\n\n    constructor() public{\n        owner=msg.sender;\n    }\n\n    modifier onlyOwner(){\n        require(msg.sender==owner,\"sorry!,Only owner is allowed to visit!\");\n        _;\n    }\n\n    enum roles{\n        norole,\n        supplier,\n        transporter,\n        manufacturer,\n        distributor,\n        retailer,\n        revoke\n    }\n\n    event UserRegister(address indexed EthAddress, string Name);\n    event UserRoleRevoked(address indexed EthAddress, string Name, uint Role);\n    event UserRoleRessign(address indexed EthAddress, string Name, uint Role);\n\n     struct UserInfo{\n        string name;\n        string location;\n        address ethAddress;\n        roles role;\n    }\n\n      mapping(address => UserInfo) public UsersDetails;\n      address[] users;\n\n    function registerUser(address EthAddress,string memory Name,string memory Location,uint Role) public {\n        require(UsersDetails[EthAddress].role==roles.norole,\"User Already registered\");\n        UsersDetails[EthAddress].name = Name;\n        UsersDetails[EthAddress].location = Location;\n        UsersDetails[EthAddress].ethAddress = EthAddress;\n        UsersDetails[EthAddress].role = roles(Role);\n        users.push(EthAddress);\n        emit UserRegister(EthAddress, Name);\n    }\n\n    function revokeRole(address userAddress) public onlyOwner {\n        require(UsersDetails[userAddress].role!=roles.norole,\"user not registered\");\n        emit UserRoleRevoked(userAddress, UsersDetails[userAddress].name, uint(UsersDetails[userAddress].role));\n        UsersDetails[userAddress].role=roles(6);\n    }\n\n    function reassignRole(address userAddress,uint Role) public onlyOwner {\n          require(UsersDetails[userAddress].role != roles.norole, \"User not registered\");\n        UsersDetails[userAddress].role = roles(Role);\n        emit UserRoleRessign(userAddress, UsersDetails[userAddress].name,uint(UsersDetails[userAddress].role));\n    }\n\n    /***********************************************User Section****************************************************/\n\n   function getUserInfo(address userAddress) public view returns(string memory,string memory,address,uint){\n       return (\n           UsersDetails[userAddress].name,\n           UsersDetails[userAddress].location,\n           UsersDetails[userAddress].ethAddress,\n           uint(UsersDetails[userAddress].role)\n       );\n   }\n\n   function getUsersCount() public view returns(uint count){\n       return users.length;\n   }\n\n   function getUserByIndex(uint index) public view returns(string memory,string memory,address,uint){\n       return getUserInfo(users[index]);\n   }\n\n   function getRole(address _address) public view returns(uint){\n       return uint(UsersDetails[_address].role);\n   }\n\n}",
  "sourcePath": "D:\\FYP\\till-60-precent-and-onwards\\vite-dash\\src\\contracts\\Admin.sol",
  "compiler": {
    "name": "solc",
    "version": "0.8.5+commit.a4f2e591.Emscripten.clang"
  },
  "schemaVersion": "3.4.14",
  "updatedAt": "2023-06-04T16:51:27.886Z",
  "devdoc": {
    "kind": "dev",
    "methods": {},
    "version": 1
  },
  "userdoc": {
    "kind": "user",
    "methods": {},
    "version": 1
  }
}