{
  "contractName": "Distributor",
  "abi": [
    {
      "inputs": [
        {
          "internalType": "address",
          "name": "_batchId",
          "type": "address"
        },
        {
          "internalType": "address",
          "name": "_sender",
          "type": "address"
        },
        {
          "internalType": "address",
          "name": "_shipper",
          "type": "address"
        },
        {
          "internalType": "address",
          "name": "_retailer",
          "type": "address"
        }
      ],
      "stateMutability": "nonpayable",
      "type": "constructor"
    },
    {
      "inputs": [],
      "name": "batchId",
      "outputs": [
        {
          "internalType": "address",
          "name": "",
          "type": "address"
        }
      ],
      "stateMutability": "view",
      "type": "function"
    },
    {
      "inputs": [],
      "name": "getBatchIdStatus",
      "outputs": [
        {
          "internalType": "uint256",
          "name": "",
          "type": "uint256"
        }
      ],
      "stateMutability": "view",
      "type": "function"
    },
    {
      "inputs": [
        {
          "internalType": "address",
          "name": "_batchId",
          "type": "address"
        },
        {
          "internalType": "address",
          "name": "_shipper",
          "type": "address"
        }
      ],
      "name": "pickPackageForRetailer",
      "outputs": [],
      "stateMutability": "nonpayable",
      "type": "function"
    },
    {
      "inputs": [
        {
          "internalType": "address",
          "name": "_batchId",
          "type": "address"
        },
        {
          "internalType": "address",
          "name": "_receiver",
          "type": "address"
        }
      ],
      "name": "receivePackageRetailer",
      "outputs": [],
      "stateMutability": "nonpayable",
      "type": "function"
    }
  ],
  "bytecode": "0x608060405234801561001057600080fd5b506040516108a03803806108a083398181016040528101906100329190610194565b826000806101000a81548173ffffffffffffffffffffffffffffffffffffffff021916908373ffffffffffffffffffffffffffffffffffffffff16021790555083600160006101000a81548173ffffffffffffffffffffffffffffffffffffffff021916908373ffffffffffffffffffffffffffffffffffffffff16021790555082600260006101000a81548173ffffffffffffffffffffffffffffffffffffffff021916908373ffffffffffffffffffffffffffffffffffffffff16021790555081600360006101000a81548173ffffffffffffffffffffffffffffffffffffffff021916908373ffffffffffffffffffffffffffffffffffffffff16021790555080600460006101000a81548173ffffffffffffffffffffffffffffffffffffffff021916908373ffffffffffffffffffffffffffffffffffffffff16021790555050505050610249565b60008151905061018e81610232565b92915050565b600080600080608085870312156101ae576101ad61022d565b5b60006101bc8782880161017f565b94505060206101cd8782880161017f565b93505060406101de8782880161017f565b92505060606101ef8782880161017f565b91505092959194509250565b60006102068261020d565b9050919050565b600073ffffffffffffffffffffffffffffffffffffffff82169050919050565b600080fd5b61023b816101fb565b811461024657600080fd5b50565b610648806102586000396000f3fe608060405234801561001057600080fd5b506004361061004c5760003560e01c8063190d65de146100515780634972134a1461006d578063b4779a3c1461008b578063e2785eee146100a7575b600080fd5b61006b600480360381019061006691906103c2565b6100c5565b005b610075610201565b6040516100829190610466565b60405180910390f35b6100a560048036038101906100a091906103c2565b610227565b005b6100af610384565b6040516100bc91906104c1565b60405180910390f35b600360009054906101000a900473ffffffffffffffffffffffffffffffffffffffff1673ffffffffffffffffffffffffffffffffffffffff168173ffffffffffffffffffffffffffffffffffffffff1614610155576040517f08c379a000000000000000000000000000000000000000000000000000000000815260040161014c906104a1565b60405180910390fd5b6001600281111561016957610168610529565b5b600460146101000a81548160ff0219169083600281111561018d5761018c610529565b5b02179055508173ffffffffffffffffffffffffffffffffffffffff1663ef488803826040518263ffffffff1660e01b81526004016101cb9190610466565b600060405180830381600087803b1580156101e557600080fd5b505af11580156101f9573d6000803e3d6000fd5b505050505050565b600160009054906101000a900473ffffffffffffffffffffffffffffffffffffffff1681565b8073ffffffffffffffffffffffffffffffffffffffff16600460009054906101000a900473ffffffffffffffffffffffffffffffffffffffff1673ffffffffffffffffffffffffffffffffffffffff16146102b7576040517f08c379a00000000000000000000000000000000000000000000000000000000081526004016102ae90610481565b60405180910390fd5b6002808111156102ca576102c9610529565b5b600460146101000a81548160ff021916908360028111156102ee576102ed610529565b5b02179055508173ffffffffffffffffffffffffffffffffffffffff1663f64cd21e600460009054906101000a900473ffffffffffffffffffffffffffffffffffffffff166040518263ffffffff1660e01b815260040161034e9190610466565b600060405180830381600087803b15801561036857600080fd5b505af115801561037c573d6000803e3d6000fd5b505050505050565b6000600460149054906101000a900460ff1660028111156103a8576103a7610529565b5b905090565b6000813590506103bc816105fb565b92915050565b600080604083850312156103d9576103d8610558565b5b60006103e7858286016103ad565b92505060206103f8858286016103ad565b9150509250929050565b61040b816104ed565b82525050565b600061041e6023836104dc565b91506104298261055d565b604082019050919050565b60006104416027836104dc565b915061044c826105ac565b604082019050919050565b6104608161051f565b82525050565b600060208201905061047b6000830184610402565b92915050565b6000602082019050818103600083015261049a81610411565b9050919050565b600060208201905081810360008301526104ba81610434565b9050919050565b60006020820190506104d66000830184610457565b92915050565b600082825260208201905092915050565b60006104f8826104ff565b9050919050565b600073ffffffffffffffffffffffffffffffffffffffff82169050919050565b6000819050919050565b7f4e487b7100000000000000000000000000000000000000000000000000000000600052602160045260246000fd5b600080fd5b7f4f6e6c7920726563656976657220697320616c6c6f77656420746f207265636560008201527f6976650000000000000000000000000000000000000000000000000000000000602082015250565b7f4f6e6c79205368697070657220697320616c6c6f77656420746f207069636b2060008201527f7061636b61676500000000000000000000000000000000000000000000000000602082015250565b610604816104ed565b811461060f57600080fd5b5056fea2646970667358221220cac0b167e095715e22e389cb2eba1e6be26cb3dcbe474ba28cf724f5d4b5780c64736f6c63430008050033",
  "immutableReferences": {},
  "source": "pragma solidity >=0.5.0 <0.8.6;\n\nimport \"./Medicine.sol\";\n\ncontract Distributor{\n    address owner;\n    enum packageStatus{atCreator,picked,delivered}\n\n    address public batchId;\n    address sender;\n    address shipper;\n    address retailer;\n    packageStatus status;\n\n    constructor(\n        address _batchId,\n        address _sender,\n        address _shipper,\n        address _retailer\n    ) public {\n        owner=_sender;\n        batchId=_batchId;\n        sender=_sender;\n        shipper=_shipper;\n        retailer=_retailer;\n    }\n\n    function getBatchIdStatus() public view returns(uint){\n        return uint(status);\n    }\n\n    function pickPackageForRetailer(address _batchId,address _shipper) public {\n        require(_shipper==shipper,\"Only Shipper is allowed to pick package\");\n        status=packageStatus(1);\n        Medicine(_batchId).pickPackageRetailer(_shipper);\n    }\n\n    function receivePackageRetailer(address _batchId,address _receiver) public {\n        require(retailer==_receiver,\"Only receiver is allowed to receive\");\n        status=packageStatus(2);\n        Medicine(_batchId).receivePackageRetailer(retailer);\n    }\n\n\n    \n\n\n\n}",
  "sourcePath": "D:\\FYP\\till-60-precent-and-onwards\\vite-dash\\src\\contracts\\Distributor.sol",
  "compiler": {
    "name": "solc",
    "version": "0.8.5+commit.a4f2e591.Emscripten.clang"
  },
  "schemaVersion": "3.4.14",
  "updatedAt": "2023-06-01T17:34:46.580Z",
  "devdoc": {
    "kind": "dev",
    "methods": {},
    "version": 1
  },
  "userdoc": {
    "kind": "user",
    "methods": {},
    "version": 1
  }
}