{
  "contractName": "MedCycle",
  "abi": [
    {
      "inputs": [
        {
          "internalType": "address",
          "name": "_admin",
          "type": "address"
        }
      ],
      "payable": false,
      "stateMutability": "nonpayable",
      "type": "constructor"
    },
    {
      "anonymous": false,
      "inputs": [
        {
          "indexed": true,
          "internalType": "address",
          "name": "BatchId",
          "type": "address"
        },
        {
          "indexed": true,
          "internalType": "address",
          "name": "Manufacturer",
          "type": "address"
        },
        {
          "indexed": false,
          "internalType": "address",
          "name": "shipper",
          "type": "address"
        },
        {
          "indexed": true,
          "internalType": "address",
          "name": "Receiver",
          "type": "address"
        }
      ],
      "name": "MedicineNewBatch",
      "type": "event"
    },
    {
      "anonymous": false,
      "inputs": [
        {
          "indexed": false,
          "internalType": "address",
          "name": "BatchID",
          "type": "address"
        },
        {
          "indexed": true,
          "internalType": "address",
          "name": "Retailer",
          "type": "address"
        },
        {
          "indexed": false,
          "internalType": "uint256",
          "name": "status",
          "type": "uint256"
        }
      ],
      "name": "MedicineStatus",
      "type": "event"
    },
    {
      "constant": false,
      "inputs": [
        {
          "internalType": "address",
          "name": "rawmaterialAddress",
          "type": "address"
        }
      ],
      "name": "rawPackageReceived",
      "outputs": [],
      "payable": false,
      "stateMutability": "nonpayable",
      "type": "function"
    },
    {
      "constant": true,
      "inputs": [
        {
          "internalType": "address",
          "name": "_manufacturer",
          "type": "address"
        }
      ],
      "name": "getPackagesCountManufacturer",
      "outputs": [
        {
          "internalType": "uint256",
          "name": "",
          "type": "uint256"
        }
      ],
      "payable": false,
      "stateMutability": "view",
      "type": "function"
    },
    {
      "constant": true,
      "inputs": [
        {
          "internalType": "uint256",
          "name": "index",
          "type": "uint256"
        },
        {
          "internalType": "address",
          "name": "_manufacturer",
          "type": "address"
        }
      ],
      "name": "getPackageIdByIndexManufacturer",
      "outputs": [
        {
          "internalType": "address",
          "name": "",
          "type": "address"
        }
      ],
      "payable": false,
      "stateMutability": "view",
      "type": "function"
    },
    {
      "constant": false,
      "inputs": [
        {
          "internalType": "string",
          "name": "_description",
          "type": "string"
        },
        {
          "internalType": "address",
          "name": "_rawmaterial",
          "type": "address"
        },
        {
          "internalType": "uint256",
          "name": "_quantity",
          "type": "uint256"
        },
        {
          "internalType": "address",
          "name": "_shipper",
          "type": "address"
        },
        {
          "internalType": "address",
          "name": "_distributor",
          "type": "address"
        }
      ],
      "name": "manufactureMedicine",
      "outputs": [],
      "payable": false,
      "stateMutability": "nonpayable",
      "type": "function"
    },
    {
      "constant": true,
      "inputs": [
        {
          "internalType": "address",
          "name": "_manufacturer",
          "type": "address"
        }
      ],
      "name": "getManufacturedMedicineCountManufacturer",
      "outputs": [
        {
          "internalType": "uint256",
          "name": "",
          "type": "uint256"
        }
      ],
      "payable": false,
      "stateMutability": "view",
      "type": "function"
    },
    {
      "constant": true,
      "inputs": [
        {
          "internalType": "uint256",
          "name": "index",
          "type": "uint256"
        },
        {
          "internalType": "address",
          "name": "_manufacturer",
          "type": "address"
        }
      ],
      "name": "getManufacturedMedicineIdByIndexManufacturer",
      "outputs": [
        {
          "internalType": "address",
          "name": "",
          "type": "address"
        }
      ],
      "payable": false,
      "stateMutability": "view",
      "type": "function"
    },
    {
      "constant": false,
      "inputs": [
        {
          "internalType": "string",
          "name": "_hash",
          "type": "string"
        }
      ],
      "name": "setHash",
      "outputs": [],
      "payable": false,
      "stateMutability": "nonpayable",
      "type": "function"
    },
    {
      "constant": true,
      "inputs": [],
      "name": "getHash",
      "outputs": [
        {
          "internalType": "string",
          "name": "",
          "type": "string"
        }
      ],
      "payable": false,
      "stateMutability": "view",
      "type": "function"
    },
    {
      "constant": false,
      "inputs": [
        {
          "internalType": "address",
          "name": "_batchId",
          "type": "address"
        },
        {
          "internalType": "address",
          "name": "_shipper",
          "type": "address"
        },
        {
          "internalType": "address",
          "name": "_retailer",
          "type": "address"
        }
      ],
      "name": "transferMedicineDistributorToRetailer",
      "outputs": [],
      "payable": false,
      "stateMutability": "nonpayable",
      "type": "function"
    },
    {
      "constant": true,
      "inputs": [
        {
          "internalType": "address",
          "name": "_distributor",
          "type": "address"
        }
      ],
      "name": "getBatchesCountDistributorToRetailer",
      "outputs": [
        {
          "internalType": "uint256",
          "name": "",
          "type": "uint256"
        }
      ],
      "payable": false,
      "stateMutability": "view",
      "type": "function"
    },
    {
      "constant": true,
      "inputs": [
        {
          "internalType": "uint256",
          "name": "index",
          "type": "uint256"
        },
        {
          "internalType": "address",
          "name": "_distributor",
          "type": "address"
        }
      ],
      "name": "getBatchesIdByIndexDistributorToRetailer",
      "outputs": [
        {
          "internalType": "address",
          "name": "",
          "type": "address"
        }
      ],
      "payable": false,
      "stateMutability": "view",
      "type": "function"
    },
    {
      "constant": true,
      "inputs": [
        {
          "internalType": "address",
          "name": "_batchId",
          "type": "address"
        }
      ],
      "name": "getSubContractDistributorToRetailer",
      "outputs": [
        {
          "internalType": "address",
          "name": "",
          "type": "address"
        }
      ],
      "payable": false,
      "stateMutability": "view",
      "type": "function"
    },
    {
      "constant": false,
      "inputs": [
        {
          "internalType": "address",
          "name": "_batchId",
          "type": "address"
        },
        {
          "internalType": "address",
          "name": "_distributorAddress",
          "type": "address"
        }
      ],
      "name": "medicineReceivedAtRetailer",
      "outputs": [],
      "payable": false,
      "stateMutability": "nonpayable",
      "type": "function"
    },
    {
      "constant": false,
      "inputs": [
        {
          "internalType": "address",
          "name": "_batchId",
          "type": "address"
        },
        {
          "internalType": "uint256",
          "name": "_status",
          "type": "uint256"
        }
      ],
      "name": "updateSaleStatus",
      "outputs": [],
      "payable": false,
      "stateMutability": "nonpayable",
      "type": "function"
    },
    {
      "constant": true,
      "inputs": [
        {
          "internalType": "address",
          "name": "_batchId",
          "type": "address"
        }
      ],
      "name": "salesInfo",
      "outputs": [
        {
          "internalType": "uint256",
          "name": "",
          "type": "uint256"
        }
      ],
      "payable": false,
      "stateMutability": "view",
      "type": "function"
    },
    {
      "constant": true,
      "inputs": [
        {
          "internalType": "address",
          "name": "_retailer",
          "type": "address"
        }
      ],
      "name": "getBatchesCountRetailer",
      "outputs": [
        {
          "internalType": "uint256",
          "name": "",
          "type": "uint256"
        }
      ],
      "payable": false,
      "stateMutability": "view",
      "type": "function"
    },
    {
      "constant": true,
      "inputs": [
        {
          "internalType": "uint256",
          "name": "index",
          "type": "uint256"
        },
        {
          "internalType": "address",
          "name": "_retailer",
          "type": "address"
        }
      ],
      "name": "getBatchedIdByIndexRetailer",
      "outputs": [
        {
          "internalType": "address",
          "name": "",
          "type": "address"
        }
      ],
      "payable": false,
      "stateMutability": "view",
      "type": "function"
    }
  ],
  "bytecode": "0x608060405234801561001057600080fd5b5060405161473e38038061473e8339818101604052602081101561003357600080fd5b8101908080519060200190929190505050806000806101000a81548173ffffffffffffffffffffffffffffffffffffffff021916908373ffffffffffffffffffffffffffffffffffffffff160217905550506146aa806100946000396000f3fe60806040523480156200001157600080fd5b5060043610620001245760003560e01c8063b4b5952811620000b1578063d13319c4116200007b578063d13319c41462000795578063d85e970f146200081d578063e867adc81462000878578063eae3c20714620008d3578063f8d7e19b14620009245762000124565b8063b4b5952814620005fb578063bb8ee1c51462000662578063bc8c5b1c14620006bd578063c26c5bab14620007045762000124565b806381a1452f11620000f357806381a1452f146200042d5780638c59adc214620004885780639b71cc67146200050f578063b0234f3f146200056a5762000124565b80630159255914620001295780631ed83fd414620001ba5780634a9f386f146200027b57806380c2d0d414620003a6575b600080fd5b62000178600480360360408110156200014157600080fd5b8101908080359060200190929190803573ffffffffffffffffffffffffffffffffffffffff169060200190929190505050620009b5565b604051808273ffffffffffffffffffffffffffffffffffffffff1673ffffffffffffffffffffffffffffffffffffffff16815260200191505060405180910390f35b6200027960048036036020811015620001d257600080fd5b8101908080359060200190640100000000811115620001f057600080fd5b8201836020820111156200020357600080fd5b803590602001918460018302840111640100000000831117156200022657600080fd5b91908080601f016020809104026020016040519081016040528093929190818152602001838380828437600081840152601f19601f82011690508083019250505050505050919291929050505062000b8f565b005b620003a4600480360360a08110156200029357600080fd5b8101908080359060200190640100000000811115620002b157600080fd5b820183602082011115620002c457600080fd5b80359060200191846001830284011164010000000083111715620002e757600080fd5b91908080601f016020809104026020016040519081016040528093929190818152602001838380828437600081840152601f19601f820116905080830192505050505050509192919290803573ffffffffffffffffffffffffffffffffffffffff16906020019092919080359060200190929190803573ffffffffffffffffffffffffffffffffffffffff169060200190929190803573ffffffffffffffffffffffffffffffffffffffff16906020019092919050505062000be8565b005b6200042b60048036036060811015620003be57600080fd5b81019080803573ffffffffffffffffffffffffffffffffffffffff169060200190929190803573ffffffffffffffffffffffffffffffffffffffff169060200190929190803573ffffffffffffffffffffffffffffffffffffffff16906020019092919050505062001010565b005b62000472600480360360208110156200044557600080fd5b81019080803573ffffffffffffffffffffffffffffffffffffffff1690602001909291905050506200144f565b6040518082815260200191505060405180910390f35b620004cd60048036036020811015620004a057600080fd5b81019080803573ffffffffffffffffffffffffffffffffffffffff169060200190929190505050620015f5565b604051808273ffffffffffffffffffffffffffffffffffffffff1673ffffffffffffffffffffffffffffffffffffffff16815260200191505060405180910390f35b62000554600480360360208110156200052757600080fd5b81019080803573ffffffffffffffffffffffffffffffffffffffff1690602001909291905050506200165e565b6040518082815260200191505060405180910390f35b620005b9600480360360408110156200058257600080fd5b8101908080359060200190929190803573ffffffffffffffffffffffffffffffffffffffff16906020019092919050505062001804565b604051808273ffffffffffffffffffffffffffffffffffffffff1673ffffffffffffffffffffffffffffffffffffffff16815260200191505060405180910390f35b62000660600480360360408110156200061357600080fd5b81019080803573ffffffffffffffffffffffffffffffffffffffff169060200190929190803573ffffffffffffffffffffffffffffffffffffffff169060200190929190505050620019de565b005b620006a7600480360360208110156200067a57600080fd5b81019080803573ffffffffffffffffffffffffffffffffffffffff16906020019092919050505062001d1a565b6040518082815260200191505060405180910390f35b6200070260048036036020811015620006d557600080fd5b81019080803573ffffffffffffffffffffffffffffffffffffffff16906020019092919050505062001d7c565b005b62000753600480360360408110156200071c57600080fd5b8101908080359060200190929190803573ffffffffffffffffffffffffffffffffffffffff16906020019092919050505062002015565b604051808273ffffffffffffffffffffffffffffffffffffffff1673ffffffffffffffffffffffffffffffffffffffff16815260200191505060405180910390f35b6200079f620021ef565b6040518080602001828103825283818151815260200191508051906020019080838360005b83811015620007e1578082015181840152602081019050620007c4565b50505050905090810190601f1680156200080f5780820380516001836020036101000a031916815260200191505b509250505060405180910390f35b62000862600480360360208110156200083557600080fd5b81019080803573ffffffffffffffffffffffffffffffffffffffff169060200190929190505050620022d2565b6040518082815260200191505060405180910390f35b620008bd600480360360208110156200089057600080fd5b81019080803573ffffffffffffffffffffffffffffffffffffffff16906020019092919050505062002478565b6040518082815260200191505060405180910390f35b6200092260048036036040811015620008eb57600080fd5b81019080803573ffffffffffffffffffffffffffffffffffffffff169060200190929190803590602001909291905050506200261e565b005b62000973600480360360408110156200093c57600080fd5b8101908080359060200190929190803573ffffffffffffffffffffffffffffffffffffffff16906020019092919050505062002962565b604051808273ffffffffffffffffffffffffffffffffffffffff1673ffffffffffffffffffffffffffffffffffffffff16815260200191505060405180910390f35b600060036006811115620009c557fe5b6000809054906101000a900473ffffffffffffffffffffffffffffffffffffffff1673ffffffffffffffffffffffffffffffffffffffff166344276733846040518263ffffffff1660e01b8152600401808273ffffffffffffffffffffffffffffffffffffffff1673ffffffffffffffffffffffffffffffffffffffff16815260200191505060206040518083038186803b15801562000a6457600080fd5b505afa15801562000a79573d6000803e3d6000fd5b505050506040513d602081101562000a9057600080fd5b8101908080519060200190929190505050600681111562000aad57fe5b600681111562000ab957fe5b1462000b11576040517f08c379a0000000000000000000000000000000000000000000000000000000008152600401808060200182810382526029815260200180620046256029913960400191505060405180910390fd5b600160008373ffffffffffffffffffffffffffffffffffffffff1673ffffffffffffffffffffffffffffffffffffffff168152602001908152602001600020838154811062000b5c57fe5b9060005260206000200160009054906101000a900473ffffffffffffffffffffffffffffffffffffffff16905092915050565b80600260003373ffffffffffffffffffffffffffffffffffffffff1673ffffffffffffffffffffffffffffffffffffffff168152602001908152602001600020908051906020019062000be492919062002b3c565b5050565b6003600681111562000bf657fe5b6000809054906101000a900473ffffffffffffffffffffffffffffffffffffffff1673ffffffffffffffffffffffffffffffffffffffff166344276733336040518263ffffffff1660e01b8152600401808273ffffffffffffffffffffffffffffffffffffffff1673ffffffffffffffffffffffffffffffffffffffff16815260200191505060206040518083038186803b15801562000c9557600080fd5b505afa15801562000caa573d6000803e3d6000fd5b505050506040513d602081101562000cc157600080fd5b8101908080519060200190929190505050600681111562000cde57fe5b600681111562000cea57fe5b1462000d42576040517f08c379a0000000000000000000000000000000000000000000000000000000008152600401808060200182810382526029815260200180620046256029913960400191505060405180910390fd5b600033868686868660405162000d589062002bc3565b808773ffffffffffffffffffffffffffffffffffffffff1673ffffffffffffffffffffffffffffffffffffffff168152602001806020018673ffffffffffffffffffffffffffffffffffffffff1673ffffffffffffffffffffffffffffffffffffffff1681526020018581526020018473ffffffffffffffffffffffffffffffffffffffff1673ffffffffffffffffffffffffffffffffffffffff1681526020018373ffffffffffffffffffffffffffffffffffffffff1673ffffffffffffffffffffffffffffffffffffffff168152602001828103825287818151815260200191508051906020019080838360005b8381101562000e6557808201518184015260208101905062000e48565b50505050905090810190601f16801562000e935780820380516001836020036101000a031916815260200191505b50975050505050505050604051809103906000f08015801562000eba573d6000803e3d6000fd5b509050600360003373ffffffffffffffffffffffffffffffffffffffff1673ffffffffffffffffffffffffffffffffffffffff1681526020019081526020016000208190806001815401808255809150509060018203906000526020600020016000909192909190916101000a81548173ffffffffffffffffffffffffffffffffffffffff021916908373ffffffffffffffffffffffffffffffffffffffff160217905550508173ffffffffffffffffffffffffffffffffffffffff163373ffffffffffffffffffffffffffffffffffffffff168273ffffffffffffffffffffffffffffffffffffffff167fa464e8d0d73596ec44ad2f56ca60a8fc4ef75e1b7b0b3f46fe1e073fb5da11b586604051808273ffffffffffffffffffffffffffffffffffffffff1673ffffffffffffffffffffffffffffffffffffffff16815260200191505060405180910390a4505050505050565b600460068111156200101e57fe5b6000809054906101000a900473ffffffffffffffffffffffffffffffffffffffff1673ffffffffffffffffffffffffffffffffffffffff166344276733336040518263ffffffff1660e01b8152600401808273ffffffffffffffffffffffffffffffffffffffff1673ffffffffffffffffffffffffffffffffffffffff16815260200191505060206040518083038186803b158015620010bd57600080fd5b505afa158015620010d2573d6000803e3d6000fd5b505050506040513d6020811015620010e957600080fd5b810190808051906020019092919050505060068111156200110657fe5b60068111156200111257fe5b148015620011ce57508273ffffffffffffffffffffffffffffffffffffffff1663bfe109286040518163ffffffff1660e01b815260040160206040518083038186803b1580156200116257600080fd5b505afa15801562001177573d6000803e3d6000fd5b505050506040513d60208110156200118e57600080fd5b810190808051906020019092919050505073ffffffffffffffffffffffffffffffffffffffff163373ffffffffffffffffffffffffffffffffffffffff16145b62001225576040517f08c379a00000000000000000000000000000000000000000000000000000000081526004018080602001828103825260288152602001806200464e6028913960400191505060405180910390fd5b600083338484604051620012399062002bd1565b808573ffffffffffffffffffffffffffffffffffffffff1673ffffffffffffffffffffffffffffffffffffffff1681526020018473ffffffffffffffffffffffffffffffffffffffff1673ffffffffffffffffffffffffffffffffffffffff1681526020018373ffffffffffffffffffffffffffffffffffffffff1673ffffffffffffffffffffffffffffffffffffffff1681526020018273ffffffffffffffffffffffffffffffffffffffff1673ffffffffffffffffffffffffffffffffffffffff168152602001945050505050604051809103906000f08015801562001325573d6000803e3d6000fd5b509050600460003373ffffffffffffffffffffffffffffffffffffffff1673ffffffffffffffffffffffffffffffffffffffff1681526020019081526020016000208190806001815401808255809150509060018203906000526020600020016000909192909190916101000a81548173ffffffffffffffffffffffffffffffffffffffff021916908373ffffffffffffffffffffffffffffffffffffffff1602179055505080600560008673ffffffffffffffffffffffffffffffffffffffff1673ffffffffffffffffffffffffffffffffffffffff16815260200190815260200160002060006101000a81548173ffffffffffffffffffffffffffffffffffffffff021916908373ffffffffffffffffffffffffffffffffffffffff16021790555050505050565b6000600360068111156200145f57fe5b6000809054906101000a900473ffffffffffffffffffffffffffffffffffffffff1673ffffffffffffffffffffffffffffffffffffffff166344276733846040518263ffffffff1660e01b8152600401808273ffffffffffffffffffffffffffffffffffffffff1673ffffffffffffffffffffffffffffffffffffffff16815260200191505060206040518083038186803b158015620014fe57600080fd5b505afa15801562001513573d6000803e3d6000fd5b505050506040513d60208110156200152a57600080fd5b810190808051906020019092919050505060068111156200154757fe5b60068111156200155357fe5b14620015ab576040517f08c379a0000000000000000000000000000000000000000000000000000000008152600401808060200182810382526029815260200180620046256029913960400191505060405180910390fd5b600360008373ffffffffffffffffffffffffffffffffffffffff1673ffffffffffffffffffffffffffffffffffffffff168152602001908152602001600020805490509050919050565b6000600560008373ffffffffffffffffffffffffffffffffffffffff1673ffffffffffffffffffffffffffffffffffffffff16815260200190815260200160002060009054906101000a900473ffffffffffffffffffffffffffffffffffffffff169050919050565b6000600360068111156200166e57fe5b6000809054906101000a900473ffffffffffffffffffffffffffffffffffffffff1673ffffffffffffffffffffffffffffffffffffffff166344276733846040518263ffffffff1660e01b8152600401808273ffffffffffffffffffffffffffffffffffffffff1673ffffffffffffffffffffffffffffffffffffffff16815260200191505060206040518083038186803b1580156200170d57600080fd5b505afa15801562001722573d6000803e3d6000fd5b505050506040513d60208110156200173957600080fd5b810190808051906020019092919050505060068111156200175657fe5b60068111156200176257fe5b14620017ba576040517f08c379a0000000000000000000000000000000000000000000000000000000008152600401808060200182810382526029815260200180620046256029913960400191505060405180910390fd5b600160008373ffffffffffffffffffffffffffffffffffffffff1673ffffffffffffffffffffffffffffffffffffffff168152602001908152602001600020805490509050919050565b6000600460068111156200181457fe5b6000809054906101000a900473ffffffffffffffffffffffffffffffffffffffff1673ffffffffffffffffffffffffffffffffffffffff166344276733846040518263ffffffff1660e01b8152600401808273ffffffffffffffffffffffffffffffffffffffff1673ffffffffffffffffffffffffffffffffffffffff16815260200191505060206040518083038186803b158015620018b357600080fd5b505afa158015620018c8573d6000803e3d6000fd5b505050506040513d6020811015620018df57600080fd5b81019080805190602001909291905050506006811115620018fc57fe5b60068111156200190857fe5b1462001960576040517f08c379a00000000000000000000000000000000000000000000000000000000081526004018080602001828103825260288152602001806200464e6028913960400191505060405180910390fd5b600460008373ffffffffffffffffffffffffffffffffffffffff1673ffffffffffffffffffffffffffffffffffffffff1681526020019081526020016000208381548110620019ab57fe5b9060005260206000200160009054906101000a900473ffffffffffffffffffffffffffffffffffffffff16905092915050565b60056006811115620019ec57fe5b6000809054906101000a900473ffffffffffffffffffffffffffffffffffffffff1673ffffffffffffffffffffffffffffffffffffffff166344276733336040518263ffffffff1660e01b8152600401808273ffffffffffffffffffffffffffffffffffffffff1673ffffffffffffffffffffffffffffffffffffffff16815260200191505060206040518083038186803b15801562001a8b57600080fd5b505afa15801562001aa0573d6000803e3d6000fd5b505050506040513d602081101562001ab757600080fd5b8101908080519060200190929190505050600681111562001ad457fe5b600681111562001ae057fe5b1462001b38576040517f08c379a0000000000000000000000000000000000000000000000000000000008152600401808060200182810382526026815260200180620045b16026913960400191505060405180910390fd5b8073ffffffffffffffffffffffffffffffffffffffff1663b4779a3c83336040518363ffffffff1660e01b8152600401808373ffffffffffffffffffffffffffffffffffffffff1673ffffffffffffffffffffffffffffffffffffffff1681526020018273ffffffffffffffffffffffffffffffffffffffff1673ffffffffffffffffffffffffffffffffffffffff16815260200192505050600060405180830381600087803b15801562001bec57600080fd5b505af115801562001c01573d6000803e3d6000fd5b50505050600660003373ffffffffffffffffffffffffffffffffffffffff1673ffffffffffffffffffffffffffffffffffffffff1681526020019081526020016000208290806001815401808255809150509060018203906000526020600020016000909192909190916101000a81548173ffffffffffffffffffffffffffffffffffffffff021916908373ffffffffffffffffffffffffffffffffffffffff160217905550506001600481111562001cb657fe5b600760008473ffffffffffffffffffffffffffffffffffffffff1673ffffffffffffffffffffffffffffffffffffffff16815260200190815260200160002060006101000a81548160ff0219169083600481111562001d1157fe5b02179055505050565b6000600760008373ffffffffffffffffffffffffffffffffffffffff1673ffffffffffffffffffffffffffffffffffffffff16815260200190815260200160002060009054906101000a900460ff16600481111562001d7557fe5b9050919050565b6003600681111562001d8a57fe5b6000809054906101000a900473ffffffffffffffffffffffffffffffffffffffff1673ffffffffffffffffffffffffffffffffffffffff166344276733336040518263ffffffff1660e01b8152600401808273ffffffffffffffffffffffffffffffffffffffff1673ffffffffffffffffffffffffffffffffffffffff16815260200191505060206040518083038186803b15801562001e2957600080fd5b505afa15801562001e3e573d6000803e3d6000fd5b505050506040513d602081101562001e5557600080fd5b8101908080519060200190929190505050600681111562001e7257fe5b600681111562001e7e57fe5b1462001ed6576040517f08c379a0000000000000000000000000000000000000000000000000000000008152600401808060200182810382526029815260200180620045d76029913960400191505060405180910390fd5b8073ffffffffffffffffffffffffffffffffffffffff16631f29567a336040518263ffffffff1660e01b8152600401808273ffffffffffffffffffffffffffffffffffffffff1673ffffffffffffffffffffffffffffffffffffffff168152602001915050600060405180830381600087803b15801562001f5657600080fd5b505af115801562001f6b573d6000803e3d6000fd5b50505050600160003373ffffffffffffffffffffffffffffffffffffffff1673ffffffffffffffffffffffffffffffffffffffff1681526020019081526020016000208190806001815401808255809150509060018203906000526020600020016000909192909190916101000a81548173ffffffffffffffffffffffffffffffffffffffff021916908373ffffffffffffffffffffffffffffffffffffffff1602179055505050565b6000600360068111156200202557fe5b6000809054906101000a900473ffffffffffffffffffffffffffffffffffffffff1673ffffffffffffffffffffffffffffffffffffffff166344276733846040518263ffffffff1660e01b8152600401808273ffffffffffffffffffffffffffffffffffffffff1673ffffffffffffffffffffffffffffffffffffffff16815260200191505060206040518083038186803b158015620020c457600080fd5b505afa158015620020d9573d6000803e3d6000fd5b505050506040513d6020811015620020f057600080fd5b810190808051906020019092919050505060068111156200210d57fe5b60068111156200211957fe5b1462002171576040517f08c379a0000000000000000000000000000000000000000000000000000000008152600401808060200182810382526029815260200180620046256029913960400191505060405180910390fd5b600360008373ffffffffffffffffffffffffffffffffffffffff1673ffffffffffffffffffffffffffffffffffffffff1681526020019081526020016000208381548110620021bc57fe5b9060005260206000200160009054906101000a900473ffffffffffffffffffffffffffffffffffffffff16905092915050565b6060600260003373ffffffffffffffffffffffffffffffffffffffff1673ffffffffffffffffffffffffffffffffffffffff1681526020019081526020016000208054600181600116156101000203166002900480601f016020809104026020016040519081016040528092919081815260200182805460018160011615610100020316600290048015620022c85780601f106200229c57610100808354040283529160200191620022c8565b820191906000526020600020905b815481529060010190602001808311620022aa57829003601f168201915b5050505050905090565b600060046006811115620022e257fe5b6000809054906101000a900473ffffffffffffffffffffffffffffffffffffffff1673ffffffffffffffffffffffffffffffffffffffff166344276733846040518263ffffffff1660e01b8152600401808273ffffffffffffffffffffffffffffffffffffffff1673ffffffffffffffffffffffffffffffffffffffff16815260200191505060206040518083038186803b1580156200238157600080fd5b505afa15801562002396573d6000803e3d6000fd5b505050506040513d6020811015620023ad57600080fd5b81019080805190602001909291905050506006811115620023ca57fe5b6006811115620023d657fe5b146200242e576040517f08c379a00000000000000000000000000000000000000000000000000000000081526004018080602001828103825260288152602001806200464e6028913960400191505060405180910390fd5b600460008373ffffffffffffffffffffffffffffffffffffffff1673ffffffffffffffffffffffffffffffffffffffff168152602001908152602001600020805490509050919050565b6000600560068111156200248857fe5b6000809054906101000a900473ffffffffffffffffffffffffffffffffffffffff1673ffffffffffffffffffffffffffffffffffffffff166344276733846040518263ffffffff1660e01b8152600401808273ffffffffffffffffffffffffffffffffffffffff1673ffffffffffffffffffffffffffffffffffffffff16815260200191505060206040518083038186803b1580156200252757600080fd5b505afa1580156200253c573d6000803e3d6000fd5b505050506040513d60208110156200255357600080fd5b810190808051906020019092919050505060068111156200257057fe5b60068111156200257c57fe5b14620025d4576040517f08c379a0000000000000000000000000000000000000000000000000000000008152600401808060200182810382526025815260200180620046006025913960400191505060405180910390fd5b600660008373ffffffffffffffffffffffffffffffffffffffff1673ffffffffffffffffffffffffffffffffffffffff168152602001908152602001600020805490509050919050565b600560068111156200262c57fe5b6000809054906101000a900473ffffffffffffffffffffffffffffffffffffffff1673ffffffffffffffffffffffffffffffffffffffff166344276733336040518263ffffffff1660e01b8152600401808273ffffffffffffffffffffffffffffffffffffffff1673ffffffffffffffffffffffffffffffffffffffff16815260200191505060206040518083038186803b158015620026cb57600080fd5b505afa158015620026e0573d6000803e3d6000fd5b505050506040513d6020811015620026f757600080fd5b810190808051906020019092919050505060068111156200271457fe5b60068111156200272057fe5b1462002794576040517f08c379a00000000000000000000000000000000000000000000000000000000081526004018080602001828103825260208152602001807f4f6e6c792072657461696c65722063616e20757064617465207374617475732181525060200191505060405180910390fd5b60016004811115620027a257fe5b600760008473ffffffffffffffffffffffffffffffffffffffff1673ffffffffffffffffffffffffffffffffffffffff16815260200190815260200160002060009054906101000a900460ff166004811115620027fb57fe5b146200286f576040517f08c379a000000000000000000000000000000000000000000000000000000000815260040180806020018281038252601b8152602001807f4d65646963696e65206973206e6f742061742072657461696c6572000000000081525060200191505060405180910390fd5b8060048111156200287c57fe5b600760008473ffffffffffffffffffffffffffffffffffffffff1673ffffffffffffffffffffffffffffffffffffffff16815260200190815260200160002060006101000a81548160ff02191690836004811115620028d757fe5b02179055503373ffffffffffffffffffffffffffffffffffffffff167f778762ccb04f5a8838ed8914b13eb6f118224696959cbfa0cfea54133f76a7d58383604051808373ffffffffffffffffffffffffffffffffffffffff1673ffffffffffffffffffffffffffffffffffffffff1681526020018281526020019250505060405180910390a25050565b6000600560068111156200297257fe5b6000809054906101000a900473ffffffffffffffffffffffffffffffffffffffff1673ffffffffffffffffffffffffffffffffffffffff166344276733846040518263ffffffff1660e01b8152600401808273ffffffffffffffffffffffffffffffffffffffff1673ffffffffffffffffffffffffffffffffffffffff16815260200191505060206040518083038186803b15801562002a1157600080fd5b505afa15801562002a26573d6000803e3d6000fd5b505050506040513d602081101562002a3d57600080fd5b8101908080519060200190929190505050600681111562002a5a57fe5b600681111562002a6657fe5b1462002abe576040517f08c379a0000000000000000000000000000000000000000000000000000000008152600401808060200182810382526025815260200180620046006025913960400191505060405180910390fd5b600660008373ffffffffffffffffffffffffffffffffffffffff1673ffffffffffffffffffffffffffffffffffffffff168152602001908152602001600020838154811062002b0957fe5b9060005260206000200160009054906101000a900473ffffffffffffffffffffffffffffffffffffffff16905092915050565b828054600181600116156101000203166002900490600052602060002090601f016020900481019282601f1062002b7f57805160ff191683800117855562002bb0565b8280016001018555821562002bb0579182015b8281111562002baf57825182559160200191906001019062002b92565b5b50905062002bbf919062002bdf565b5090565b6112a78062002c0883390190565b6107028062003eaf83390190565b62002c0491905b8082111562002c0057600081600090555060010162002be6565b5090565b9056fe60806040523480156200001157600080fd5b50604051620012a7380380620012a7833981810160405260c08110156200003757600080fd5b8101908080519060200190929190805160405193929190846401000000008211156200006257600080fd5b838201915060208201858111156200007957600080fd5b82518660018202830111640100000000821117156200009757600080fd5b8083526020830192505050908051906020019080838360005b83811015620000cd578082015181840152602081019050620000b0565b50505050905090810190601f168015620000fb5780820380516001836020036101000a031916815260200191505b5060405260200180519060200190929190805190602001909291908051906020019092919080519060200190929190505050856000806101000a81548173ffffffffffffffffffffffffffffffffffffffff021916908373ffffffffffffffffffffffffffffffffffffffff16021790555085600560006101000a81548173ffffffffffffffffffffffffffffffffffffffff021916908373ffffffffffffffffffffffffffffffffffffffff1602179055508460019080519060200190620001c69291906200029d565b5083600260006101000a81548173ffffffffffffffffffffffffffffffffffffffff021916908373ffffffffffffffffffffffffffffffffffffffff1602179055508260038190555081600460006101000a81548173ffffffffffffffffffffffffffffffffffffffff021916908373ffffffffffffffffffffffffffffffffffffffff16021790555080600660006101000a81548173ffffffffffffffffffffffffffffffffffffffff021916908373ffffffffffffffffffffffffffffffffffffffff1602179055505050505050506200034c565b828054600181600116156101000203166002900490600052602060002090601f016020900481019282601f10620002e057805160ff191683800117855562000311565b8280016001018555821562000311579182015b8281111562000310578251825591602001919060010190620002f3565b5b50905062000320919062000324565b5090565b6200034991905b80821115620003455760008160009055506001016200032b565b5090565b90565b610f4b806200035c6000396000f3fe608060405234801561001057600080fd5b50600436106100885760003560e01c8063ef4888031161005b578063ef48880314610183578063f64cd21e146101c7578063f74fdde11461020b578063fc7923311461024f57610088565b80634c1249fc1461008d57806373b037db146100d75780637b1df25c146100f5578063bfe1092814610139575b600080fd5b6100956103a5565b604051808273ffffffffffffffffffffffffffffffffffffffff1673ffffffffffffffffffffffffffffffffffffffff16815260200191505060405180910390f35b6100df6103cb565b6040518082815260200191505060405180910390f35b6101376004803603602081101561010b57600080fd5b81019080803573ffffffffffffffffffffffffffffffffffffffff1690602001909291905050506103ed565b005b610141610676565b604051808273ffffffffffffffffffffffffffffffffffffffff1673ffffffffffffffffffffffffffffffffffffffff16815260200191505060405180910390f35b6101c56004803603602081101561019957600080fd5b81019080803573ffffffffffffffffffffffffffffffffffffffff16906020019092919050505061069c565b005b610209600480360360208110156101dd57600080fd5b81019080803573ffffffffffffffffffffffffffffffffffffffff1690602001909291905050506108e4565b005b61024d6004803603602081101561022157600080fd5b81019080803573ffffffffffffffffffffffffffffffffffffffff169060200190929190505050610b2b565b005b610257610d55565b604051808773ffffffffffffffffffffffffffffffffffffffff1673ffffffffffffffffffffffffffffffffffffffff168152602001806020018673ffffffffffffffffffffffffffffffffffffffff1673ffffffffffffffffffffffffffffffffffffffff1681526020018581526020018473ffffffffffffffffffffffffffffffffffffffff1673ffffffffffffffffffffffffffffffffffffffff1681526020018373ffffffffffffffffffffffffffffffffffffffff1673ffffffffffffffffffffffffffffffffffffffff168152602001828103825287818151815260200191508051906020019080838360005b8381101561036557808201518184015260208101905061034a565b50505050905090810190601f1680156103925780820380516001836020036101000a031916815260200191505b5097505050505050505060405180910390f35b600760009054906101000a900473ffffffffffffffffffffffffffffffffffffffff1681565b6000600760149054906101000a900460ff1660048111156103e857fe5b905090565b600660009054906101000a900473ffffffffffffffffffffffffffffffffffffffff1673ffffffffffffffffffffffffffffffffffffffff163373ffffffffffffffffffffffffffffffffffffffff1614610493576040517f08c379a0000000000000000000000000000000000000000000000000000000008152600401808060200182810382526028815260200180610eef6028913960400191505060405180910390fd5b600160048111156104a057fe5b60048111156104ab57fe5b600760149054906101000a900460ff1660048111156104c657fe5b14610539576040517f08c379a000000000000000000000000000000000000000000000000000000000815260040180806020018281038252601e8152602001807f746865207061636b616765206973206e6f74207769746820736869706572000081525060200191505060405180910390fd5b6002600481111561054657fe5b600760146101000a81548160ff0219169083600481111561056357fe5b021790555080600760006101000a81548173ffffffffffffffffffffffffffffffffffffffff021916908373ffffffffffffffffffffffffffffffffffffffff160217905550600760009054906101000a900473ffffffffffffffffffffffffffffffffffffffff1673ffffffffffffffffffffffffffffffffffffffff16600460009054906101000a900473ffffffffffffffffffffffffffffffffffffffff1673ffffffffffffffffffffffffffffffffffffffff163073ffffffffffffffffffffffffffffffffffffffff167f7e89c4b1a4e2b51aae84eb1f90e8a34cb792ece5ac5cb63db4830c891220b28d60016002604051808381526020018281526020019250505060405180910390a450565b600660009054906101000a900473ffffffffffffffffffffffffffffffffffffffff1681565b600460009054906101000a900473ffffffffffffffffffffffffffffffffffffffff1673ffffffffffffffffffffffffffffffffffffffff168173ffffffffffffffffffffffffffffffffffffffff1614610742576040517f08c379a000000000000000000000000000000000000000000000000000000000815260040180806020018281038252602e815260200180610ec1602e913960400191505060405180910390fd5b6002600481111561074f57fe5b600481111561075a57fe5b600760149054906101000a900460ff16600481111561077557fe5b146107e8576040517f08c379a00000000000000000000000000000000000000000000000000000000081526004018080602001828103825260208152602001807f746865207061636b616765206c65667420746865206469737472696275746f7281525060200191505060405180910390fd5b600360048111156107f557fe5b600760146101000a81548160ff0219169083600481111561081257fe5b0217905550600760009054906101000a900473ffffffffffffffffffffffffffffffffffffffff1673ffffffffffffffffffffffffffffffffffffffff16600460009054906101000a900473ffffffffffffffffffffffffffffffffffffffff1673ffffffffffffffffffffffffffffffffffffffff163073ffffffffffffffffffffffffffffffffffffffff167f7e89c4b1a4e2b51aae84eb1f90e8a34cb792ece5ac5cb63db4830c891220b28d60016003604051808381526020018281526020019250505060405180910390a450565b600760009054906101000a900473ffffffffffffffffffffffffffffffffffffffff1673ffffffffffffffffffffffffffffffffffffffff168173ffffffffffffffffffffffffffffffffffffffff161461098a576040517f08c379a0000000000000000000000000000000000000000000000000000000008152600401808060200182810382526028815260200180610eef6028913960400191505060405180910390fd5b6003600481111561099757fe5b60048111156109a257fe5b600760149054906101000a900460ff1660048111156109bd57fe5b14610a30576040517f08c379a000000000000000000000000000000000000000000000000000000000815260040180806020018281038252601c8152602001807f746865207061636b616765206c6566742074686520736869707065720000000081525060200191505060405180910390fd5b600480811115610a3c57fe5b600760146101000a81548160ff02191690836004811115610a5957fe5b0217905550600760009054906101000a900473ffffffffffffffffffffffffffffffffffffffff1673ffffffffffffffffffffffffffffffffffffffff16600460009054906101000a900473ffffffffffffffffffffffffffffffffffffffff1673ffffffffffffffffffffffffffffffffffffffff163073ffffffffffffffffffffffffffffffffffffffff167f7e89c4b1a4e2b51aae84eb1f90e8a34cb792ece5ac5cb63db4830c891220b28d60016004604051808381526020018281526020019250505060405180910390a450565b600460009054906101000a900473ffffffffffffffffffffffffffffffffffffffff1673ffffffffffffffffffffffffffffffffffffffff168173ffffffffffffffffffffffffffffffffffffffff1614610bd1576040517f08c379a000000000000000000000000000000000000000000000000000000000815260040180806020018281038252602e815260200180610ec1602e913960400191505060405180910390fd5b60006004811115610bde57fe5b6004811115610be957fe5b600760149054906101000a900460ff166004811115610c0457fe5b14610c5a576040517f08c379a0000000000000000000000000000000000000000000000000000000008152600401808060200182810382526021815260200180610ea06021913960400191505060405180910390fd5b60016004811115610c6757fe5b600760146101000a81548160ff02191690836004811115610c8457fe5b0217905550600660009054906101000a900473ffffffffffffffffffffffffffffffffffffffff1673ffffffffffffffffffffffffffffffffffffffff16600460009054906101000a900473ffffffffffffffffffffffffffffffffffffffff1673ffffffffffffffffffffffffffffffffffffffff163073ffffffffffffffffffffffffffffffffffffffff167f7e89c4b1a4e2b51aae84eb1f90e8a34cb792ece5ac5cb63db4830c891220b28d600180604051808381526020018281526020019250505060405180910390a450565b600060606000806000806000809054906101000a900473ffffffffffffffffffffffffffffffffffffffff166001600260009054906101000a900473ffffffffffffffffffffffffffffffffffffffff16600354600460009054906101000a900473ffffffffffffffffffffffffffffffffffffffff16600660009054906101000a900473ffffffffffffffffffffffffffffffffffffffff16848054600181600116156101000203166002900480601f016020809104026020016040519081016040528092919081815260200182805460018160011615610100020316600290048015610e845780601f10610e5957610100808354040283529160200191610e84565b820191906000526020600020905b815481529060010190602001808311610e6757829003601f168201915b5050505050945095509550955095509550955090919293949556fe746865207061636b616765206c65667420746865206d616e756661637475726572546865207061636b6167652063616e206f6e6c79206265207069636b6564206279207468652073686970706572216f6e6c79206469737472696275746f722063616e207265636569766520746865207061636b616765a265627a7a72315820edbe0abe7c98ca75fef40f1eb91bb516e516610558467df2bd88614f699d60c664736f6c63430005100032608060405234801561001057600080fd5b506040516107023803806107028339818101604052608081101561003357600080fd5b8101908080519060200190929190805190602001909291908051906020019092919080519060200190929190505050826000806101000a81548173ffffffffffffffffffffffffffffffffffffffff021916908373ffffffffffffffffffffffffffffffffffffffff16021790555083600160006101000a81548173ffffffffffffffffffffffffffffffffffffffff021916908373ffffffffffffffffffffffffffffffffffffffff16021790555082600260006101000a81548173ffffffffffffffffffffffffffffffffffffffff021916908373ffffffffffffffffffffffffffffffffffffffff16021790555081600360006101000a81548173ffffffffffffffffffffffffffffffffffffffff021916908373ffffffffffffffffffffffffffffffffffffffff16021790555080600460006101000a81548173ffffffffffffffffffffffffffffffffffffffff021916908373ffffffffffffffffffffffffffffffffffffffff16021790555050505050610549806101b96000396000f3fe608060405234801561001057600080fd5b506004361061004c5760003560e01c8063190d65de146100515780634972134a146100b5578063b4779a3c146100ff578063e2785eee14610163575b600080fd5b6100b36004803603604081101561006757600080fd5b81019080803573ffffffffffffffffffffffffffffffffffffffff169060200190929190803573ffffffffffffffffffffffffffffffffffffffff169060200190929190505050610181565b005b6100bd6102f1565b604051808273ffffffffffffffffffffffffffffffffffffffff1673ffffffffffffffffffffffffffffffffffffffff16815260200191505060405180910390f35b6101616004803603604081101561011557600080fd5b81019080803573ffffffffffffffffffffffffffffffffffffffff169060200190929190803573ffffffffffffffffffffffffffffffffffffffff169060200190929190505050610317565b005b61016b6104a8565b6040518082815260200191505060405180910390f35b600360009054906101000a900473ffffffffffffffffffffffffffffffffffffffff1673ffffffffffffffffffffffffffffffffffffffff168173ffffffffffffffffffffffffffffffffffffffff1614610227576040517f08c379a00000000000000000000000000000000000000000000000000000000081526004018080602001828103825260278152602001806104ee6027913960400191505060405180910390fd5b6001600281111561023457fe5b600460146101000a81548160ff0219169083600281111561025157fe5b02179055508173ffffffffffffffffffffffffffffffffffffffff1663ef488803826040518263ffffffff1660e01b8152600401808273ffffffffffffffffffffffffffffffffffffffff1673ffffffffffffffffffffffffffffffffffffffff168152602001915050600060405180830381600087803b1580156102d557600080fd5b505af11580156102e9573d6000803e3d6000fd5b505050505050565b600160009054906101000a900473ffffffffffffffffffffffffffffffffffffffff1681565b8073ffffffffffffffffffffffffffffffffffffffff16600460009054906101000a900473ffffffffffffffffffffffffffffffffffffffff1673ffffffffffffffffffffffffffffffffffffffff16146103bd576040517f08c379a00000000000000000000000000000000000000000000000000000000081526004018080602001828103825260238152602001806104cb6023913960400191505060405180910390fd5b6002808111156103c957fe5b600460146101000a81548160ff021916908360028111156103e657fe5b02179055508173ffffffffffffffffffffffffffffffffffffffff1663f64cd21e600460009054906101000a900473ffffffffffffffffffffffffffffffffffffffff166040518263ffffffff1660e01b8152600401808273ffffffffffffffffffffffffffffffffffffffff1673ffffffffffffffffffffffffffffffffffffffff168152602001915050600060405180830381600087803b15801561048c57600080fd5b505af11580156104a0573d6000803e3d6000fd5b505050505050565b6000600460149054906101000a900460ff1660028111156104c557fe5b90509056fe4f6e6c7920726563656976657220697320616c6c6f77656420746f20726563656976654f6e6c79205368697070657220697320616c6c6f77656420746f207069636b207061636b616765a265627a7a7231582045b76185d9ecc80e67926d3af8f2cd1b800ee5a706b90a045db0df78409dc02364736f6c634300051000324f6e6c792072657461696c65722063616e2061636365737320746869732066756e6374696f6e4f6e79206d616e7566616374757265722063616e207265636569766520746865207061636b616765734f6e6c792072657461696c65722063616e2063616c6c20746869732066756e6374696f6e214f6e6c79204d616e75666163747572657220697320616c6c6f77656420746f2063616c6c20746869734f6e6c79204469737472696275746f7220697320616c6c6f77656420746f2063616c6c2074686973a265627a7a72315820fee67c88d31b3487e9c351dc72866c099912e483993ff68b4035462dca265f4b64736f6c63430005100032",
  "source": "pragma solidity >=0.5.0 <0.8.6;\n\nimport './Admin.sol';\nimport './Medicine.sol';\nimport './Distributor.sol';\nimport './RawMaterial.sol';\n\n\ncontract MedCycle{\n\n      enum roles{\n        norole,\n        supplier,\n        transporter,\n        manufacturer,\n        distributor,\n        retailer,\n        revoke\n    }\n\n    address admin;\n\n    constructor(address _admin) public {\n         admin=_admin;\n    }\n\n    /*****************************************************Manufacturer Section**************************************************/\n\n    mapping(address=>address[]) RawPackagesAtManufacturer;\n    mapping(address=>string) Hash;\n    mapping(address=>address[]) ManufacturedMedicine;\n\n     event MedicineNewBatch(\n        address indexed BatchId,\n        address indexed Manufacturer,\n        address shipper,\n        address indexed Receiver\n    );\n\n    function rawPackageReceived(address rawmaterialAddress) public {\n        require(roles(Admin(admin).getRole(msg.sender))==roles.manufacturer,\"Ony manufacturer can receive the packages\");\n        RawMaterial(rawmaterialAddress).receivePackage(msg.sender);\n        RawPackagesAtManufacturer[msg.sender].push(rawmaterialAddress);\n    }\n\n//     event PackageReceived(\n//     address indexed RawMaterialAddress,\n//     address indexed Manufacturer\n// );\n\n// function rawPackageReceived(address rawmaterialAddress) public {\n//     require(roles(Admin(admin).getRole(msg.sender)) == roles.manufacturer, \"Only manufacturer can receive the packages\");\n//     RawPackagesAtManufacturer[msg.sender].push(rawmaterialAddress);\n//     emit PackageReceived(rawmaterialAddress, msg.sender);\n// }\n\n    function getPackagesCountManufacturer(address _manufacturer) public view returns(uint){\n        require(roles(Admin(admin).getRole(_manufacturer))==roles.manufacturer,\"Only Manufacturer is allowed to call this\");\n        return RawPackagesAtManufacturer[_manufacturer].length;\n    }\n\n    function getPackageIdByIndexManufacturer(uint index,address _manufacturer) public view returns(address){\n        require(roles(Admin(admin).getRole(_manufacturer))==roles.manufacturer,\"Only Manufacturer is allowed to call this\");\n        return RawPackagesAtManufacturer[_manufacturer][index];\n    } \n\n    function manufactureMedicine(\n        string memory _description,\n        address _rawmaterial,\n        uint _quantity,\n        address _shipper,\n        address _distributor\n        ) public {\n        require(roles(Admin(admin).getRole(msg.sender))==roles.manufacturer,\"Only Manufacturer is allowed to call this\");\n           Medicine newMedicine=new Medicine(\n                msg.sender,\n                 _description,\n                _rawmaterial,\n                _quantity,\n                _shipper,\n                 _distributor\n           ); \n           ManufacturedMedicine[msg.sender].push(address(newMedicine));\n           emit MedicineNewBatch(address(newMedicine), msg.sender, _shipper, _distributor);\n        }\n\n    function getManufacturedMedicineCountManufacturer(address _manufacturer) public view returns(uint){\n            require(roles(Admin(admin).getRole(_manufacturer))==roles.manufacturer,\"Only Manufacturer is allowed to call this\");\n            return ManufacturedMedicine[_manufacturer].length;\n    }\n\n    function getManufacturedMedicineIdByIndexManufacturer(uint index,address _manufacturer) public view returns(address){\n            require(roles(Admin(admin).getRole(_manufacturer))==roles.manufacturer,\"Only Manufacturer is allowed to call this\");\n            return ManufacturedMedicine[_manufacturer][index];\n    }\n\n    function setHash(string memory _hash) public {\n            Hash[msg.sender]=_hash;\n    }\n\n    function getHash() public view returns(string memory){\n            return Hash[msg.sender];\n    }\n\n    /***********************************************************Distributor Section********************************************************/\n\n    mapping(address => address[]) MedicineDistributorToRtailer;\n    mapping(address => address) MedicineDistributorToRtailerxContract;\n\n    function transferMedicineDistributorToRetailer(\n        address _batchId,\n        address _shipper,\n        address _retailer\n    ) public {\n            require(roles(Admin(admin).getRole(msg.sender))==roles.distributor &&\n             msg.sender == Medicine(_batchId).distributor(),\n            \"Only Distributor is allowed to call this\"\n            );\n\n            Distributor newPackage=new Distributor(\n                _batchId,\n                msg.sender,\n                _shipper,\n                _retailer\n            );\n\n            MedicineDistributorToRtailer[msg.sender].push(address(newPackage));\n            MedicineDistributorToRtailerxContract[_batchId]=address(newPackage);\n    }\n\n    function getBatchesCountDistributorToRetailer(address _distributor) public view returns(uint){\n         require(roles(Admin(admin).getRole(_distributor))==roles.distributor,\n            \"Only Distributor is allowed to call this\"\n            );\n        return MedicineDistributorToRtailer[_distributor].length;\n    }\n\n     function getBatchesIdByIndexDistributorToRetailer(uint index,address _distributor) public view returns(address){\n          require(roles(Admin(admin).getRole(_distributor))==roles.distributor,\n            \"Only Distributor is allowed to call this\"\n            );\n        return MedicineDistributorToRtailer[_distributor][index];\n     }\n\n     function getSubContractDistributorToRetailer(address _batchId) public view returns(address){\n         return MedicineDistributorToRtailerxContract[_batchId];\n     }\n\n    /***********************************************************Retailer Section***********************************************/\n\n     mapping(address=>address[]) MedicineBatchRetailer;\n\n     enum salestatus {\n        notfound,\n        atretailer,\n        sold,\n        expire,\n        damaged\n    }\n\n     mapping(address=>salestatus) sale;\n\n     event MedicineStatus(\n        address BatchID,\n        address indexed Retailer,\n        uint status\n    );\n\n    function medicineReceivedAtRetailer(address _batchId,address _distributorAddress) public{\n        require(roles(Admin(admin).getRole(msg.sender))==roles.retailer,\"Only retailer can access this function\");\n        Distributor(_distributorAddress).receivePackageRetailer(_batchId, msg.sender);\n        MedicineBatchRetailer[msg.sender].push(_batchId);\n        sale[_batchId]=salestatus(1);\n    } \n\n    function updateSaleStatus(\n        address _batchId,\n        uint _status\n    ) public {\n        require(roles(Admin(admin).getRole(msg.sender))==roles.retailer,\"Only retailer can update status!\");\n        require(sale[_batchId]==salestatus.atretailer,\"Medicine is not at retailer\");\n        sale[_batchId]=salestatus(_status);\n        emit MedicineStatus(_batchId, msg.sender, _status);\n    }\n\n    function salesInfo(address _batchId) public view returns(uint){\n        return uint(sale[_batchId]);\n    }\n\n    function getBatchesCountRetailer(address _retailer) public view returns(uint){\n        require(roles(Admin(admin).getRole(_retailer))==roles.retailer,\"Only retailer can call this function!\");\n        return MedicineBatchRetailer[_retailer].length;\n    }\n\n    function getBatchedIdByIndexRetailer(uint index,address _retailer) public view returns(address){\n        require(roles(Admin(admin).getRole(_retailer))==roles.retailer,\"Only retailer can call this function!\");\n        return MedicineBatchRetailer[_retailer][index];\n    }\n\n}\n\n\n\n\n",
  "sourcePath": "D:\\FYP\\till-60-precent-and-onwards\\vite-dash\\src\\contracts\\MedCycle.sol",
  "compiler": {
    "name": "solc",
    "version": "0.5.16+commit.9c3226ce.Emscripten.clang"
  },
  "schemaVersion": "3.4.11",
  "updatedAt": "2023-04-02T08:39:41.626Z",
  "networkType": "ethereum",
  "devdoc": {
    "methods": {}
  },
  "userdoc": {
    "methods": {}
  }
}