{
  "contractName": "MedCycle",
  "abi": [
    {
      "inputs": [
        {
          "internalType": "address",
          "name": "_admin",
          "type": "address"
        }
      ],
      "stateMutability": "nonpayable",
      "type": "constructor"
    },
    {
      "anonymous": false,
      "inputs": [
        {
          "indexed": true,
          "internalType": "address",
          "name": "BatchId",
          "type": "address"
        },
        {
          "indexed": true,
          "internalType": "address",
          "name": "Manufacturer",
          "type": "address"
        },
        {
          "indexed": false,
          "internalType": "address",
          "name": "shipper",
          "type": "address"
        },
        {
          "indexed": true,
          "internalType": "address",
          "name": "Receiver",
          "type": "address"
        }
      ],
      "name": "MedicineNewBatch",
      "type": "event"
    },
    {
      "anonymous": false,
      "inputs": [
        {
          "indexed": false,
          "internalType": "address",
          "name": "BatchID",
          "type": "address"
        },
        {
          "indexed": true,
          "internalType": "address",
          "name": "Retailer",
          "type": "address"
        },
        {
          "indexed": false,
          "internalType": "uint256",
          "name": "status",
          "type": "uint256"
        }
      ],
      "name": "MedicineStatus",
      "type": "event"
    },
    {
      "inputs": [
        {
          "internalType": "address",
          "name": "rawmaterialAddress",
          "type": "address"
        }
      ],
      "name": "rawPackageReceived",
      "outputs": [],
      "stateMutability": "nonpayable",
      "type": "function"
    },
    {
      "inputs": [
        {
          "internalType": "address",
          "name": "_manufacturer",
          "type": "address"
        }
      ],
      "name": "getPackagesCountManufacturer",
      "outputs": [
        {
          "internalType": "uint256",
          "name": "",
          "type": "uint256"
        }
      ],
      "stateMutability": "view",
      "type": "function"
    },
    {
      "inputs": [
        {
          "internalType": "uint256",
          "name": "index",
          "type": "uint256"
        },
        {
          "internalType": "address",
          "name": "_manufacturer",
          "type": "address"
        }
      ],
      "name": "getPackageIdByIndexManufacturer",
      "outputs": [
        {
          "internalType": "address",
          "name": "",
          "type": "address"
        }
      ],
      "stateMutability": "view",
      "type": "function"
    },
    {
      "inputs": [
        {
          "internalType": "string",
          "name": "_description",
          "type": "string"
        },
        {
          "internalType": "address",
          "name": "_rawmaterial",
          "type": "address"
        },
        {
          "internalType": "uint256",
          "name": "_quantity",
          "type": "uint256"
        },
        {
          "internalType": "address",
          "name": "_shipper",
          "type": "address"
        },
        {
          "internalType": "address",
          "name": "_distributor",
          "type": "address"
        }
      ],
      "name": "manufactureMedicine",
      "outputs": [],
      "stateMutability": "nonpayable",
      "type": "function"
    },
    {
      "inputs": [
        {
          "internalType": "address",
          "name": "_manufacturer",
          "type": "address"
        }
      ],
      "name": "getManufacturedMedicineCountManufacturer",
      "outputs": [
        {
          "internalType": "uint256",
          "name": "",
          "type": "uint256"
        }
      ],
      "stateMutability": "view",
      "type": "function"
    },
    {
      "inputs": [
        {
          "internalType": "uint256",
          "name": "index",
          "type": "uint256"
        },
        {
          "internalType": "address",
          "name": "_manufacturer",
          "type": "address"
        }
      ],
      "name": "getManufacturedMedicineIdByIndexManufacturer",
      "outputs": [
        {
          "internalType": "address",
          "name": "",
          "type": "address"
        }
      ],
      "stateMutability": "view",
      "type": "function"
    },
    {
      "inputs": [
        {
          "internalType": "string",
          "name": "_hash",
          "type": "string"
        }
      ],
      "name": "setHash",
      "outputs": [],
      "stateMutability": "nonpayable",
      "type": "function"
    },
    {
      "inputs": [],
      "name": "getHash",
      "outputs": [
        {
          "internalType": "string",
          "name": "",
          "type": "string"
        }
      ],
      "stateMutability": "view",
      "type": "function"
    },
    {
      "inputs": [
        {
          "internalType": "address",
          "name": "_batchId",
          "type": "address"
        },
        {
          "internalType": "address",
          "name": "_shipper",
          "type": "address"
        },
        {
          "internalType": "address",
          "name": "_retailer",
          "type": "address"
        }
      ],
      "name": "transferMedicineDistributorToRetailer",
      "outputs": [],
      "stateMutability": "nonpayable",
      "type": "function"
    },
    {
      "inputs": [
        {
          "internalType": "address",
          "name": "_distributor",
          "type": "address"
        }
      ],
      "name": "getBatchesCountDistributorToRetailer",
      "outputs": [
        {
          "internalType": "uint256",
          "name": "",
          "type": "uint256"
        }
      ],
      "stateMutability": "view",
      "type": "function"
    },
    {
      "inputs": [
        {
          "internalType": "uint256",
          "name": "index",
          "type": "uint256"
        },
        {
          "internalType": "address",
          "name": "_distributor",
          "type": "address"
        }
      ],
      "name": "getBatchesIdByIndexDistributorToRetailer",
      "outputs": [
        {
          "internalType": "address",
          "name": "",
          "type": "address"
        }
      ],
      "stateMutability": "view",
      "type": "function"
    },
    {
      "inputs": [
        {
          "internalType": "address",
          "name": "_batchId",
          "type": "address"
        }
      ],
      "name": "getSubContractDistributorToRetailer",
      "outputs": [
        {
          "internalType": "address",
          "name": "",
          "type": "address"
        }
      ],
      "stateMutability": "view",
      "type": "function"
    },
    {
      "inputs": [
        {
          "internalType": "address",
          "name": "_batchId",
          "type": "address"
        },
        {
          "internalType": "address",
          "name": "_distributorAddress",
          "type": "address"
        }
      ],
      "name": "medicineReceivedAtRetailer",
      "outputs": [],
      "stateMutability": "nonpayable",
      "type": "function"
    },
    {
      "inputs": [
        {
          "internalType": "address",
          "name": "_batchId",
          "type": "address"
        },
        {
          "internalType": "uint256",
          "name": "_status",
          "type": "uint256"
        }
      ],
      "name": "updateSaleStatus",
      "outputs": [],
      "stateMutability": "nonpayable",
      "type": "function"
    },
    {
      "inputs": [
        {
          "internalType": "address",
          "name": "_batchId",
          "type": "address"
        }
      ],
      "name": "salesInfo",
      "outputs": [
        {
          "internalType": "uint256",
          "name": "",
          "type": "uint256"
        }
      ],
      "stateMutability": "view",
      "type": "function"
    },
    {
      "inputs": [
        {
          "internalType": "address",
          "name": "_retailer",
          "type": "address"
        }
      ],
      "name": "getBatchesCountRetailer",
      "outputs": [
        {
          "internalType": "uint256",
          "name": "",
          "type": "uint256"
        }
      ],
      "stateMutability": "view",
      "type": "function"
    },
    {
      "inputs": [
        {
          "internalType": "uint256",
          "name": "index",
          "type": "uint256"
        },
        {
          "internalType": "address",
          "name": "_retailer",
          "type": "address"
        }
      ],
      "name": "getBatchedIdByIndexRetailer",
      "outputs": [
        {
          "internalType": "address",
          "name": "",
          "type": "address"
        }
      ],
      "stateMutability": "view",
      "type": "function"
    }
  ],
  "bytecode": "0x60806040523480156200001157600080fd5b5060405162004fe938038062004fe9833981810160405281019062000037919062000095565b806000806101000a81548173ffffffffffffffffffffffffffffffffffffffff021916908373ffffffffffffffffffffffffffffffffffffffff160217905550506200011a565b6000815190506200008f8162000100565b92915050565b600060208284031215620000ae57620000ad620000fb565b5b6000620000be848285016200007e565b91505092915050565b6000620000d482620000db565b9050919050565b600073ffffffffffffffffffffffffffffffffffffffff82169050919050565b600080fd5b6200010b81620000c7565b81146200011757600080fd5b50565b614ebf806200012a6000396000f3fe60806040523480156200001157600080fd5b5060043610620001245760003560e01c8063b4b5952811620000b1578063d13319c4116200007b578063d13319c41462000343578063d85e970f1462000365578063e867adc8146200039b578063eae3c20714620003d1578063f8d7e19b14620003f15762000124565b8063b4b595281462000297578063bb8ee1c514620002b7578063bc8c5b1c14620002ed578063c26c5bab146200030d5762000124565b806381a1452f11620000f357806381a1452f14620001bf5780638c59adc214620001f55780639b71cc67146200022b578063b0234f3f14620002615762000124565b80630159255914620001295780631ed83fd4146200015f5780634a9f386f146200017f57806380c2d0d4146200019f575b600080fd5b620001476004803603810190620001419190620024f9565b62000427565b604051620001569190620026b4565b60405180910390f35b6200017d6004803603810190620001779190620023cf565b620005e3565b005b6200019d600480360381019062000197919062002420565b6200063c565b005b620001bd6004803603810190620001b791906200232c565b620008dc565b005b620001dd6004803603810190620001d7919062002281565b62000c2f565b604051620001ec9190620028fe565b60405180910390f35b6200021360048036038101906200020d919062002281565b62000dae565b604051620002229190620026b4565b60405180910390f35b62000249600480360381019062000243919062002281565b62000e17565b604051620002589190620028fe565b60405180910390f35b6200027f6004803603810190620002799190620024f9565b62000f96565b6040516200028e9190620026b4565b60405180910390f35b620002b56004803603810190620002af9190620022e5565b62001152565b005b620002d56004803603810190620002cf919062002281565b6200141a565b604051620002e49190620028fe565b60405180910390f35b6200030b600480360381019062000305919062002281565b62001485565b005b6200032b6004803603810190620003259190620024f9565b620016ca565b6040516200033a9190620026b4565b60405180910390f35b6200034d62001886565b6040516200035c9190620027ec565b60405180910390f35b6200038360048036038101906200037d919062002281565b6200195d565b604051620003929190620028fe565b60405180910390f35b620003b96004803603810190620003b3919062002281565b62001adc565b604051620003c89190620028fe565b60405180910390f35b620003ef6004803603810190620003e9919062002388565b62001c5b565b005b6200040f6004803603810190620004099190620024f9565b62001f1f565b6040516200041e9190620026b4565b60405180910390f35b60006003600681111562000440576200043f62002a85565b5b60008054906101000a900473ffffffffffffffffffffffffffffffffffffffff1673ffffffffffffffffffffffffffffffffffffffff166344276733846040518263ffffffff1660e01b81526004016200049b9190620026b4565b60206040518083038186803b158015620004b457600080fd5b505afa158015620004c9573d6000803e3d6000fd5b505050506040513d601f19601f82011682018060405250810190620004ef9190620024c7565b600681111562000504576200050362002a85565b5b600681111562000519576200051862002a85565b5b146200055c576040517f08c379a00000000000000000000000000000000000000000000000000000000081526004016200055390620028ba565b60405180910390fd5b600160008373ffffffffffffffffffffffffffffffffffffffff1673ffffffffffffffffffffffffffffffffffffffff1681526020019081526020016000208381548110620005b057620005af62002ae3565b5b9060005260206000200160009054906101000a900473ffffffffffffffffffffffffffffffffffffffff16905092915050565b80600260003373ffffffffffffffffffffffffffffffffffffffff1673ffffffffffffffffffffffffffffffffffffffff168152602001908152602001600020908051906020019062000638929190620020db565b5050565b6003600681111562000653576200065262002a85565b5b60008054906101000a900473ffffffffffffffffffffffffffffffffffffffff1673ffffffffffffffffffffffffffffffffffffffff166344276733336040518263ffffffff1660e01b8152600401620006ae9190620026b4565b60206040518083038186803b158015620006c757600080fd5b505afa158015620006dc573d6000803e3d6000fd5b505050506040513d601f19601f82011682018060405250810190620007029190620024c7565b600681111562000717576200071662002a85565b5b60068111156200072c576200072b62002a85565b5b146200076f576040517f08c379a00000000000000000000000000000000000000000000000000000000081526004016200076690620028ba565b60405180910390fd5b600033868686868660405162000785906200216c565b62000796969594939291906200274b565b604051809103906000f080158015620007b3573d6000803e3d6000fd5b509050600360003373ffffffffffffffffffffffffffffffffffffffff1673ffffffffffffffffffffffffffffffffffffffff168152602001908152602001600020819080600181540180825580915050600190039060005260206000200160009091909190916101000a81548173ffffffffffffffffffffffffffffffffffffffff021916908373ffffffffffffffffffffffffffffffffffffffff1602179055508173ffffffffffffffffffffffffffffffffffffffff163373ffffffffffffffffffffffffffffffffffffffff168273ffffffffffffffffffffffffffffffffffffffff167fa464e8d0d73596ec44ad2f56ca60a8fc4ef75e1b7b0b3f46fe1e073fb5da11b586604051620008cc9190620026b4565b60405180910390a4505050505050565b60046006811115620008f357620008f262002a85565b5b60008054906101000a900473ffffffffffffffffffffffffffffffffffffffff1673ffffffffffffffffffffffffffffffffffffffff166344276733336040518263ffffffff1660e01b81526004016200094e9190620026b4565b60206040518083038186803b1580156200096757600080fd5b505afa1580156200097c573d6000803e3d6000fd5b505050506040513d601f19601f82011682018060405250810190620009a29190620024c7565b6006811115620009b757620009b662002a85565b5b6006811115620009cc57620009cb62002a85565b5b14801562000a8657508273ffffffffffffffffffffffffffffffffffffffff1663bfe109286040518163ffffffff1660e01b815260040160206040518083038186803b15801562000a1c57600080fd5b505afa15801562000a31573d6000803e3d6000fd5b505050506040513d601f19601f8201168201806040525081019062000a579190620022b3565b73ffffffffffffffffffffffffffffffffffffffff163373ffffffffffffffffffffffffffffffffffffffff16145b62000ac8576040517f08c379a000000000000000000000000000000000000000000000000000000000815260040162000abf90620028dc565b60405180910390fd5b60008333848460405162000adc906200217a565b62000aeb9493929190620026fe565b604051809103906000f08015801562000b08573d6000803e3d6000fd5b509050600460003373ffffffffffffffffffffffffffffffffffffffff1673ffffffffffffffffffffffffffffffffffffffff168152602001908152602001600020819080600181540180825580915050600190039060005260206000200160009091909190916101000a81548173ffffffffffffffffffffffffffffffffffffffff021916908373ffffffffffffffffffffffffffffffffffffffff16021790555080600560008673ffffffffffffffffffffffffffffffffffffffff1673ffffffffffffffffffffffffffffffffffffffff16815260200190815260200160002060006101000a81548173ffffffffffffffffffffffffffffffffffffffff021916908373ffffffffffffffffffffffffffffffffffffffff16021790555050505050565b60006003600681111562000c485762000c4762002a85565b5b60008054906101000a900473ffffffffffffffffffffffffffffffffffffffff1673ffffffffffffffffffffffffffffffffffffffff166344276733846040518263ffffffff1660e01b815260040162000ca39190620026b4565b60206040518083038186803b15801562000cbc57600080fd5b505afa15801562000cd1573d6000803e3d6000fd5b505050506040513d601f19601f8201168201806040525081019062000cf79190620024c7565b600681111562000d0c5762000d0b62002a85565b5b600681111562000d215762000d2062002a85565b5b1462000d64576040517f08c379a000000000000000000000000000000000000000000000000000000000815260040162000d5b90620028ba565b60405180910390fd5b600360008373ffffffffffffffffffffffffffffffffffffffff1673ffffffffffffffffffffffffffffffffffffffff168152602001908152602001600020805490509050919050565b6000600560008373ffffffffffffffffffffffffffffffffffffffff1673ffffffffffffffffffffffffffffffffffffffff16815260200190815260200160002060009054906101000a900473ffffffffffffffffffffffffffffffffffffffff169050919050565b60006003600681111562000e305762000e2f62002a85565b5b60008054906101000a900473ffffffffffffffffffffffffffffffffffffffff1673ffffffffffffffffffffffffffffffffffffffff166344276733846040518263ffffffff1660e01b815260040162000e8b9190620026b4565b60206040518083038186803b15801562000ea457600080fd5b505afa15801562000eb9573d6000803e3d6000fd5b505050506040513d601f19601f8201168201806040525081019062000edf9190620024c7565b600681111562000ef45762000ef362002a85565b5b600681111562000f095762000f0862002a85565b5b1462000f4c576040517f08c379a000000000000000000000000000000000000000000000000000000000815260040162000f4390620028ba565b60405180910390fd5b600160008373ffffffffffffffffffffffffffffffffffffffff1673ffffffffffffffffffffffffffffffffffffffff168152602001908152602001600020805490509050919050565b60006004600681111562000faf5762000fae62002a85565b5b60008054906101000a900473ffffffffffffffffffffffffffffffffffffffff1673ffffffffffffffffffffffffffffffffffffffff166344276733846040518263ffffffff1660e01b81526004016200100a9190620026b4565b60206040518083038186803b1580156200102357600080fd5b505afa15801562001038573d6000803e3d6000fd5b505050506040513d601f19601f820116820180604052508101906200105e9190620024c7565b600681111562001073576200107262002a85565b5b600681111562001088576200108762002a85565b5b14620010cb576040517f08c379a0000000000000000000000000000000000000000000000000000000008152600401620010c290620028dc565b60405180910390fd5b600460008373ffffffffffffffffffffffffffffffffffffffff1673ffffffffffffffffffffffffffffffffffffffff16815260200190815260200160002083815481106200111f576200111e62002ae3565b5b9060005260206000200160009054906101000a900473ffffffffffffffffffffffffffffffffffffffff16905092915050565b6005600681111562001169576200116862002a85565b5b60008054906101000a900473ffffffffffffffffffffffffffffffffffffffff1673ffffffffffffffffffffffffffffffffffffffff166344276733336040518263ffffffff1660e01b8152600401620011c49190620026b4565b60206040518083038186803b158015620011dd57600080fd5b505afa158015620011f2573d6000803e3d6000fd5b505050506040513d601f19601f82011682018060405250810190620012189190620024c7565b60068111156200122d576200122c62002a85565b5b600681111562001242576200124162002a85565b5b1462001285576040517f08c379a00000000000000000000000000000000000000000000000000000000081526004016200127c9062002854565b60405180910390fd5b8073ffffffffffffffffffffffffffffffffffffffff1663b4779a3c83336040518363ffffffff1660e01b8152600401620012c2929190620026d1565b600060405180830381600087803b158015620012dd57600080fd5b505af1158015620012f2573d6000803e3d6000fd5b50505050600660003373ffffffffffffffffffffffffffffffffffffffff1673ffffffffffffffffffffffffffffffffffffffff168152602001908152602001600020829080600181540180825580915050600190039060005260206000200160009091909190916101000a81548173ffffffffffffffffffffffffffffffffffffffff021916908373ffffffffffffffffffffffffffffffffffffffff16021790555060016004811115620013ad57620013ac62002a85565b5b600760008473ffffffffffffffffffffffffffffffffffffffff1673ffffffffffffffffffffffffffffffffffffffff16815260200190815260200160002060006101000a81548160ff0219169083600481111562001411576200141062002a85565b5b02179055505050565b6000600760008373ffffffffffffffffffffffffffffffffffffffff1673ffffffffffffffffffffffffffffffffffffffff16815260200190815260200160002060009054906101000a900460ff1660048111156200147e576200147d62002a85565b5b9050919050565b600360068111156200149c576200149b62002a85565b5b60008054906101000a900473ffffffffffffffffffffffffffffffffffffffff1673ffffffffffffffffffffffffffffffffffffffff166344276733336040518263ffffffff1660e01b8152600401620014f79190620026b4565b60206040518083038186803b1580156200151057600080fd5b505afa15801562001525573d6000803e3d6000fd5b505050506040513d601f19601f820116820180604052508101906200154b9190620024c7565b600681111562001560576200155f62002a85565b5b600681111562001575576200157462002a85565b5b14620015b8576040517f08c379a0000000000000000000000000000000000000000000000000000000008152600401620015af9062002876565b60405180910390fd5b8073ffffffffffffffffffffffffffffffffffffffff16631f29567a336040518263ffffffff1660e01b8152600401620015f39190620026b4565b600060405180830381600087803b1580156200160e57600080fd5b505af115801562001623573d6000803e3d6000fd5b50505050600160003373ffffffffffffffffffffffffffffffffffffffff1673ffffffffffffffffffffffffffffffffffffffff168152602001908152602001600020819080600181540180825580915050600190039060005260206000200160009091909190916101000a81548173ffffffffffffffffffffffffffffffffffffffff021916908373ffffffffffffffffffffffffffffffffffffffff16021790555050565b600060036006811115620016e357620016e262002a85565b5b60008054906101000a900473ffffffffffffffffffffffffffffffffffffffff1673ffffffffffffffffffffffffffffffffffffffff166344276733846040518263ffffffff1660e01b81526004016200173e9190620026b4565b60206040518083038186803b1580156200175757600080fd5b505afa1580156200176c573d6000803e3d6000fd5b505050506040513d601f19601f82011682018060405250810190620017929190620024c7565b6006811115620017a757620017a662002a85565b5b6006811115620017bc57620017bb62002a85565b5b14620017ff576040517f08c379a0000000000000000000000000000000000000000000000000000000008152600401620017f690620028ba565b60405180910390fd5b600360008373ffffffffffffffffffffffffffffffffffffffff1673ffffffffffffffffffffffffffffffffffffffff168152602001908152602001600020838154811062001853576200185262002ae3565b5b9060005260206000200160009054906101000a900473ffffffffffffffffffffffffffffffffffffffff16905092915050565b6060600260003373ffffffffffffffffffffffffffffffffffffffff1673ffffffffffffffffffffffffffffffffffffffff1681526020019081526020016000208054620018d49062002a19565b80601f0160208091040260200160405190810160405280929190818152602001828054620019029062002a19565b8015620019535780601f10620019275761010080835404028352916020019162001953565b820191906000526020600020905b8154815290600101906020018083116200193557829003601f168201915b5050505050905090565b60006004600681111562001976576200197562002a85565b5b60008054906101000a900473ffffffffffffffffffffffffffffffffffffffff1673ffffffffffffffffffffffffffffffffffffffff166344276733846040518263ffffffff1660e01b8152600401620019d19190620026b4565b60206040518083038186803b158015620019ea57600080fd5b505afa158015620019ff573d6000803e3d6000fd5b505050506040513d601f19601f8201168201806040525081019062001a259190620024c7565b600681111562001a3a5762001a3962002a85565b5b600681111562001a4f5762001a4e62002a85565b5b1462001a92576040517f08c379a000000000000000000000000000000000000000000000000000000000815260040162001a8990620028dc565b60405180910390fd5b600460008373ffffffffffffffffffffffffffffffffffffffff1673ffffffffffffffffffffffffffffffffffffffff168152602001908152602001600020805490509050919050565b60006005600681111562001af55762001af462002a85565b5b60008054906101000a900473ffffffffffffffffffffffffffffffffffffffff1673ffffffffffffffffffffffffffffffffffffffff166344276733846040518263ffffffff1660e01b815260040162001b509190620026b4565b60206040518083038186803b15801562001b6957600080fd5b505afa15801562001b7e573d6000803e3d6000fd5b505050506040513d601f19601f8201168201806040525081019062001ba49190620024c7565b600681111562001bb95762001bb862002a85565b5b600681111562001bce5762001bcd62002a85565b5b1462001c11576040517f08c379a000000000000000000000000000000000000000000000000000000000815260040162001c089062002898565b60405180910390fd5b600660008373ffffffffffffffffffffffffffffffffffffffff1673ffffffffffffffffffffffffffffffffffffffff168152602001908152602001600020805490509050919050565b6005600681111562001c725762001c7162002a85565b5b60008054906101000a900473ffffffffffffffffffffffffffffffffffffffff1673ffffffffffffffffffffffffffffffffffffffff166344276733336040518263ffffffff1660e01b815260040162001ccd9190620026b4565b60206040518083038186803b15801562001ce657600080fd5b505afa15801562001cfb573d6000803e3d6000fd5b505050506040513d601f19601f8201168201806040525081019062001d219190620024c7565b600681111562001d365762001d3562002a85565b5b600681111562001d4b5762001d4a62002a85565b5b1462001d8e576040517f08c379a000000000000000000000000000000000000000000000000000000000815260040162001d859062002810565b60405180910390fd5b6001600481111562001da55762001da462002a85565b5b600760008473ffffffffffffffffffffffffffffffffffffffff1673ffffffffffffffffffffffffffffffffffffffff16815260200190815260200160002060009054906101000a900460ff16600481111562001e075762001e0662002a85565b5b1462001e4a576040517f08c379a000000000000000000000000000000000000000000000000000000000815260040162001e419062002832565b60405180910390fd5b80600481111562001e605762001e5f62002a85565b5b600760008473ffffffffffffffffffffffffffffffffffffffff1673ffffffffffffffffffffffffffffffffffffffff16815260200190815260200160002060006101000a81548160ff0219169083600481111562001ec45762001ec362002a85565b5b02179055503373ffffffffffffffffffffffffffffffffffffffff167f778762ccb04f5a8838ed8914b13eb6f118224696959cbfa0cfea54133f76a7d5838360405162001f13929190620027bf565b60405180910390a25050565b60006005600681111562001f385762001f3762002a85565b5b60008054906101000a900473ffffffffffffffffffffffffffffffffffffffff1673ffffffffffffffffffffffffffffffffffffffff166344276733846040518263ffffffff1660e01b815260040162001f939190620026b4565b60206040518083038186803b15801562001fac57600080fd5b505afa15801562001fc1573d6000803e3d6000fd5b505050506040513d601f19601f8201168201806040525081019062001fe79190620024c7565b600681111562001ffc5762001ffb62002a85565b5b600681111562002011576200201062002a85565b5b1462002054576040517f08c379a00000000000000000000000000000000000000000000000000000000081526004016200204b9062002898565b60405180910390fd5b600660008373ffffffffffffffffffffffffffffffffffffffff1673ffffffffffffffffffffffffffffffffffffffff1681526020019081526020016000208381548110620020a857620020a762002ae3565b5b9060005260206000200160009054906101000a900473ffffffffffffffffffffffffffffffffffffffff16905092915050565b828054620020e99062002a19565b90600052602060002090601f0160209004810192826200210d576000855562002159565b82601f106200212857805160ff191683800117855562002159565b8280016001018555821562002159579182015b82811115620021585782518255916020019190600101906200213b565b5b50905062002168919062002188565b5090565b6118728062002d7883390190565b6108a080620045ea83390190565b5b80821115620021a357600081600090555060010162002189565b5090565b6000620021be620021b88462002944565b6200291b565b905082815260208101848484011115620021dd57620021dc62002b46565b5b620021ea848285620029d4565b509392505050565b600081359050620022038162002d43565b92915050565b6000815190506200221a8162002d43565b92915050565b600082601f83011262002238576200223762002b41565b5b81356200224a848260208601620021a7565b91505092915050565b600081359050620022648162002d5d565b92915050565b6000815190506200227b8162002d5d565b92915050565b6000602082840312156200229a576200229962002b50565b5b6000620022aa84828501620021f2565b91505092915050565b600060208284031215620022cc57620022cb62002b50565b5b6000620022dc8482850162002209565b91505092915050565b60008060408385031215620022ff57620022fe62002b50565b5b60006200230f85828601620021f2565b92505060206200232285828601620021f2565b9150509250929050565b60008060006060848603121562002348576200234762002b50565b5b60006200235886828701620021f2565b93505060206200236b86828701620021f2565b92505060406200237e86828701620021f2565b9150509250925092565b60008060408385031215620023a257620023a162002b50565b5b6000620023b285828601620021f2565b9250506020620023c58582860162002253565b9150509250929050565b600060208284031215620023e857620023e762002b50565b5b600082013567ffffffffffffffff81111562002409576200240862002b4b565b5b620024178482850162002220565b91505092915050565b600080600080600060a086880312156200243f576200243e62002b50565b5b600086013567ffffffffffffffff81111562002460576200245f62002b4b565b5b6200246e8882890162002220565b95505060206200248188828901620021f2565b9450506040620024948882890162002253565b9350506060620024a788828901620021f2565b9250506080620024ba88828901620021f2565b9150509295509295909350565b600060208284031215620024e057620024df62002b50565b5b6000620024f0848285016200226a565b91505092915050565b6000806040838503121562002513576200251262002b50565b5b6000620025238582860162002253565b92505060206200253685828601620021f2565b9150509250929050565b6200254b8162002996565b82525050565b60006200255e826200297a565b6200256a818562002985565b93506200257c818560208601620029e3565b620025878162002b55565b840191505092915050565b6000620025a160208362002985565b9150620025ae8262002b66565b602082019050919050565b6000620025c8601b8362002985565b9150620025d58262002b8f565b602082019050919050565b6000620025ef60268362002985565b9150620025fc8262002bb8565b604082019050919050565b60006200261660298362002985565b9150620026238262002c07565b604082019050919050565b60006200263d60258362002985565b91506200264a8262002c56565b604082019050919050565b60006200266460298362002985565b9150620026718262002ca5565b604082019050919050565b60006200268b60288362002985565b9150620026988262002cf4565b604082019050919050565b620026ae81620029ca565b82525050565b6000602082019050620026cb600083018462002540565b92915050565b6000604082019050620026e8600083018562002540565b620026f7602083018462002540565b9392505050565b600060808201905062002715600083018762002540565b62002724602083018662002540565b62002733604083018562002540565b62002742606083018462002540565b95945050505050565b600060c08201905062002762600083018962002540565b818103602083015262002776818862002551565b905062002787604083018762002540565b620027966060830186620026a3565b620027a5608083018562002540565b620027b460a083018462002540565b979650505050505050565b6000604082019050620027d6600083018562002540565b620027e56020830184620026a3565b9392505050565b6000602082019050818103600083015262002808818462002551565b905092915050565b600060208201905081810360008301526200282b8162002592565b9050919050565b600060208201905081810360008301526200284d81620025b9565b9050919050565b600060208201905081810360008301526200286f81620025e0565b9050919050565b60006020820190508181036000830152620028918162002607565b9050919050565b60006020820190508181036000830152620028b3816200262e565b9050919050565b60006020820190508181036000830152620028d58162002655565b9050919050565b60006020820190508181036000830152620028f7816200267c565b9050919050565b6000602082019050620029156000830184620026a3565b92915050565b6000620029276200293a565b905062002935828262002a4f565b919050565b6000604051905090565b600067ffffffffffffffff82111562002962576200296162002b12565b5b6200296d8262002b55565b9050602081019050919050565b600081519050919050565b600082825260208201905092915050565b6000620029a382620029aa565b9050919050565b600073ffffffffffffffffffffffffffffffffffffffff82169050919050565b6000819050919050565b82818337600083830152505050565b60005b8381101562002a03578082015181840152602081019050620029e6565b8381111562002a13576000848401525b50505050565b6000600282049050600182168062002a3257607f821691505b6020821081141562002a495762002a4862002ab4565b5b50919050565b62002a5a8262002b55565b810181811067ffffffffffffffff8211171562002a7c5762002a7b62002b12565b5b80604052505050565b7f4e487b7100000000000000000000000000000000000000000000000000000000600052602160045260246000fd5b7f4e487b7100000000000000000000000000000000000000000000000000000000600052602260045260246000fd5b7f4e487b7100000000000000000000000000000000000000000000000000000000600052603260045260246000fd5b7f4e487b7100000000000000000000000000000000000000000000000000000000600052604160045260246000fd5b600080fd5b600080fd5b600080fd5b600080fd5b6000601f19601f8301169050919050565b7f4f6e6c792072657461696c65722063616e207570646174652073746174757321600082015250565b7f4d65646963696e65206973206e6f742061742072657461696c65720000000000600082015250565b7f4f6e6c792072657461696c65722063616e20616363657373207468697320667560008201527f6e6374696f6e0000000000000000000000000000000000000000000000000000602082015250565b7f4f6e79206d616e7566616374757265722063616e20726563656976652074686560008201527f207061636b616765730000000000000000000000000000000000000000000000602082015250565b7f4f6e6c792072657461696c65722063616e2063616c6c20746869732066756e6360008201527f74696f6e21000000000000000000000000000000000000000000000000000000602082015250565b7f4f6e6c79204d616e75666163747572657220697320616c6c6f77656420746f2060008201527f63616c6c20746869730000000000000000000000000000000000000000000000602082015250565b7f4f6e6c79204469737472696275746f7220697320616c6c6f77656420746f206360008201527f616c6c2074686973000000000000000000000000000000000000000000000000602082015250565b62002d4e8162002996565b811462002d5a57600080fd5b50565b62002d6881620029ca565b811462002d7457600080fd5b5056fe60806040523480156200001157600080fd5b506040516200187238038062001872833981810160405281019062000037919062000303565b856000806101000a81548173ffffffffffffffffffffffffffffffffffffffff021916908373ffffffffffffffffffffffffffffffffffffffff16021790555085600560006101000a81548173ffffffffffffffffffffffffffffffffffffffff021916908373ffffffffffffffffffffffffffffffffffffffff1602179055508460019080519060200190620000d0929190620001a7565b5083600260006101000a81548173ffffffffffffffffffffffffffffffffffffffff021916908373ffffffffffffffffffffffffffffffffffffffff1602179055508260038190555081600460006101000a81548173ffffffffffffffffffffffffffffffffffffffff021916908373ffffffffffffffffffffffffffffffffffffffff16021790555080600660006101000a81548173ffffffffffffffffffffffffffffffffffffffff021916908373ffffffffffffffffffffffffffffffffffffffff160217905550505050505050620005b4565b828054620001b59062000491565b90600052602060002090601f016020900481019282620001d9576000855562000225565b82601f10620001f457805160ff191683800117855562000225565b8280016001018555821562000225579182015b828111156200022457825182559160200191906001019062000207565b5b50905062000234919062000238565b5090565b5b808211156200025357600081600090555060010162000239565b5090565b60006200026e6200026884620003e7565b620003be565b9050828152602081018484840111156200028d576200028c62000560565b5b6200029a8482856200045b565b509392505050565b600081519050620002b38162000580565b92915050565b600082601f830112620002d157620002d06200055b565b5b8151620002e384826020860162000257565b91505092915050565b600081519050620002fd816200059a565b92915050565b60008060008060008060c087890312156200032357620003226200056a565b5b60006200033389828a01620002a2565b965050602087015167ffffffffffffffff81111562000357576200035662000565565b5b6200036589828a01620002b9565b95505060406200037889828a01620002a2565b94505060606200038b89828a01620002ec565b93505060806200039e89828a01620002a2565b92505060a0620003b189828a01620002a2565b9150509295509295509295565b6000620003ca620003dd565b9050620003d88282620004c7565b919050565b6000604051905090565b600067ffffffffffffffff8211156200040557620004046200052c565b5b62000410826200056f565b9050602081019050919050565b60006200042a8262000431565b9050919050565b600073ffffffffffffffffffffffffffffffffffffffff82169050919050565b6000819050919050565b60005b838110156200047b5780820151818401526020810190506200045e565b838111156200048b576000848401525b50505050565b60006002820490506001821680620004aa57607f821691505b60208210811415620004c157620004c0620004fd565b5b50919050565b620004d2826200056f565b810181811067ffffffffffffffff82111715620004f457620004f36200052c565b5b80604052505050565b7f4e487b7100000000000000000000000000000000000000000000000000000000600052602260045260246000fd5b7f4e487b7100000000000000000000000000000000000000000000000000000000600052604160045260246000fd5b600080fd5b600080fd5b600080fd5b600080fd5b6000601f19601f8301169050919050565b6200058b816200041d565b81146200059757600080fd5b50565b620005a58162000451565b8114620005b157600080fd5b50565b6112ae80620005c46000396000f3fe608060405234801561001057600080fd5b50600436106100885760003560e01c8063ef4888031161005b578063ef48880314610103578063f64cd21e1461011f578063f74fdde11461013b578063fc7923311461015757610088565b80634c1249fc1461008d57806373b037db146100ab5780637b1df25c146100c9578063bfe10928146100e5575b600080fd5b61009561017a565b6040516100a29190610d7e565b60405180910390f35b6100b36101a0565b6040516100c09190610f65565b60405180910390f35b6100e360048036038101906100de9190610bec565b6101c9565b005b6100ed610426565b6040516100fa9190610d7e565b60405180910390f35b61011d60048036038101906101189190610bec565b61044c565b005b61013960048036038101906101349190610bec565b610668565b005b61015560048036038101906101509190610bec565b610883565b005b61015f610a9e565b60405161017196959493929190610d99565b60405180910390f35b600760009054906101000a900473ffffffffffffffffffffffffffffffffffffffff1681565b6000600760149054906101000a900460ff1660048111156101c4576101c3611085565b5b905090565b600660009054906101000a900473ffffffffffffffffffffffffffffffffffffffff1673ffffffffffffffffffffffffffffffffffffffff163373ffffffffffffffffffffffffffffffffffffffff1614610259576040517f08c379a000000000000000000000000000000000000000000000000000000000815260040161025090610f25565b60405180910390fd5b6001600481111561026d5761026c611085565b5b600481111561027f5761027e611085565b5b600760149054906101000a900460ff1660048111156102a1576102a0611085565b5b146102e1576040517f08c379a00000000000000000000000000000000000000000000000000000000081526004016102d890610f45565b60405180910390fd5b600260048111156102f5576102f4611085565b5b600760146101000a81548160ff0219169083600481111561031957610318611085565b5b021790555080600760006101000a81548173ffffffffffffffffffffffffffffffffffffffff021916908373ffffffffffffffffffffffffffffffffffffffff160217905550600760009054906101000a900473ffffffffffffffffffffffffffffffffffffffff1673ffffffffffffffffffffffffffffffffffffffff16600460009054906101000a900473ffffffffffffffffffffffffffffffffffffffff1673ffffffffffffffffffffffffffffffffffffffff163073ffffffffffffffffffffffffffffffffffffffff167f7e89c4b1a4e2b51aae84eb1f90e8a34cb792ece5ac5cb63db4830c891220b28d6001600260405161041b929190610e2a565b60405180910390a450565b600660009054906101000a900473ffffffffffffffffffffffffffffffffffffffff1681565b600460009054906101000a900473ffffffffffffffffffffffffffffffffffffffff1673ffffffffffffffffffffffffffffffffffffffff168173ffffffffffffffffffffffffffffffffffffffff16146104dc576040517f08c379a00000000000000000000000000000000000000000000000000000000081526004016104d390610ee5565b60405180910390fd5b600260048111156104f0576104ef611085565b5b600481111561050257610501611085565b5b600760149054906101000a900460ff16600481111561052457610523611085565b5b14610564576040517f08c379a000000000000000000000000000000000000000000000000000000000815260040161055b90610ec5565b60405180910390fd5b6003600481111561057857610577611085565b5b600760146101000a81548160ff0219169083600481111561059c5761059b611085565b5b0217905550600760009054906101000a900473ffffffffffffffffffffffffffffffffffffffff1673ffffffffffffffffffffffffffffffffffffffff16600460009054906101000a900473ffffffffffffffffffffffffffffffffffffffff1673ffffffffffffffffffffffffffffffffffffffff163073ffffffffffffffffffffffffffffffffffffffff167f7e89c4b1a4e2b51aae84eb1f90e8a34cb792ece5ac5cb63db4830c891220b28d6001600360405161065d929190610e53565b60405180910390a450565b600760009054906101000a900473ffffffffffffffffffffffffffffffffffffffff1673ffffffffffffffffffffffffffffffffffffffff168173ffffffffffffffffffffffffffffffffffffffff16146106f8576040517f08c379a00000000000000000000000000000000000000000000000000000000081526004016106ef90610f25565b60405180910390fd5b6003600481111561070c5761070b611085565b5b600481111561071e5761071d611085565b5b600760149054906101000a900460ff1660048111156107405761073f611085565b5b14610780576040517f08c379a000000000000000000000000000000000000000000000000000000000815260040161077790610f05565b60405180910390fd5b60048081111561079357610792611085565b5b600760146101000a81548160ff021916908360048111156107b7576107b6611085565b5b0217905550600760009054906101000a900473ffffffffffffffffffffffffffffffffffffffff1673ffffffffffffffffffffffffffffffffffffffff16600460009054906101000a900473ffffffffffffffffffffffffffffffffffffffff1673ffffffffffffffffffffffffffffffffffffffff163073ffffffffffffffffffffffffffffffffffffffff167f7e89c4b1a4e2b51aae84eb1f90e8a34cb792ece5ac5cb63db4830c891220b28d60016004604051610878929190610e7c565b60405180910390a450565b600460009054906101000a900473ffffffffffffffffffffffffffffffffffffffff1673ffffffffffffffffffffffffffffffffffffffff168173ffffffffffffffffffffffffffffffffffffffff1614610913576040517f08c379a000000000000000000000000000000000000000000000000000000000815260040161090a90610ee5565b60405180910390fd5b6000600481111561092757610926611085565b5b600481111561093957610938611085565b5b600760149054906101000a900460ff16600481111561095b5761095a611085565b5b1461099b576040517f08c379a000000000000000000000000000000000000000000000000000000000815260040161099290610ea5565b60405180910390fd5b600160048111156109af576109ae611085565b5b600760146101000a81548160ff021916908360048111156109d3576109d2611085565b5b0217905550600660009054906101000a900473ffffffffffffffffffffffffffffffffffffffff1673ffffffffffffffffffffffffffffffffffffffff16600460009054906101000a900473ffffffffffffffffffffffffffffffffffffffff1673ffffffffffffffffffffffffffffffffffffffff163073ffffffffffffffffffffffffffffffffffffffff167f7e89c4b1a4e2b51aae84eb1f90e8a34cb792ece5ac5cb63db4830c891220b28d600180604051610a93929190610e01565b60405180910390a450565b6000606060008060008060008054906101000a900473ffffffffffffffffffffffffffffffffffffffff166001600260009054906101000a900473ffffffffffffffffffffffffffffffffffffffff16600354600460009054906101000a900473ffffffffffffffffffffffffffffffffffffffff16600660009054906101000a900473ffffffffffffffffffffffffffffffffffffffff16848054610b4390611053565b80601f0160208091040260200160405190810160405280929190818152602001828054610b6f90611053565b8015610bbc5780601f10610b9157610100808354040283529160200191610bbc565b820191906000526020600020905b815481529060010190602001808311610b9f57829003601f168201915b50505050509450955095509550955095509550909192939495565b600081359050610be681611261565b92915050565b600060208284031215610c0257610c016110e3565b5b6000610c1084828501610bd7565b91505092915050565b610c2281610f9c565b82525050565b610c3181610fd8565b82525050565b610c4081610fea565b82525050565b610c4f81610ffc565b82525050565b610c5e8161100e565b82525050565b6000610c6f82610f80565b610c798185610f8b565b9350610c89818560208601611020565b610c92816110e8565b840191505092915050565b6000610caa602183610f8b565b9150610cb5826110f9565b604082019050919050565b6000610ccd602083610f8b565b9150610cd882611148565b602082019050919050565b6000610cf0602e83610f8b565b9150610cfb82611171565b604082019050919050565b6000610d13601c83610f8b565b9150610d1e826111c0565b602082019050919050565b6000610d36602883610f8b565b9150610d41826111e9565b604082019050919050565b6000610d59601e83610f8b565b9150610d6482611238565b602082019050919050565b610d7881610fce565b82525050565b6000602082019050610d936000830184610c19565b92915050565b600060c082019050610dae6000830189610c19565b8181036020830152610dc08188610c64565b9050610dcf6040830187610c19565b610ddc6060830186610d6f565b610de96080830185610c19565b610df660a0830184610c19565b979650505050505050565b6000604082019050610e166000830185610c28565b610e236020830184610c28565b9392505050565b6000604082019050610e3f6000830185610c28565b610e4c6020830184610c37565b9392505050565b6000604082019050610e686000830185610c28565b610e756020830184610c46565b9392505050565b6000604082019050610e916000830185610c28565b610e9e6020830184610c55565b9392505050565b60006020820190508181036000830152610ebe81610c9d565b9050919050565b60006020820190508181036000830152610ede81610cc0565b9050919050565b60006020820190508181036000830152610efe81610ce3565b9050919050565b60006020820190508181036000830152610f1e81610d06565b9050919050565b60006020820190508181036000830152610f3e81610d29565b9050919050565b60006020820190508181036000830152610f5e81610d4c565b9050919050565b6000602082019050610f7a6000830184610d6f565b92915050565b600081519050919050565b600082825260208201905092915050565b6000610fa782610fae565b9050919050565b600073ffffffffffffffffffffffffffffffffffffffff82169050919050565b6000819050919050565b6000610fe382610fce565b9050919050565b6000610ff582610fce565b9050919050565b600061100782610fce565b9050919050565b600061101982610fce565b9050919050565b60005b8381101561103e578082015181840152602081019050611023565b8381111561104d576000848401525b50505050565b6000600282049050600182168061106b57607f821691505b6020821081141561107f5761107e6110b4565b5b50919050565b7f4e487b7100000000000000000000000000000000000000000000000000000000600052602160045260246000fd5b7f4e487b7100000000000000000000000000000000000000000000000000000000600052602260045260246000fd5b600080fd5b6000601f19601f8301169050919050565b7f746865207061636b616765206c65667420746865206d616e756661637475726560008201527f7200000000000000000000000000000000000000000000000000000000000000602082015250565b7f746865207061636b616765206c65667420746865206469737472696275746f72600082015250565b7f546865207061636b6167652063616e206f6e6c79206265207069636b6564206260008201527f7920746865207368697070657221000000000000000000000000000000000000602082015250565b7f746865207061636b616765206c65667420746865207368697070657200000000600082015250565b7f6f6e6c79206469737472696275746f722063616e20726563656976652074686560008201527f207061636b616765000000000000000000000000000000000000000000000000602082015250565b7f746865207061636b616765206973206e6f742077697468207368697065720000600082015250565b61126a81610f9c565b811461127557600080fd5b5056fea2646970667358221220081dedd1132351a70c0615617fe543f345fbefc468f56c920fe0a0e6184dd48164736f6c63430008050033608060405234801561001057600080fd5b506040516108a03803806108a083398181016040528101906100329190610194565b826000806101000a81548173ffffffffffffffffffffffffffffffffffffffff021916908373ffffffffffffffffffffffffffffffffffffffff16021790555083600160006101000a81548173ffffffffffffffffffffffffffffffffffffffff021916908373ffffffffffffffffffffffffffffffffffffffff16021790555082600260006101000a81548173ffffffffffffffffffffffffffffffffffffffff021916908373ffffffffffffffffffffffffffffffffffffffff16021790555081600360006101000a81548173ffffffffffffffffffffffffffffffffffffffff021916908373ffffffffffffffffffffffffffffffffffffffff16021790555080600460006101000a81548173ffffffffffffffffffffffffffffffffffffffff021916908373ffffffffffffffffffffffffffffffffffffffff16021790555050505050610249565b60008151905061018e81610232565b92915050565b600080600080608085870312156101ae576101ad61022d565b5b60006101bc8782880161017f565b94505060206101cd8782880161017f565b93505060406101de8782880161017f565b92505060606101ef8782880161017f565b91505092959194509250565b60006102068261020d565b9050919050565b600073ffffffffffffffffffffffffffffffffffffffff82169050919050565b600080fd5b61023b816101fb565b811461024657600080fd5b50565b610648806102586000396000f3fe608060405234801561001057600080fd5b506004361061004c5760003560e01c8063190d65de146100515780634972134a1461006d578063b4779a3c1461008b578063e2785eee146100a7575b600080fd5b61006b600480360381019061006691906103c2565b6100c5565b005b610075610201565b6040516100829190610466565b60405180910390f35b6100a560048036038101906100a091906103c2565b610227565b005b6100af610384565b6040516100bc91906104c1565b60405180910390f35b600360009054906101000a900473ffffffffffffffffffffffffffffffffffffffff1673ffffffffffffffffffffffffffffffffffffffff168173ffffffffffffffffffffffffffffffffffffffff1614610155576040517f08c379a000000000000000000000000000000000000000000000000000000000815260040161014c906104a1565b60405180910390fd5b6001600281111561016957610168610529565b5b600460146101000a81548160ff0219169083600281111561018d5761018c610529565b5b02179055508173ffffffffffffffffffffffffffffffffffffffff1663ef488803826040518263ffffffff1660e01b81526004016101cb9190610466565b600060405180830381600087803b1580156101e557600080fd5b505af11580156101f9573d6000803e3d6000fd5b505050505050565b600160009054906101000a900473ffffffffffffffffffffffffffffffffffffffff1681565b8073ffffffffffffffffffffffffffffffffffffffff16600460009054906101000a900473ffffffffffffffffffffffffffffffffffffffff1673ffffffffffffffffffffffffffffffffffffffff16146102b7576040517f08c379a00000000000000000000000000000000000000000000000000000000081526004016102ae90610481565b60405180910390fd5b6002808111156102ca576102c9610529565b5b600460146101000a81548160ff021916908360028111156102ee576102ed610529565b5b02179055508173ffffffffffffffffffffffffffffffffffffffff1663f64cd21e600460009054906101000a900473ffffffffffffffffffffffffffffffffffffffff166040518263ffffffff1660e01b815260040161034e9190610466565b600060405180830381600087803b15801561036857600080fd5b505af115801561037c573d6000803e3d6000fd5b505050505050565b6000600460149054906101000a900460ff1660028111156103a8576103a7610529565b5b905090565b6000813590506103bc816105fb565b92915050565b600080604083850312156103d9576103d8610558565b5b60006103e7858286016103ad565b92505060206103f8858286016103ad565b9150509250929050565b61040b816104ed565b82525050565b600061041e6023836104dc565b91506104298261055d565b604082019050919050565b60006104416027836104dc565b915061044c826105ac565b604082019050919050565b6104608161051f565b82525050565b600060208201905061047b6000830184610402565b92915050565b6000602082019050818103600083015261049a81610411565b9050919050565b600060208201905081810360008301526104ba81610434565b9050919050565b60006020820190506104d66000830184610457565b92915050565b600082825260208201905092915050565b60006104f8826104ff565b9050919050565b600073ffffffffffffffffffffffffffffffffffffffff82169050919050565b6000819050919050565b7f4e487b7100000000000000000000000000000000000000000000000000000000600052602160045260246000fd5b600080fd5b7f4f6e6c7920726563656976657220697320616c6c6f77656420746f207265636560008201527f6976650000000000000000000000000000000000000000000000000000000000602082015250565b7f4f6e6c79205368697070657220697320616c6c6f77656420746f207069636b2060008201527f7061636b61676500000000000000000000000000000000000000000000000000602082015250565b610604816104ed565b811461060f57600080fd5b5056fea2646970667358221220cac0b167e095715e22e389cb2eba1e6be26cb3dcbe474ba28cf724f5d4b5780c64736f6c63430008050033a2646970667358221220ed7e9d6a7a9e1e67fbf7af0965ba6d84744f79d07d9f0d94ada3c9238f78ee9464736f6c63430008050033",
  "immutableReferences": {},
  "source": "pragma solidity >=0.5.0 <0.8.6;\n\nimport './Admin.sol';\nimport './Medicine.sol';\nimport './Distributor.sol';\nimport './RawMaterial.sol';\n\n\ncontract MedCycle{\n\n      enum roles{\n        norole,\n        supplier,\n        transporter,\n        manufacturer,\n        distributor,\n        retailer,\n        revoke\n    }\n\n    address admin;\n\n    constructor(address _admin) public {\n         admin=_admin;\n    }\n\n    /*****************************************************Manufacturer Section**************************************************/\n\n    mapping(address=>address[]) RawPackagesAtManufacturer;\n    mapping(address=>string) Hash;\n    mapping(address=>address[]) ManufacturedMedicine;\n\n     event MedicineNewBatch(\n        address indexed BatchId,\n        address indexed Manufacturer,\n        address shipper,\n        address indexed Receiver\n    );\n\n    function rawPackageReceived(address rawmaterialAddress) public {\n        require(roles(Admin(admin).getRole(msg.sender))==roles.manufacturer,\"Ony manufacturer can receive the packages\");\n        RawMaterial(rawmaterialAddress).receivePackage(msg.sender);\n        RawPackagesAtManufacturer[msg.sender].push(rawmaterialAddress);\n    }\n\n//     event PackageReceived(\n//     address indexed RawMaterialAddress,\n//     address indexed Manufacturer\n// );\n\n// function rawPackageReceived(address rawmaterialAddress) public {\n//     require(roles(Admin(admin).getRole(msg.sender)) == roles.manufacturer, \"Only manufacturer can receive the packages\");\n//     RawPackagesAtManufacturer[msg.sender].push(rawmaterialAddress);\n//     emit PackageReceived(rawmaterialAddress, msg.sender);\n// }\n\n    function getPackagesCountManufacturer(address _manufacturer) public view returns(uint){\n        require(roles(Admin(admin).getRole(_manufacturer))==roles.manufacturer,\"Only Manufacturer is allowed to call this\");\n        return RawPackagesAtManufacturer[_manufacturer].length;\n    }\n\n    function getPackageIdByIndexManufacturer(uint index,address _manufacturer) public view returns(address){\n        require(roles(Admin(admin).getRole(_manufacturer))==roles.manufacturer,\"Only Manufacturer is allowed to call this\");\n        return RawPackagesAtManufacturer[_manufacturer][index];\n    } \n\n    function manufactureMedicine(\n        string memory _description,\n        address _rawmaterial,\n        uint _quantity,\n        address _shipper,\n        address _distributor\n        ) public {\n        require(roles(Admin(admin).getRole(msg.sender))==roles.manufacturer,\"Only Manufacturer is allowed to call this\");\n           Medicine newMedicine=new Medicine(\n                msg.sender,\n                 _description,\n                _rawmaterial,\n                _quantity,\n                _shipper,\n                 _distributor\n           ); \n           ManufacturedMedicine[msg.sender].push(address(newMedicine));\n           emit MedicineNewBatch(address(newMedicine), msg.sender, _shipper, _distributor);\n        }\n\n    function getManufacturedMedicineCountManufacturer(address _manufacturer) public view returns(uint){\n            require(roles(Admin(admin).getRole(_manufacturer))==roles.manufacturer,\"Only Manufacturer is allowed to call this\");\n            return ManufacturedMedicine[_manufacturer].length;\n    }\n\n    function getManufacturedMedicineIdByIndexManufacturer(uint index,address _manufacturer) public view returns(address){\n            require(roles(Admin(admin).getRole(_manufacturer))==roles.manufacturer,\"Only Manufacturer is allowed to call this\");\n            return ManufacturedMedicine[_manufacturer][index];\n    }\n\n    function setHash(string memory _hash) public {\n            Hash[msg.sender]=_hash;\n    }\n\n    function getHash() public view returns(string memory){\n            return Hash[msg.sender];\n    }\n\n    /***********************************************************Distributor Section********************************************************/\n\n    mapping(address => address[]) MedicineDistributorToRtailer;\n    mapping(address => address) MedicineDistributorToRtailerxContract;\n\n    function transferMedicineDistributorToRetailer(\n        address _batchId,\n        address _shipper,\n        address _retailer\n    ) public {\n            require(roles(Admin(admin).getRole(msg.sender))==roles.distributor &&\n             msg.sender == Medicine(_batchId).distributor(),\n            \"Only Distributor is allowed to call this\"\n            );\n\n            Distributor newPackage=new Distributor(\n                _batchId,\n                msg.sender,\n                _shipper,\n                _retailer\n            );\n\n            MedicineDistributorToRtailer[msg.sender].push(address(newPackage));\n            MedicineDistributorToRtailerxContract[_batchId]=address(newPackage);\n    }\n\n    function getBatchesCountDistributorToRetailer(address _distributor) public view returns(uint){\n         require(roles(Admin(admin).getRole(_distributor))==roles.distributor,\n            \"Only Distributor is allowed to call this\"\n            );\n        return MedicineDistributorToRtailer[_distributor].length;\n    }\n\n///////Following function is yet to be tested\n\n\n\n    // function getReceivedMedicine(\n    //     address _batchId,\n    //     address _distributor)\n    //     public view returns(address){\n    //         require(roles(Admin(admin).getRole(_distributor))==roles.distributor,\n    //         \"Only Distributor is allowed to call this\"\n    //         );\n    //         return MedicineDistributorToRtailerxContract[_batchId];\n    //     }\n     function getBatchesIdByIndexDistributorToRetailer(uint index,address _distributor) public view returns(address){\n          require(roles(Admin(admin).getRole(_distributor))==roles.distributor,\n            \"Only Distributor is allowed to call this\"\n            );\n        return MedicineDistributorToRtailer[_distributor][index];\n     }\n\n     function getSubContractDistributorToRetailer(address _batchId) public view returns(address){\n         return MedicineDistributorToRtailerxContract[_batchId];\n     }\n\n    /***********************************************************Retailer Section***********************************************/\n\n     mapping(address=>address[]) MedicineBatchRetailer;\n\n     enum salestatus {\n        notfound,\n        atretailer,\n        sold,\n        expire,\n        damaged\n    }\n\n     mapping(address=>salestatus) sale;\n\n     event MedicineStatus(\n        address BatchID,\n        address indexed Retailer,\n        uint status\n    );\n\n    function medicineReceivedAtRetailer(address _batchId,address _distributorAddress) public{\n        require(roles(Admin(admin).getRole(msg.sender))==roles.retailer,\"Only retailer can access this function\");\n        Distributor(_distributorAddress).receivePackageRetailer(_batchId, msg.sender);\n        MedicineBatchRetailer[msg.sender].push(_batchId);\n        sale[_batchId]=salestatus(1);\n    } \n\n    function updateSaleStatus(\n        address _batchId,\n        uint _status\n    ) public {\n        require(roles(Admin(admin).getRole(msg.sender))==roles.retailer,\"Only retailer can update status!\");\n        require(sale[_batchId]==salestatus.atretailer,\"Medicine is not at retailer\");\n        sale[_batchId]=salestatus(_status);\n        emit MedicineStatus(_batchId, msg.sender, _status);\n    }\n\n    function salesInfo(address _batchId) public view returns(uint){\n        return uint(sale[_batchId]);\n    }\n\n    function getBatchesCountRetailer(address _retailer) public view returns(uint){\n        require(roles(Admin(admin).getRole(_retailer))==roles.retailer,\"Only retailer can call this function!\");\n        return MedicineBatchRetailer[_retailer].length;\n    }\n\n    function getBatchedIdByIndexRetailer(uint index,address _retailer) public view returns(address){\n        require(roles(Admin(admin).getRole(_retailer))==roles.retailer,\"Only retailer can call this function!\");\n        return MedicineBatchRetailer[_retailer][index];\n    }\n\n}\n\n\n\n\n",
  "sourcePath": "D:\\FYP\\till-60-precent-and-onwards\\vite-dash\\src\\contracts\\MedCycle.sol",
  "compiler": {
    "name": "solc",
    "version": "0.8.5+commit.a4f2e591.Emscripten.clang"
  },
  "schemaVersion": "3.4.14",
  "updatedAt": "2023-06-01T17:34:46.591Z",
  "devdoc": {
    "kind": "dev",
    "methods": {},
    "version": 1
  },
  "userdoc": {
    "kind": "user",
    "methods": {},
    "version": 1
  }
}