{
  "contractName": "Medicine",
  "abi": [
    {
      "inputs": [
        {
          "internalType": "address",
          "name": "_manufacturer",
          "type": "address"
        },
        {
          "internalType": "string",
          "name": "_description",
          "type": "string"
        },
        {
          "internalType": "address",
          "name": "_rawmaterial",
          "type": "address"
        },
        {
          "internalType": "uint256",
          "name": "_quantity",
          "type": "uint256"
        },
        {
          "internalType": "address",
          "name": "_shipper",
          "type": "address"
        },
        {
          "internalType": "address",
          "name": "_distributor",
          "type": "address"
        }
      ],
      "stateMutability": "nonpayable",
      "type": "constructor"
    },
    {
      "anonymous": false,
      "inputs": [
        {
          "indexed": true,
          "internalType": "address",
          "name": "BatchId",
          "type": "address"
        },
        {
          "indexed": true,
          "internalType": "address",
          "name": "Shipper",
          "type": "address"
        },
        {
          "indexed": true,
          "internalType": "address",
          "name": "Receiver",
          "type": "address"
        },
        {
          "indexed": false,
          "internalType": "uint256",
          "name": "TransporterType",
          "type": "uint256"
        },
        {
          "indexed": false,
          "internalType": "uint256",
          "name": "Status",
          "type": "uint256"
        }
      ],
      "name": "ShippmentUpdate",
      "type": "event"
    },
    {
      "inputs": [],
      "name": "distributor",
      "outputs": [
        {
          "internalType": "address",
          "name": "",
          "type": "address"
        }
      ],
      "stateMutability": "view",
      "type": "function"
    },
    {
      "inputs": [],
      "name": "retailer",
      "outputs": [
        {
          "internalType": "address",
          "name": "",
          "type": "address"
        }
      ],
      "stateMutability": "view",
      "type": "function"
    },
    {
      "inputs": [],
      "name": "getMediceInfo",
      "outputs": [
        {
          "internalType": "address",
          "name": "",
          "type": "address"
        },
        {
          "internalType": "string",
          "name": "",
          "type": "string"
        },
        {
          "internalType": "address",
          "name": "",
          "type": "address"
        },
        {
          "internalType": "uint256",
          "name": "",
          "type": "uint256"
        },
        {
          "internalType": "address",
          "name": "",
          "type": "address"
        },
        {
          "internalType": "address",
          "name": "",
          "type": "address"
        }
      ],
      "stateMutability": "view",
      "type": "function"
    },
    {
      "inputs": [],
      "name": "getMedicineStatus",
      "outputs": [
        {
          "internalType": "uint256",
          "name": "",
          "type": "uint256"
        }
      ],
      "stateMutability": "view",
      "type": "function"
    },
    {
      "inputs": [
        {
          "internalType": "address",
          "name": "_shipper",
          "type": "address"
        }
      ],
      "name": "pickPackageDistributor",
      "outputs": [],
      "stateMutability": "nonpayable",
      "type": "function"
    },
    {
      "inputs": [
        {
          "internalType": "address",
          "name": "_retailer",
          "type": "address"
        }
      ],
      "name": "receivePackageDistributor",
      "outputs": [],
      "stateMutability": "nonpayable",
      "type": "function"
    },
    {
      "inputs": [
        {
          "internalType": "address",
          "name": "_shipper",
          "type": "address"
        }
      ],
      "name": "pickPackageRetailer",
      "outputs": [],
      "stateMutability": "nonpayable",
      "type": "function"
    },
    {
      "inputs": [
        {
          "internalType": "address",
          "name": "_retailer",
          "type": "address"
        }
      ],
      "name": "receivePackageRetailer",
      "outputs": [],
      "stateMutability": "nonpayable",
      "type": "function"
    }
  ],
  "bytecode": "0x60806040523480156200001157600080fd5b506040516200187238038062001872833981810160405281019062000037919062000303565b856000806101000a81548173ffffffffffffffffffffffffffffffffffffffff021916908373ffffffffffffffffffffffffffffffffffffffff16021790555085600560006101000a81548173ffffffffffffffffffffffffffffffffffffffff021916908373ffffffffffffffffffffffffffffffffffffffff1602179055508460019080519060200190620000d0929190620001a7565b5083600260006101000a81548173ffffffffffffffffffffffffffffffffffffffff021916908373ffffffffffffffffffffffffffffffffffffffff1602179055508260038190555081600460006101000a81548173ffffffffffffffffffffffffffffffffffffffff021916908373ffffffffffffffffffffffffffffffffffffffff16021790555080600660006101000a81548173ffffffffffffffffffffffffffffffffffffffff021916908373ffffffffffffffffffffffffffffffffffffffff160217905550505050505050620005b4565b828054620001b59062000491565b90600052602060002090601f016020900481019282620001d9576000855562000225565b82601f10620001f457805160ff191683800117855562000225565b8280016001018555821562000225579182015b828111156200022457825182559160200191906001019062000207565b5b50905062000234919062000238565b5090565b5b808211156200025357600081600090555060010162000239565b5090565b60006200026e6200026884620003e7565b620003be565b9050828152602081018484840111156200028d576200028c62000560565b5b6200029a8482856200045b565b509392505050565b600081519050620002b38162000580565b92915050565b600082601f830112620002d157620002d06200055b565b5b8151620002e384826020860162000257565b91505092915050565b600081519050620002fd816200059a565b92915050565b60008060008060008060c087890312156200032357620003226200056a565b5b60006200033389828a01620002a2565b965050602087015167ffffffffffffffff81111562000357576200035662000565565b5b6200036589828a01620002b9565b95505060406200037889828a01620002a2565b94505060606200038b89828a01620002ec565b93505060806200039e89828a01620002a2565b92505060a0620003b189828a01620002a2565b9150509295509295509295565b6000620003ca620003dd565b9050620003d88282620004c7565b919050565b6000604051905090565b600067ffffffffffffffff8211156200040557620004046200052c565b5b62000410826200056f565b9050602081019050919050565b60006200042a8262000431565b9050919050565b600073ffffffffffffffffffffffffffffffffffffffff82169050919050565b6000819050919050565b60005b838110156200047b5780820151818401526020810190506200045e565b838111156200048b576000848401525b50505050565b60006002820490506001821680620004aa57607f821691505b60208210811415620004c157620004c0620004fd565b5b50919050565b620004d2826200056f565b810181811067ffffffffffffffff82111715620004f457620004f36200052c565b5b80604052505050565b7f4e487b7100000000000000000000000000000000000000000000000000000000600052602260045260246000fd5b7f4e487b7100000000000000000000000000000000000000000000000000000000600052604160045260246000fd5b600080fd5b600080fd5b600080fd5b600080fd5b6000601f19601f8301169050919050565b6200058b816200041d565b81146200059757600080fd5b50565b620005a58162000451565b8114620005b157600080fd5b50565b6112ae80620005c46000396000f3fe608060405234801561001057600080fd5b50600436106100885760003560e01c8063ef4888031161005b578063ef48880314610103578063f64cd21e1461011f578063f74fdde11461013b578063fc7923311461015757610088565b80634c1249fc1461008d57806373b037db146100ab5780637b1df25c146100c9578063bfe10928146100e5575b600080fd5b61009561017a565b6040516100a29190610d7e565b60405180910390f35b6100b36101a0565b6040516100c09190610f65565b60405180910390f35b6100e360048036038101906100de9190610bec565b6101c9565b005b6100ed610426565b6040516100fa9190610d7e565b60405180910390f35b61011d60048036038101906101189190610bec565b61044c565b005b61013960048036038101906101349190610bec565b610668565b005b61015560048036038101906101509190610bec565b610883565b005b61015f610a9e565b60405161017196959493929190610d99565b60405180910390f35b600760009054906101000a900473ffffffffffffffffffffffffffffffffffffffff1681565b6000600760149054906101000a900460ff1660048111156101c4576101c3611085565b5b905090565b600660009054906101000a900473ffffffffffffffffffffffffffffffffffffffff1673ffffffffffffffffffffffffffffffffffffffff163373ffffffffffffffffffffffffffffffffffffffff1614610259576040517f08c379a000000000000000000000000000000000000000000000000000000000815260040161025090610f25565b60405180910390fd5b6001600481111561026d5761026c611085565b5b600481111561027f5761027e611085565b5b600760149054906101000a900460ff1660048111156102a1576102a0611085565b5b146102e1576040517f08c379a00000000000000000000000000000000000000000000000000000000081526004016102d890610f45565b60405180910390fd5b600260048111156102f5576102f4611085565b5b600760146101000a81548160ff0219169083600481111561031957610318611085565b5b021790555080600760006101000a81548173ffffffffffffffffffffffffffffffffffffffff021916908373ffffffffffffffffffffffffffffffffffffffff160217905550600760009054906101000a900473ffffffffffffffffffffffffffffffffffffffff1673ffffffffffffffffffffffffffffffffffffffff16600460009054906101000a900473ffffffffffffffffffffffffffffffffffffffff1673ffffffffffffffffffffffffffffffffffffffff163073ffffffffffffffffffffffffffffffffffffffff167f7e89c4b1a4e2b51aae84eb1f90e8a34cb792ece5ac5cb63db4830c891220b28d6001600260405161041b929190610e2a565b60405180910390a450565b600660009054906101000a900473ffffffffffffffffffffffffffffffffffffffff1681565b600460009054906101000a900473ffffffffffffffffffffffffffffffffffffffff1673ffffffffffffffffffffffffffffffffffffffff168173ffffffffffffffffffffffffffffffffffffffff16146104dc576040517f08c379a00000000000000000000000000000000000000000000000000000000081526004016104d390610ee5565b60405180910390fd5b600260048111156104f0576104ef611085565b5b600481111561050257610501611085565b5b600760149054906101000a900460ff16600481111561052457610523611085565b5b14610564576040517f08c379a000000000000000000000000000000000000000000000000000000000815260040161055b90610ec5565b60405180910390fd5b6003600481111561057857610577611085565b5b600760146101000a81548160ff0219169083600481111561059c5761059b611085565b5b0217905550600760009054906101000a900473ffffffffffffffffffffffffffffffffffffffff1673ffffffffffffffffffffffffffffffffffffffff16600460009054906101000a900473ffffffffffffffffffffffffffffffffffffffff1673ffffffffffffffffffffffffffffffffffffffff163073ffffffffffffffffffffffffffffffffffffffff167f7e89c4b1a4e2b51aae84eb1f90e8a34cb792ece5ac5cb63db4830c891220b28d6001600360405161065d929190610e53565b60405180910390a450565b600760009054906101000a900473ffffffffffffffffffffffffffffffffffffffff1673ffffffffffffffffffffffffffffffffffffffff168173ffffffffffffffffffffffffffffffffffffffff16146106f8576040517f08c379a00000000000000000000000000000000000000000000000000000000081526004016106ef90610f25565b60405180910390fd5b6003600481111561070c5761070b611085565b5b600481111561071e5761071d611085565b5b600760149054906101000a900460ff1660048111156107405761073f611085565b5b14610780576040517f08c379a000000000000000000000000000000000000000000000000000000000815260040161077790610f05565b60405180910390fd5b60048081111561079357610792611085565b5b600760146101000a81548160ff021916908360048111156107b7576107b6611085565b5b0217905550600760009054906101000a900473ffffffffffffffffffffffffffffffffffffffff1673ffffffffffffffffffffffffffffffffffffffff16600460009054906101000a900473ffffffffffffffffffffffffffffffffffffffff1673ffffffffffffffffffffffffffffffffffffffff163073ffffffffffffffffffffffffffffffffffffffff167f7e89c4b1a4e2b51aae84eb1f90e8a34cb792ece5ac5cb63db4830c891220b28d60016004604051610878929190610e7c565b60405180910390a450565b600460009054906101000a900473ffffffffffffffffffffffffffffffffffffffff1673ffffffffffffffffffffffffffffffffffffffff168173ffffffffffffffffffffffffffffffffffffffff1614610913576040517f08c379a000000000000000000000000000000000000000000000000000000000815260040161090a90610ee5565b60405180910390fd5b6000600481111561092757610926611085565b5b600481111561093957610938611085565b5b600760149054906101000a900460ff16600481111561095b5761095a611085565b5b1461099b576040517f08c379a000000000000000000000000000000000000000000000000000000000815260040161099290610ea5565b60405180910390fd5b600160048111156109af576109ae611085565b5b600760146101000a81548160ff021916908360048111156109d3576109d2611085565b5b0217905550600660009054906101000a900473ffffffffffffffffffffffffffffffffffffffff1673ffffffffffffffffffffffffffffffffffffffff16600460009054906101000a900473ffffffffffffffffffffffffffffffffffffffff1673ffffffffffffffffffffffffffffffffffffffff163073ffffffffffffffffffffffffffffffffffffffff167f7e89c4b1a4e2b51aae84eb1f90e8a34cb792ece5ac5cb63db4830c891220b28d600180604051610a93929190610e01565b60405180910390a450565b6000606060008060008060008054906101000a900473ffffffffffffffffffffffffffffffffffffffff166001600260009054906101000a900473ffffffffffffffffffffffffffffffffffffffff16600354600460009054906101000a900473ffffffffffffffffffffffffffffffffffffffff16600660009054906101000a900473ffffffffffffffffffffffffffffffffffffffff16848054610b4390611053565b80601f0160208091040260200160405190810160405280929190818152602001828054610b6f90611053565b8015610bbc5780601f10610b9157610100808354040283529160200191610bbc565b820191906000526020600020905b815481529060010190602001808311610b9f57829003601f168201915b50505050509450955095509550955095509550909192939495565b600081359050610be681611261565b92915050565b600060208284031215610c0257610c016110e3565b5b6000610c1084828501610bd7565b91505092915050565b610c2281610f9c565b82525050565b610c3181610fd8565b82525050565b610c4081610fea565b82525050565b610c4f81610ffc565b82525050565b610c5e8161100e565b82525050565b6000610c6f82610f80565b610c798185610f8b565b9350610c89818560208601611020565b610c92816110e8565b840191505092915050565b6000610caa602183610f8b565b9150610cb5826110f9565b604082019050919050565b6000610ccd602083610f8b565b9150610cd882611148565b602082019050919050565b6000610cf0602e83610f8b565b9150610cfb82611171565b604082019050919050565b6000610d13601c83610f8b565b9150610d1e826111c0565b602082019050919050565b6000610d36602883610f8b565b9150610d41826111e9565b604082019050919050565b6000610d59601e83610f8b565b9150610d6482611238565b602082019050919050565b610d7881610fce565b82525050565b6000602082019050610d936000830184610c19565b92915050565b600060c082019050610dae6000830189610c19565b8181036020830152610dc08188610c64565b9050610dcf6040830187610c19565b610ddc6060830186610d6f565b610de96080830185610c19565b610df660a0830184610c19565b979650505050505050565b6000604082019050610e166000830185610c28565b610e236020830184610c28565b9392505050565b6000604082019050610e3f6000830185610c28565b610e4c6020830184610c37565b9392505050565b6000604082019050610e686000830185610c28565b610e756020830184610c46565b9392505050565b6000604082019050610e916000830185610c28565b610e9e6020830184610c55565b9392505050565b60006020820190508181036000830152610ebe81610c9d565b9050919050565b60006020820190508181036000830152610ede81610cc0565b9050919050565b60006020820190508181036000830152610efe81610ce3565b9050919050565b60006020820190508181036000830152610f1e81610d06565b9050919050565b60006020820190508181036000830152610f3e81610d29565b9050919050565b60006020820190508181036000830152610f5e81610d4c565b9050919050565b6000602082019050610f7a6000830184610d6f565b92915050565b600081519050919050565b600082825260208201905092915050565b6000610fa782610fae565b9050919050565b600073ffffffffffffffffffffffffffffffffffffffff82169050919050565b6000819050919050565b6000610fe382610fce565b9050919050565b6000610ff582610fce565b9050919050565b600061100782610fce565b9050919050565b600061101982610fce565b9050919050565b60005b8381101561103e578082015181840152602081019050611023565b8381111561104d576000848401525b50505050565b6000600282049050600182168061106b57607f821691505b6020821081141561107f5761107e6110b4565b5b50919050565b7f4e487b7100000000000000000000000000000000000000000000000000000000600052602160045260246000fd5b7f4e487b7100000000000000000000000000000000000000000000000000000000600052602260045260246000fd5b600080fd5b6000601f19601f8301169050919050565b7f746865207061636b616765206c65667420746865206d616e756661637475726560008201527f7200000000000000000000000000000000000000000000000000000000000000602082015250565b7f746865207061636b616765206c65667420746865206469737472696275746f72600082015250565b7f546865207061636b6167652063616e206f6e6c79206265207069636b6564206260008201527f7920746865207368697070657221000000000000000000000000000000000000602082015250565b7f746865207061636b616765206c65667420746865207368697070657200000000600082015250565b7f6f6e6c79206469737472696275746f722063616e20726563656976652074686560008201527f207061636b616765000000000000000000000000000000000000000000000000602082015250565b7f746865207061636b616765206973206e6f742077697468207368697065720000600082015250565b61126a81610f9c565b811461127557600080fd5b5056fea2646970667358221220081dedd1132351a70c0615617fe543f345fbefc468f56c920fe0a0e6184dd48164736f6c63430008050033",
  "immutableReferences": {},
  "source": "pragma solidity >=0.5.0 <0.8.6;\n\ncontract Medicine{\naddress owner;\n\nenum medicinestatus{\n    atmanufacturer,\n    picked_for_distributor,\n    delivered_to_distributor,\n    picked_for_retailer,\n    delivered_to_retailer\n}\n\nstring description;\naddress rawmaterial;\nuint quantity;\naddress shipper;\naddress manufacturer;\naddress public distributor;\naddress public retailer;\nmedicinestatus status;\n\nevent ShippmentUpdate(\n    address indexed BatchId,\n    address indexed Shipper,\n    address indexed Receiver,\n    uint TransporterType,\n    uint Status\n);\n\nconstructor(\n    address _manufacturer,\n    string memory _description,\n    address _rawmaterial,\n    uint _quantity,\n    address _shipper,\n    address _distributor\n) public {\n    owner=_manufacturer;\n    manufacturer=_manufacturer;\n    description=_description;\n    rawmaterial=_rawmaterial;\n    quantity=_quantity;\n    shipper=_shipper;\n    distributor=_distributor;\n}\n\nfunction getMediceInfo() public view returns(address,string memory,address,uint ,address ,address ){\n    return (\n         owner,\n        description,\n        rawmaterial,\n        quantity,\n        shipper,\n        distributor\n    );\n}\n\nfunction getMedicineStatus() public view returns(uint){\n    return uint(status);\n}\n\nfunction pickPackageDistributor(address _shipper) public {\n    require(_shipper==shipper,\"The package can only be picked by the shipper!\");\n    require(status==medicinestatus(0),\"the package left the manufacturer\");\n    status=medicinestatus(1);\n    emit ShippmentUpdate(address(this), shipper, distributor, 1, 1);\n}\n\nfunction receivePackageDistributor(address _retailer) public {\n    require(msg.sender==distributor,\"only distributor can receive the package\");\n    require(status==medicinestatus(1),\"the package is not with shiper\");\n    status=medicinestatus(2);\n    retailer=_retailer;\n     emit ShippmentUpdate(address(this), shipper, retailer, 1, 2);\n}\n\nfunction pickPackageRetailer(address _shipper) public {\n    require(_shipper==shipper,\"The package can only be picked by the shipper!\");\n    require(status==medicinestatus(2),\"the package left the distributor\");\n    status=medicinestatus(3);\n    emit ShippmentUpdate(address(this), shipper, retailer, 1, 3);\n}\n\nfunction receivePackageRetailer(address _retailer) public {\n    require(_retailer==retailer,\"only distributor can receive the package\");\n    require(status==medicinestatus(3),\"the package left the shipper\");\n    status=medicinestatus(4);\n     emit ShippmentUpdate(address(this), shipper, retailer, 1, 4);\n}\n\n}",
  "sourcePath": "D:\\FYP\\till-60-precent-and-onwards\\vite-dash\\src\\contracts\\Medicine.sol",
  "compiler": {
    "name": "solc",
    "version": "0.8.5+commit.a4f2e591.Emscripten.clang"
  },
  "schemaVersion": "3.4.14",
  "updatedAt": "2023-06-01T17:34:46.610Z",
  "devdoc": {
    "kind": "dev",
    "methods": {},
    "version": 1
  },
  "userdoc": {
    "kind": "user",
    "methods": {},
    "version": 1
  }
}