{
  "contractName": "RawMaterial",
  "abi": [
    {
      "inputs": [
        {
          "internalType": "address",
          "name": "_supplier",
          "type": "address"
        },
        {
          "internalType": "string",
          "name": "_description",
          "type": "string"
        },
        {
          "internalType": "string",
          "name": "_ownerName",
          "type": "string"
        },
        {
          "internalType": "string",
          "name": "_location",
          "type": "string"
        },
        {
          "internalType": "uint256",
          "name": "_quantity",
          "type": "uint256"
        },
        {
          "internalType": "address",
          "name": "_shipper",
          "type": "address"
        },
        {
          "internalType": "address",
          "name": "_manufacturer",
          "type": "address"
        }
      ],
      "stateMutability": "nonpayable",
      "type": "constructor"
    },
    {
      "anonymous": false,
      "inputs": [
        {
          "indexed": true,
          "internalType": "address",
          "name": "BatchId",
          "type": "address"
        },
        {
          "indexed": true,
          "internalType": "address",
          "name": "Shipper",
          "type": "address"
        },
        {
          "indexed": true,
          "internalType": "address",
          "name": "Manufacturer",
          "type": "address"
        },
        {
          "indexed": false,
          "internalType": "uint256",
          "name": "TransporterTpye",
          "type": "uint256"
        },
        {
          "indexed": false,
          "internalType": "uint256",
          "name": "Status",
          "type": "uint256"
        }
      ],
      "name": "ShippmentUpdate",
      "type": "event"
    },
    {
      "inputs": [],
      "name": "getSuppliedRawMatrials",
      "outputs": [
        {
          "internalType": "string",
          "name": "",
          "type": "string"
        },
        {
          "internalType": "string",
          "name": "",
          "type": "string"
        },
        {
          "internalType": "string",
          "name": "",
          "type": "string"
        },
        {
          "internalType": "uint256",
          "name": "",
          "type": "uint256"
        },
        {
          "internalType": "address",
          "name": "",
          "type": "address"
        },
        {
          "internalType": "address",
          "name": "",
          "type": "address"
        },
        {
          "internalType": "address",
          "name": "",
          "type": "address"
        }
      ],
      "stateMutability": "view",
      "type": "function"
    },
    {
      "inputs": [],
      "name": "getRawMatrialsStatus",
      "outputs": [
        {
          "internalType": "uint256",
          "name": "",
          "type": "uint256"
        }
      ],
      "stateMutability": "view",
      "type": "function"
    },
    {
      "inputs": [
        {
          "internalType": "address",
          "name": "_shipper",
          "type": "address"
        }
      ],
      "name": "pickPackage",
      "outputs": [],
      "stateMutability": "nonpayable",
      "type": "function"
    },
    {
      "inputs": [
        {
          "internalType": "address",
          "name": "_manufacturer",
          "type": "address"
        }
      ],
      "name": "receivePackage",
      "outputs": [],
      "stateMutability": "nonpayable",
      "type": "function"
    }
  ],
  "bytecode": "0x60806040523480156200001157600080fd5b506040516200138c3803806200138c833981810160405281019062000037919062000379565b866000806101000a81548173ffffffffffffffffffffffffffffffffffffffff021916908373ffffffffffffffffffffffffffffffffffffffff16021790555030600160006101000a81548173ffffffffffffffffffffffffffffffffffffffff021916908373ffffffffffffffffffffffffffffffffffffffff1602179055508560029080519060200190620000d09291906200021d565b508460039080519060200190620000e99291906200021d565b508360049080519060200190620001029291906200021d565b508260058190555081600660006101000a81548173ffffffffffffffffffffffffffffffffffffffff021916908373ffffffffffffffffffffffffffffffffffffffff16021790555080600760006101000a81548173ffffffffffffffffffffffffffffffffffffffff021916908373ffffffffffffffffffffffffffffffffffffffff16021790555086600860006101000a81548173ffffffffffffffffffffffffffffffffffffffff021916908373ffffffffffffffffffffffffffffffffffffffff16021790555060006002811115620001e457620001e3620005c8565b5b600860146101000a81548160ff021916908360028111156200020b576200020a620005c8565b5b021790555050505050505050620006ae565b8280546200022b906200055c565b90600052602060002090601f0160209004810192826200024f57600085556200029b565b82601f106200026a57805160ff19168380011785556200029b565b828001600101855582156200029b579182015b828111156200029a5782518255916020019190600101906200027d565b5b509050620002aa9190620002ae565b5090565b5b80821115620002c9576000816000905550600101620002af565b5090565b6000620002e4620002de84620004b2565b62000489565b9050828152602081018484840111156200030357620003026200065a565b5b6200031084828562000526565b509392505050565b60008151905062000329816200067a565b92915050565b600082601f83011262000347576200034662000655565b5b815162000359848260208601620002cd565b91505092915050565b600081519050620003738162000694565b92915050565b600080600080600080600060e0888a0312156200039b576200039a62000664565b5b6000620003ab8a828b0162000318565b975050602088015167ffffffffffffffff811115620003cf57620003ce6200065f565b5b620003dd8a828b016200032f565b965050604088015167ffffffffffffffff8111156200040157620004006200065f565b5b6200040f8a828b016200032f565b955050606088015167ffffffffffffffff8111156200043357620004326200065f565b5b620004418a828b016200032f565b9450506080620004548a828b0162000362565b93505060a0620004678a828b0162000318565b92505060c06200047a8a828b0162000318565b91505092959891949750929550565b600062000495620004a8565b9050620004a3828262000592565b919050565b6000604051905090565b600067ffffffffffffffff821115620004d057620004cf62000626565b5b620004db8262000669565b9050602081019050919050565b6000620004f582620004fc565b9050919050565b600073ffffffffffffffffffffffffffffffffffffffff82169050919050565b6000819050919050565b60005b838110156200054657808201518184015260208101905062000529565b8381111562000556576000848401525b50505050565b600060028204905060018216806200057557607f821691505b602082108114156200058c576200058b620005f7565b5b50919050565b6200059d8262000669565b810181811067ffffffffffffffff82111715620005bf57620005be62000626565b5b80604052505050565b7f4e487b7100000000000000000000000000000000000000000000000000000000600052602160045260246000fd5b7f4e487b7100000000000000000000000000000000000000000000000000000000600052602260045260246000fd5b7f4e487b7100000000000000000000000000000000000000000000000000000000600052604160045260246000fd5b600080fd5b600080fd5b600080fd5b600080fd5b6000601f19601f8301169050919050565b6200068581620004e8565b81146200069157600080fd5b50565b6200069f816200051c565b8114620006ab57600080fd5b50565b610cce80620006be6000396000f3fe608060405234801561001057600080fd5b506004361061004c5760003560e01c80631f29567a146100515780633b205a7d1461006d578063638e9a3d1461008b578063d02eee23146100a7575b600080fd5b61006b60048036038101906100669190610777565b6100cb565b005b6100756102e6565b60405161008291906109fb565b60405180910390f35b6100a560048036038101906100a09190610777565b61030f565b005b6100af61052a565b6040516100c297969594939291906108f7565b60405180910390f35b600760009054906101000a900473ffffffffffffffffffffffffffffffffffffffff1673ffffffffffffffffffffffffffffffffffffffff168173ffffffffffffffffffffffffffffffffffffffff161461015b576040517f08c379a0000000000000000000000000000000000000000000000000000000008152600401610152906109db565b60405180910390fd5b6001600281111561016f5761016e610af7565b5b600281111561018157610180610af7565b5b600860149054906101000a900460ff1660028111156101a3576101a2610af7565b5b146101e3576040517f08c379a00000000000000000000000000000000000000000000000000000000081526004016101da9061097b565b60405180910390fd5b6002808111156101f6576101f5610af7565b5b600860146101000a81548160ff0219169083600281111561021a57610219610af7565b5b0217905550600760009054906101000a900473ffffffffffffffffffffffffffffffffffffffff1673ffffffffffffffffffffffffffffffffffffffff16600660009054906101000a900473ffffffffffffffffffffffffffffffffffffffff1673ffffffffffffffffffffffffffffffffffffffff163073ffffffffffffffffffffffffffffffffffffffff167f7e89c4b1a4e2b51aae84eb1f90e8a34cb792ece5ac5cb63db4830c891220b28d600160026040516102db9291906108ce565b60405180910390a450565b6000600860149054906101000a900460ff16600281111561030a57610309610af7565b5b905090565b600660009054906101000a900473ffffffffffffffffffffffffffffffffffffffff1673ffffffffffffffffffffffffffffffffffffffff168173ffffffffffffffffffffffffffffffffffffffff161461039f576040517f08c379a0000000000000000000000000000000000000000000000000000000008152600401610396906109bb565b60405180910390fd5b600060028111156103b3576103b2610af7565b5b60028111156103c5576103c4610af7565b5b600860149054906101000a900460ff1660028111156103e7576103e6610af7565b5b14610427576040517f08c379a000000000000000000000000000000000000000000000000000000000815260040161041e9061099b565b60405180910390fd5b6001600281111561043b5761043a610af7565b5b600860146101000a81548160ff0219169083600281111561045f5761045e610af7565b5b0217905550600760009054906101000a900473ffffffffffffffffffffffffffffffffffffffff1673ffffffffffffffffffffffffffffffffffffffff16600660009054906101000a900473ffffffffffffffffffffffffffffffffffffffff1673ffffffffffffffffffffffffffffffffffffffff163073ffffffffffffffffffffffffffffffffffffffff167f7e89c4b1a4e2b51aae84eb1f90e8a34cb792ece5ac5cb63db4830c891220b28d60018060405161051f9291906108a5565b60405180910390a450565b6060806060600080600080600260036004600554600660009054906101000a900473ffffffffffffffffffffffffffffffffffffffff16600760009054906101000a900473ffffffffffffffffffffffffffffffffffffffff16600860009054906101000a900473ffffffffffffffffffffffffffffffffffffffff168680546105b390610ac5565b80601f01602080910402602001604051908101604052809291908181526020018280546105df90610ac5565b801561062c5780601f106106015761010080835404028352916020019161062c565b820191906000526020600020905b81548152906001019060200180831161060f57829003601f168201915b5050505050965085805461063f90610ac5565b80601f016020809104026020016040519081016040528092919081815260200182805461066b90610ac5565b80156106b85780601f1061068d576101008083540402835291602001916106b8565b820191906000526020600020905b81548152906001019060200180831161069b57829003601f168201915b505050505095508480546106cb90610ac5565b80601f01602080910402602001604051908101604052809291908181526020018280546106f790610ac5565b80156107445780601f1061071957610100808354040283529160200191610744565b820191906000526020600020905b81548152906001019060200180831161072757829003601f168201915b50505050509450965096509650965096509650965090919293949596565b60008135905061077181610c81565b92915050565b60006020828403121561078d5761078c610b55565b5b600061079b84828501610762565b91505092915050565b6107ad81610a32565b82525050565b6107bc81610a6e565b82525050565b6107cb81610a80565b82525050565b60006107dc82610a16565b6107e68185610a21565b93506107f6818560208601610a92565b6107ff81610b5a565b840191505092915050565b6000610817601883610a21565b915061082282610b6b565b602082019050919050565b600061083a602883610a21565b915061084582610b94565b604082019050919050565b600061085d603183610a21565b915061086882610be3565b604082019050919050565b6000610880602783610a21565b915061088b82610c32565b604082019050919050565b61089f81610a64565b82525050565b60006040820190506108ba60008301856107b3565b6108c760208301846107b3565b9392505050565b60006040820190506108e360008301856107b3565b6108f060208301846107c2565b9392505050565b600060e0820190508181036000830152610911818a6107d1565b9050818103602083015261092581896107d1565b9050818103604083015261093981886107d1565b90506109486060830187610896565b61095560808301866107a4565b61096260a08301856107a4565b61096f60c08301846107a4565b98975050505050505050565b600060208201905081810360008301526109948161080a565b9050919050565b600060208201905081810360008301526109b48161082d565b9050919050565b600060208201905081810360008301526109d481610850565b9050919050565b600060208201905081810360008301526109f481610873565b9050919050565b6000602082019050610a106000830184610896565b92915050565b600081519050919050565b600082825260208201905092915050565b6000610a3d82610a44565b9050919050565b600073ffffffffffffffffffffffffffffffffffffffff82169050919050565b6000819050919050565b6000610a7982610a64565b9050919050565b6000610a8b82610a64565b9050919050565b60005b83811015610ab0578082015181840152602081019050610a95565b83811115610abf576000848401525b50505050565b60006002820490506001821680610add57607f821691505b60208210811415610af157610af0610b26565b5b50919050565b7f4e487b7100000000000000000000000000000000000000000000000000000000600052602160045260246000fd5b7f4e487b7100000000000000000000000000000000000000000000000000000000600052602260045260246000fd5b600080fd5b6000601f19601f8301169050919050565b7f5061636b616765206e6f74207368697070656420796574210000000000000000600082015250565b7f746865207061636b616765206973206e6f206c6f6e676572207769746820746860008201527f65206f776e657221000000000000000000000000000000000000000000000000602082015250565b7f4f6e6c7920746865207368697070657220697320616c6c6f77656420746f207360008201527f6869702074686973207061636b61676521000000000000000000000000000000602082015250565b7f4f6e79206d616e7566616374757265722063616e20726563656976207468652060008201527f7061636b61676500000000000000000000000000000000000000000000000000602082015250565b610c8a81610a32565b8114610c9557600080fd5b5056fea264697066735822122069fc2ba35aa16549d20e174baf3c30154ed7923d4e96f24ec48823cb584527bc64736f6c63430008050033",
  "immutableReferences": {},
  "source": "pragma solidity >=0.5.0 <0.8.6;\n\ncontract RawMaterial{\n    address owner;\n    enum packageStatus{atCreator,picked,delivered}\n\n    event ShippmentUpdate(\n        address indexed BatchId,\n        address indexed Shipper,\n        address indexed Manufacturer,\n        uint TransporterTpye,\n        uint Status\n    );\n\n    address productId;\n    string description;\n    string ownerName;\n    string location;\n    uint256 quantity;\n    address shipper;\n    address manufacturer;\n    address supplier;\n    packageStatus status;\n    string packageReceiverDescription;\n\n    constructor(\n        address _supplier,\n        string memory _description,\n        string memory _ownerName,\n        string memory _location,\n        uint256 _quantity,\n        address _shipper,\n        address _manufacturer\n    ) public{\n        owner=_supplier;\n        productId=address(this);\n        description=_description;\n        ownerName=_ownerName;\n        location=_location;\n        quantity=_quantity;\n        shipper=_shipper;\n        manufacturer=_manufacturer;\n        supplier=_supplier;\n        status=packageStatus(0);\n    }\n\n       function getSuppliedRawMatrials () public view returns(\n        string memory,\n        string memory,\n        string memory,\n        uint,\n        address,\n        address,\n        address\n    ) {\n        return(\n            description,\n            ownerName,\n            location,\n            quantity,\n            shipper,\n            manufacturer,\n            supplier\n        );\n    }\n\n    function getRawMatrialsStatus() public view returns(uint) {\n        return uint(status);\n    }\n\n    function pickPackage(address _shipper) public {\n        require(_shipper==shipper,\"Only the shipper is allowed to ship this package!\");\n        require(status==packageStatus(0),\"the package is no longer with the owner!\");\n        status=packageStatus(1);\n        emit ShippmentUpdate(address(this), shipper, manufacturer, 1, 1);\n    }\n\n    function receivePackage(address _manufacturer) public{\n        require(_manufacturer==manufacturer,\"Ony manufacturer can receiv the package\");\n        require(status==packageStatus(1),\"Package not shipped yet!\");\n        status=packageStatus(2);\n        emit ShippmentUpdate(address(this), shipper, manufacturer, 1, 2);\n    }\n}\n\n\n",
  "sourcePath": "D:\\FYP\\till-60-precent-and-onwards\\vite-dash\\src\\contracts\\RawMaterial.sol",
  "compiler": {
    "name": "solc",
    "version": "0.8.5+commit.a4f2e591.Emscripten.clang"
  },
  "schemaVersion": "3.4.14",
  "updatedAt": "2023-06-04T16:51:27.921Z",
  "devdoc": {
    "kind": "dev",
    "methods": {},
    "version": 1
  },
  "userdoc": {
    "kind": "user",
    "methods": {},
    "version": 1
  }
}