{
  "contractName": "Supplier",
  "abi": [
    {
      "inputs": [
        {
          "internalType": "address",
          "name": "_admin",
          "type": "address"
        }
      ],
      "stateMutability": "nonpayable",
      "type": "constructor"
    },
    {
      "anonymous": false,
      "inputs": [
        {
          "indexed": true,
          "internalType": "address",
          "name": "productId",
          "type": "address"
        },
        {
          "indexed": true,
          "internalType": "address",
          "name": "supplier",
          "type": "address"
        },
        {
          "indexed": false,
          "internalType": "address",
          "name": "shipper",
          "type": "address"
        },
        {
          "indexed": true,
          "internalType": "address",
          "name": "receiver",
          "type": "address"
        }
      ],
      "name": "RawSupplyInit",
      "type": "event"
    },
    {
      "inputs": [
        {
          "internalType": "string",
          "name": "_description",
          "type": "string"
        },
        {
          "internalType": "string",
          "name": "_ownerName",
          "type": "string"
        },
        {
          "internalType": "string",
          "name": "_location",
          "type": "string"
        },
        {
          "internalType": "uint256",
          "name": "_quantity",
          "type": "uint256"
        },
        {
          "internalType": "address",
          "name": "_shipper",
          "type": "address"
        },
        {
          "internalType": "address",
          "name": "_manufacturer",
          "type": "address"
        }
      ],
      "name": "createRawPackage",
      "outputs": [],
      "stateMutability": "nonpayable",
      "type": "function"
    },
    {
      "inputs": [
        {
          "internalType": "address",
          "name": "_supplier",
          "type": "address"
        }
      ],
      "name": "getPackageCountSupplier",
      "outputs": [
        {
          "internalType": "uint256",
          "name": "",
          "type": "uint256"
        }
      ],
      "stateMutability": "view",
      "type": "function"
    },
    {
      "inputs": [
        {
          "internalType": "uint256",
          "name": "index",
          "type": "uint256"
        },
        {
          "internalType": "address",
          "name": "_supplier",
          "type": "address"
        }
      ],
      "name": "getPackageIdByIndexSupplier",
      "outputs": [
        {
          "internalType": "address",
          "name": "",
          "type": "address"
        }
      ],
      "stateMutability": "view",
      "type": "function"
    }
  ],
  "bytecode": "0x608060405234801561001057600080fd5b50604051620022f1380380620022f18339818101604052810190610034919061008f565b806000806101000a81548173ffffffffffffffffffffffffffffffffffffffff021916908373ffffffffffffffffffffffffffffffffffffffff1602179055505061010a565b600081519050610089816100f3565b92915050565b6000602082840312156100a5576100a46100ee565b5b60006100b38482850161007a565b91505092915050565b60006100c7826100ce565b9050919050565b600073ffffffffffffffffffffffffffffffffffffffff82169050919050565b600080fd5b6100fc816100bc565b811461010757600080fd5b50565b6121d7806200011a6000396000f3fe60806040523480156200001157600080fd5b5060043610620000465760003560e01c80639605a6c6146200004b57806396c69a4d1462000081578063b32aedc014620000b7575b600080fd5b620000696004803603810190620000639190620008e3565b620000d7565b60405162000078919062000a02565b60405180910390f35b6200009f600480360381019062000099919062000786565b62000293565b604051620000ae919062000b17565b60405180910390f35b620000d56004803603810190620000cf9190620007b8565b62000412565b005b600060016006811115620000f057620000ef62000c68565b5b60008054906101000a900473ffffffffffffffffffffffffffffffffffffffff1673ffffffffffffffffffffffffffffffffffffffff166344276733846040518263ffffffff1660e01b81526004016200014b919062000a02565b60206040518083038186803b1580156200016457600080fd5b505afa15801562000179573d6000803e3d6000fd5b505050506040513d601f19601f820116820180604052508101906200019f9190620008b1565b6006811115620001b457620001b362000c68565b5b6006811115620001c957620001c862000c68565b5b146200020c576040517f08c379a0000000000000000000000000000000000000000000000000000000008152600401620002039062000ab1565b60405180910390fd5b600160008373ffffffffffffffffffffffffffffffffffffffff1673ffffffffffffffffffffffffffffffffffffffff168152602001908152602001600020838154811062000260576200025f62000c97565b5b9060005260206000200160009054906101000a900473ffffffffffffffffffffffffffffffffffffffff16905092915050565b600060016006811115620002ac57620002ab62000c68565b5b60008054906101000a900473ffffffffffffffffffffffffffffffffffffffff1673ffffffffffffffffffffffffffffffffffffffff166344276733846040518263ffffffff1660e01b815260040162000307919062000a02565b60206040518083038186803b1580156200032057600080fd5b505afa15801562000335573d6000803e3d6000fd5b505050506040513d601f19601f820116820180604052508101906200035b9190620008b1565b600681111562000370576200036f62000c68565b5b600681111562000385576200038462000c68565b5b14620003c8576040517f08c379a0000000000000000000000000000000000000000000000000000000008152600401620003bf9062000af5565b60405180910390fd5b600160008373ffffffffffffffffffffffffffffffffffffffff1673ffffffffffffffffffffffffffffffffffffffff168152602001908152602001600020805490509050919050565b6001600681111562000429576200042862000c68565b5b60008054906101000a900473ffffffffffffffffffffffffffffffffffffffff1673ffffffffffffffffffffffffffffffffffffffff166344276733336040518263ffffffff1660e01b815260040162000484919062000a02565b60206040518083038186803b1580156200049d57600080fd5b505afa158015620004b2573d6000803e3d6000fd5b505050506040513d601f19601f82011682018060405250810190620004d89190620008b1565b6006811115620004ed57620004ec62000c68565b5b600681111562000502576200050162000c68565b5b1462000545576040517f08c379a00000000000000000000000000000000000000000000000000000000081526004016200053c9062000ad3565b60405180910390fd5b6000338787878787876040516200055c90620006b5565b6200056e979695949392919062000a1f565b604051809103906000f0801580156200058b573d6000803e3d6000fd5b509050600160003373ffffffffffffffffffffffffffffffffffffffff1673ffffffffffffffffffffffffffffffffffffffff168152602001908152602001600020819080600181540180825580915050600190039060005260206000200160009091909190916101000a81548173ffffffffffffffffffffffffffffffffffffffff021916908373ffffffffffffffffffffffffffffffffffffffff1602179055508173ffffffffffffffffffffffffffffffffffffffff163373ffffffffffffffffffffffffffffffffffffffff168273ffffffffffffffffffffffffffffffffffffffff167f9dbe7d9fdd28b9b1c2ffe79a40f7beff124537ed0d7a47555d009e0271fc613386604051620006a4919062000a02565b60405180910390a450505050505050565b61138c8062000e1683390190565b6000620006da620006d48462000b5d565b62000b34565b905082815260208101848484011115620006f957620006f862000cfa565b5b6200070684828562000bed565b509392505050565b6000813590506200071f8162000de1565b92915050565b600082601f8301126200073d576200073c62000cf5565b5b81356200074f848260208601620006c3565b91505092915050565b600081359050620007698162000dfb565b92915050565b600081519050620007808162000dfb565b92915050565b6000602082840312156200079f576200079e62000d04565b5b6000620007af848285016200070e565b91505092915050565b60008060008060008060c08789031215620007d857620007d762000d04565b5b600087013567ffffffffffffffff811115620007f957620007f862000cff565b5b6200080789828a0162000725565b965050602087013567ffffffffffffffff8111156200082b576200082a62000cff565b5b6200083989828a0162000725565b955050604087013567ffffffffffffffff8111156200085d576200085c62000cff565b5b6200086b89828a0162000725565b94505060606200087e89828a0162000758565b93505060806200089189828a016200070e565b92505060a0620008a489828a016200070e565b9150509295509295509295565b600060208284031215620008ca57620008c962000d04565b5b6000620008da848285016200076f565b91505092915050565b60008060408385031215620008fd57620008fc62000d04565b5b60006200090d8582860162000758565b925050602062000920858286016200070e565b9150509250929050565b620009358162000baf565b82525050565b6000620009488262000b93565b62000954818562000b9e565b93506200096681856020860162000bfc565b620009718162000d09565b840191505092915050565b60006200098b60258362000b9e565b9150620009988262000d1a565b604082019050919050565b6000620009b260238362000b9e565b9150620009bf8262000d69565b604082019050919050565b6000620009d960208362000b9e565b9150620009e68262000db8565b602082019050919050565b620009fc8162000be3565b82525050565b600060208201905062000a1960008301846200092a565b92915050565b600060e08201905062000a36600083018a6200092a565b818103602083015262000a4a81896200093b565b9050818103604083015262000a6081886200093b565b9050818103606083015262000a7681876200093b565b905062000a876080830186620009f1565b62000a9660a08301856200092a565b62000aa560c08301846200092a565b98975050505050505050565b6000602082019050818103600083015262000acc816200097c565b9050919050565b6000602082019050818103600083015262000aee81620009a3565b9050919050565b6000602082019050818103600083015262000b1081620009ca565b9050919050565b600060208201905062000b2e6000830184620009f1565b92915050565b600062000b4062000b53565b905062000b4e828262000c32565b919050565b6000604051905090565b600067ffffffffffffffff82111562000b7b5762000b7a62000cc6565b5b62000b868262000d09565b9050602081019050919050565b600081519050919050565b600082825260208201905092915050565b600062000bbc8262000bc3565b9050919050565b600073ffffffffffffffffffffffffffffffffffffffff82169050919050565b6000819050919050565b82818337600083830152505050565b60005b8381101562000c1c57808201518184015260208101905062000bff565b8381111562000c2c576000848401525b50505050565b62000c3d8262000d09565b810181811067ffffffffffffffff8211171562000c5f5762000c5e62000cc6565b5b80604052505050565b7f4e487b7100000000000000000000000000000000000000000000000000000000600052602160045260246000fd5b7f4e487b7100000000000000000000000000000000000000000000000000000000600052603260045260246000fd5b7f4e487b7100000000000000000000000000000000000000000000000000000000600052604160045260246000fd5b600080fd5b600080fd5b600080fd5b600080fd5b6000601f19601f8301169050919050565b7f4f6e6c7920737570706c6965722063616e2063616c6c20746869732066756e6360008201527f74696f6e21000000000000000000000000000000000000000000000000000000602082015250565b7f4f6e6c7920737570706c6965722063616e206372656174652061207061636b6160008201527f6765210000000000000000000000000000000000000000000000000000000000602082015250565b7f4f6e6c7920737570706c6965722063616e206765742061207061636b61676521600082015250565b62000dec8162000baf565b811462000df857600080fd5b50565b62000e068162000be3565b811462000e1257600080fd5b5056fe60806040523480156200001157600080fd5b506040516200138c3803806200138c833981810160405281019062000037919062000379565b866000806101000a81548173ffffffffffffffffffffffffffffffffffffffff021916908373ffffffffffffffffffffffffffffffffffffffff16021790555030600160006101000a81548173ffffffffffffffffffffffffffffffffffffffff021916908373ffffffffffffffffffffffffffffffffffffffff1602179055508560029080519060200190620000d09291906200021d565b508460039080519060200190620000e99291906200021d565b508360049080519060200190620001029291906200021d565b508260058190555081600660006101000a81548173ffffffffffffffffffffffffffffffffffffffff021916908373ffffffffffffffffffffffffffffffffffffffff16021790555080600760006101000a81548173ffffffffffffffffffffffffffffffffffffffff021916908373ffffffffffffffffffffffffffffffffffffffff16021790555086600860006101000a81548173ffffffffffffffffffffffffffffffffffffffff021916908373ffffffffffffffffffffffffffffffffffffffff16021790555060006002811115620001e457620001e3620005c8565b5b600860146101000a81548160ff021916908360028111156200020b576200020a620005c8565b5b021790555050505050505050620006ae565b8280546200022b906200055c565b90600052602060002090601f0160209004810192826200024f57600085556200029b565b82601f106200026a57805160ff19168380011785556200029b565b828001600101855582156200029b579182015b828111156200029a5782518255916020019190600101906200027d565b5b509050620002aa9190620002ae565b5090565b5b80821115620002c9576000816000905550600101620002af565b5090565b6000620002e4620002de84620004b2565b62000489565b9050828152602081018484840111156200030357620003026200065a565b5b6200031084828562000526565b509392505050565b60008151905062000329816200067a565b92915050565b600082601f83011262000347576200034662000655565b5b815162000359848260208601620002cd565b91505092915050565b600081519050620003738162000694565b92915050565b600080600080600080600060e0888a0312156200039b576200039a62000664565b5b6000620003ab8a828b0162000318565b975050602088015167ffffffffffffffff811115620003cf57620003ce6200065f565b5b620003dd8a828b016200032f565b965050604088015167ffffffffffffffff8111156200040157620004006200065f565b5b6200040f8a828b016200032f565b955050606088015167ffffffffffffffff8111156200043357620004326200065f565b5b620004418a828b016200032f565b9450506080620004548a828b0162000362565b93505060a0620004678a828b0162000318565b92505060c06200047a8a828b0162000318565b91505092959891949750929550565b600062000495620004a8565b9050620004a3828262000592565b919050565b6000604051905090565b600067ffffffffffffffff821115620004d057620004cf62000626565b5b620004db8262000669565b9050602081019050919050565b6000620004f582620004fc565b9050919050565b600073ffffffffffffffffffffffffffffffffffffffff82169050919050565b6000819050919050565b60005b838110156200054657808201518184015260208101905062000529565b8381111562000556576000848401525b50505050565b600060028204905060018216806200057557607f821691505b602082108114156200058c576200058b620005f7565b5b50919050565b6200059d8262000669565b810181811067ffffffffffffffff82111715620005bf57620005be62000626565b5b80604052505050565b7f4e487b7100000000000000000000000000000000000000000000000000000000600052602160045260246000fd5b7f4e487b7100000000000000000000000000000000000000000000000000000000600052602260045260246000fd5b7f4e487b7100000000000000000000000000000000000000000000000000000000600052604160045260246000fd5b600080fd5b600080fd5b600080fd5b600080fd5b6000601f19601f8301169050919050565b6200068581620004e8565b81146200069157600080fd5b50565b6200069f816200051c565b8114620006ab57600080fd5b50565b610cce80620006be6000396000f3fe608060405234801561001057600080fd5b506004361061004c5760003560e01c80631f29567a146100515780633b205a7d1461006d578063638e9a3d1461008b578063d02eee23146100a7575b600080fd5b61006b60048036038101906100669190610777565b6100cb565b005b6100756102e6565b60405161008291906109fb565b60405180910390f35b6100a560048036038101906100a09190610777565b61030f565b005b6100af61052a565b6040516100c297969594939291906108f7565b60405180910390f35b600760009054906101000a900473ffffffffffffffffffffffffffffffffffffffff1673ffffffffffffffffffffffffffffffffffffffff168173ffffffffffffffffffffffffffffffffffffffff161461015b576040517f08c379a0000000000000000000000000000000000000000000000000000000008152600401610152906109db565b60405180910390fd5b6001600281111561016f5761016e610af7565b5b600281111561018157610180610af7565b5b600860149054906101000a900460ff1660028111156101a3576101a2610af7565b5b146101e3576040517f08c379a00000000000000000000000000000000000000000000000000000000081526004016101da9061097b565b60405180910390fd5b6002808111156101f6576101f5610af7565b5b600860146101000a81548160ff0219169083600281111561021a57610219610af7565b5b0217905550600760009054906101000a900473ffffffffffffffffffffffffffffffffffffffff1673ffffffffffffffffffffffffffffffffffffffff16600660009054906101000a900473ffffffffffffffffffffffffffffffffffffffff1673ffffffffffffffffffffffffffffffffffffffff163073ffffffffffffffffffffffffffffffffffffffff167f7e89c4b1a4e2b51aae84eb1f90e8a34cb792ece5ac5cb63db4830c891220b28d600160026040516102db9291906108ce565b60405180910390a450565b6000600860149054906101000a900460ff16600281111561030a57610309610af7565b5b905090565b600660009054906101000a900473ffffffffffffffffffffffffffffffffffffffff1673ffffffffffffffffffffffffffffffffffffffff168173ffffffffffffffffffffffffffffffffffffffff161461039f576040517f08c379a0000000000000000000000000000000000000000000000000000000008152600401610396906109bb565b60405180910390fd5b600060028111156103b3576103b2610af7565b5b60028111156103c5576103c4610af7565b5b600860149054906101000a900460ff1660028111156103e7576103e6610af7565b5b14610427576040517f08c379a000000000000000000000000000000000000000000000000000000000815260040161041e9061099b565b60405180910390fd5b6001600281111561043b5761043a610af7565b5b600860146101000a81548160ff0219169083600281111561045f5761045e610af7565b5b0217905550600760009054906101000a900473ffffffffffffffffffffffffffffffffffffffff1673ffffffffffffffffffffffffffffffffffffffff16600660009054906101000a900473ffffffffffffffffffffffffffffffffffffffff1673ffffffffffffffffffffffffffffffffffffffff163073ffffffffffffffffffffffffffffffffffffffff167f7e89c4b1a4e2b51aae84eb1f90e8a34cb792ece5ac5cb63db4830c891220b28d60018060405161051f9291906108a5565b60405180910390a450565b6060806060600080600080600260036004600554600660009054906101000a900473ffffffffffffffffffffffffffffffffffffffff16600760009054906101000a900473ffffffffffffffffffffffffffffffffffffffff16600860009054906101000a900473ffffffffffffffffffffffffffffffffffffffff168680546105b390610ac5565b80601f01602080910402602001604051908101604052809291908181526020018280546105df90610ac5565b801561062c5780601f106106015761010080835404028352916020019161062c565b820191906000526020600020905b81548152906001019060200180831161060f57829003601f168201915b5050505050965085805461063f90610ac5565b80601f016020809104026020016040519081016040528092919081815260200182805461066b90610ac5565b80156106b85780601f1061068d576101008083540402835291602001916106b8565b820191906000526020600020905b81548152906001019060200180831161069b57829003601f168201915b505050505095508480546106cb90610ac5565b80601f01602080910402602001604051908101604052809291908181526020018280546106f790610ac5565b80156107445780601f1061071957610100808354040283529160200191610744565b820191906000526020600020905b81548152906001019060200180831161072757829003601f168201915b50505050509450965096509650965096509650965090919293949596565b60008135905061077181610c81565b92915050565b60006020828403121561078d5761078c610b55565b5b600061079b84828501610762565b91505092915050565b6107ad81610a32565b82525050565b6107bc81610a6e565b82525050565b6107cb81610a80565b82525050565b60006107dc82610a16565b6107e68185610a21565b93506107f6818560208601610a92565b6107ff81610b5a565b840191505092915050565b6000610817601883610a21565b915061082282610b6b565b602082019050919050565b600061083a602883610a21565b915061084582610b94565b604082019050919050565b600061085d603183610a21565b915061086882610be3565b604082019050919050565b6000610880602783610a21565b915061088b82610c32565b604082019050919050565b61089f81610a64565b82525050565b60006040820190506108ba60008301856107b3565b6108c760208301846107b3565b9392505050565b60006040820190506108e360008301856107b3565b6108f060208301846107c2565b9392505050565b600060e0820190508181036000830152610911818a6107d1565b9050818103602083015261092581896107d1565b9050818103604083015261093981886107d1565b90506109486060830187610896565b61095560808301866107a4565b61096260a08301856107a4565b61096f60c08301846107a4565b98975050505050505050565b600060208201905081810360008301526109948161080a565b9050919050565b600060208201905081810360008301526109b48161082d565b9050919050565b600060208201905081810360008301526109d481610850565b9050919050565b600060208201905081810360008301526109f481610873565b9050919050565b6000602082019050610a106000830184610896565b92915050565b600081519050919050565b600082825260208201905092915050565b6000610a3d82610a44565b9050919050565b600073ffffffffffffffffffffffffffffffffffffffff82169050919050565b6000819050919050565b6000610a7982610a64565b9050919050565b6000610a8b82610a64565b9050919050565b60005b83811015610ab0578082015181840152602081019050610a95565b83811115610abf576000848401525b50505050565b60006002820490506001821680610add57607f821691505b60208210811415610af157610af0610b26565b5b50919050565b7f4e487b7100000000000000000000000000000000000000000000000000000000600052602160045260246000fd5b7f4e487b7100000000000000000000000000000000000000000000000000000000600052602260045260246000fd5b600080fd5b6000601f19601f8301169050919050565b7f5061636b616765206e6f74207368697070656420796574210000000000000000600082015250565b7f746865207061636b616765206973206e6f206c6f6e676572207769746820746860008201527f65206f776e657221000000000000000000000000000000000000000000000000602082015250565b7f4f6e6c7920746865207368697070657220697320616c6c6f77656420746f207360008201527f6869702074686973207061636b61676521000000000000000000000000000000602082015250565b7f4f6e79206d616e7566616374757265722063616e20726563656976207468652060008201527f7061636b61676500000000000000000000000000000000000000000000000000602082015250565b610c8a81610a32565b8114610c9557600080fd5b5056fea26469706673582212201089e6bafb48e019db7a157e5245d96d39c5f1da7bde0565e6082e4ec3a7221764736f6c63430008050033a2646970667358221220eb7f60bd0499c28fb1d1fa751717c66189c0a31d3800030ccefb39005f40a95564736f6c63430008050033",
  "immutableReferences": {},
  "source": "pragma solidity >=0.5.0 <0.8.6;\n\nimport \"./Admin.sol\";\nimport \"./RawMaterial.sol\";\n\ncontract Supplier{\n\n    address admin;\n\n    constructor(address _admin) public {\n        admin=_admin;\n    }\n      enum roles{\n        norole,\n        supplier,\n        transporter,\n        manufacturer,\n        distributor,\n        retailer,\n        revoke\n    }\n\n    mapping(address=>address[]) supplierRawProductInfo;\n\n    event RawSupplyInit(\n        address indexed productId,\n        address indexed supplier,\n        address shipper,\n        address indexed receiver\n    );\n\n    function createRawPackage(\n        string memory _description,\n        string memory _ownerName,\n        string memory _location,\n        uint256 _quantity,\n        address _shipper,\n        address _manufacturer\n    ) public {\n\n        require(roles(Admin(admin).getRole(msg.sender))==roles.supplier,\"Only supplier can create a package!\");\n\n        RawMaterial rawData=new RawMaterial(\n            msg.sender,\n         _description,\n         _ownerName,\n         _location,\n         _quantity,\n         _shipper,\n         _manufacturer\n        );\n\n        supplierRawProductInfo[msg.sender].push(address(rawData));\n        emit RawSupplyInit(address(rawData), msg.sender, _shipper, _manufacturer);\n    }\n\n    function getPackageCountSupplier(address _supplier) public view returns(uint){\n        require(roles(Admin(admin).getRole(_supplier))==roles.supplier,\"Only supplier can get a package!\");\n        return supplierRawProductInfo[_supplier].length;\n    }\n\n    function getPackageIdByIndexSupplier(uint index,address _supplier) public view returns(address){\n        require(roles(Admin(admin).getRole(_supplier))==roles.supplier,\"Only supplier can call this function!\");\n        return supplierRawProductInfo[_supplier][index];\n    }\n}",
  "sourcePath": "D:\\FYP\\till-60-precent-and-onwards\\vite-dash\\src\\contracts\\Supplier.sol",
  "compiler": {
    "name": "solc",
    "version": "0.8.5+commit.a4f2e591.Emscripten.clang"
  },
  "schemaVersion": "3.4.14",
  "updatedAt": "2023-06-01T17:34:46.637Z",
  "devdoc": {
    "kind": "dev",
    "methods": {},
    "version": 1
  },
  "userdoc": {
    "kind": "user",
    "methods": {},
    "version": 1
  }
}