{
  "contractName": "Transporter",
  "abi": [
    {
      "inputs": [
        {
          "internalType": "address",
          "name": "_admin",
          "type": "address"
        }
      ],
      "stateMutability": "nonpayable",
      "type": "constructor"
    },
    {
      "inputs": [
        {
          "internalType": "address",
          "name": "batchId",
          "type": "address"
        },
        {
          "internalType": "uint256",
          "name": "transporterType",
          "type": "uint256"
        },
        {
          "internalType": "address",
          "name": "distributorId",
          "type": "address"
        }
      ],
      "name": "loadConsignment",
      "outputs": [],
      "stateMutability": "nonpayable",
      "type": "function"
    }
  ],
  "bytecode": "0x608060405234801561001057600080fd5b5060405161072c38038061072c8339818101604052810190610032919061008d565b806000806101000a81548173ffffffffffffffffffffffffffffffffffffffff021916908373ffffffffffffffffffffffffffffffffffffffff16021790555050610108565b600081519050610087816100f1565b92915050565b6000602082840312156100a3576100a26100ec565b5b60006100b184828501610078565b91505092915050565b60006100c5826100cc565b9050919050565b600073ffffffffffffffffffffffffffffffffffffffff82169050919050565b600080fd5b6100fa816100ba565b811461010557600080fd5b50565b610615806101176000396000f3fe608060405234801561001057600080fd5b506004361061002b5760003560e01c80634fa831de14610030575b600080fd5b61004a6004803603810190610045919061035f565b61004c565b005b600260068111156100605761005f610505565b5b60008054906101000a900473ffffffffffffffffffffffffffffffffffffffff1673ffffffffffffffffffffffffffffffffffffffff166344276733336040518263ffffffff1660e01b81526004016100b99190610434565b60206040518083038186803b1580156100d157600080fd5b505afa1580156100e5573d6000803e3d6000fd5b505050506040513d601f19601f8201168201806040525081019061010991906103b2565b600681111561011b5761011a610505565b5b600681111561012d5761012c610505565b5b1461016d576040517f08c379a000000000000000000000000000000000000000000000000000000000815260040161016490610498565b60405180910390fd5b600082116101b0576040517f08c379a00000000000000000000000000000000000000000000000000000000081526004016101a790610478565b60405180910390fd5b6001821415610229578273ffffffffffffffffffffffffffffffffffffffff1663638e9a3d336040518263ffffffff1660e01b81526004016101f29190610434565b600060405180830381600087803b15801561020c57600080fd5b505af1158015610220573d6000803e3d6000fd5b5050505061031b565b60028214156102a2578273ffffffffffffffffffffffffffffffffffffffff1663f74fdde1336040518263ffffffff1660e01b815260040161026b9190610434565b600060405180830381600087803b15801561028557600080fd5b505af1158015610299573d6000803e3d6000fd5b5050505061031a565b6003821415610319578073ffffffffffffffffffffffffffffffffffffffff1663190d65de84336040518363ffffffff1660e01b81526004016102e692919061044f565b600060405180830381600087803b15801561030057600080fd5b505af1158015610314573d6000803e3d6000fd5b505050505b5b5b505050565b60008135905061032f816105b1565b92915050565b600081359050610344816105c8565b92915050565b600081519050610359816105c8565b92915050565b60008060006060848603121561037857610377610534565b5b600061038686828701610320565b935050602061039786828701610335565b92505060406103a886828701610320565b9150509250925092565b6000602082840312156103c8576103c7610534565b5b60006103d68482850161034a565b91505092915050565b6103e8816104c9565b82525050565b60006103fb601a836104b8565b915061040682610539565b602082019050919050565b600061041e6028836104b8565b915061042982610562565b604082019050919050565b600060208201905061044960008301846103df565b92915050565b600060408201905061046460008301856103df565b61047160208301846103df565b9392505050565b60006020820190508181036000830152610491816103ee565b9050919050565b600060208201905081810360008301526104b181610411565b9050919050565b600082825260208201905092915050565b60006104d4826104db565b9050919050565b600073ffffffffffffffffffffffffffffffffffffffff82169050919050565b6000819050919050565b7f4e487b7100000000000000000000000000000000000000000000000000000000600052602160045260246000fd5b600080fd5b7f5472616e73706f72746572207479706520756e646566696e6564000000000000600082015250565b7f4f6e6c79207472616e73706f727465722063616e2063616c6c2074686973206660008201527f756e6374696f6e2e000000000000000000000000000000000000000000000000602082015250565b6105ba816104c9565b81146105c557600080fd5b50565b6105d1816104fb565b81146105dc57600080fd5b5056fea26469706673582212205aea3e7daf3b356e4c1e88dc3fa26f922ce6cd2b7801ec6d766104499833266d64736f6c63430008050033",
  "immutableReferences": {},
  "source": "pragma solidity >=0.5.0 <0.8.6;\n\nimport \"./Admin.sol\";\nimport \"./RawMaterial.sol\";\nimport \"./Medicine.sol\";\nimport \"./Distributor.sol\";\n\ncontract Transporter{\n        enum roles{\n        norole,\n        supplier,\n        transporter,\n        manufacturer,\n        distributor,\n        retailer,\n        revoke\n    }\n\n    address admin;\n\n    constructor(address _admin) public {\n         admin=_admin;\n    }\n\n    function loadConsignment(\n        address batchId,\n        uint transporterType,\n        address distributorId\n    ) public {\n        require(roles(Admin(admin).getRole(msg.sender))==roles.transporter,\"Only transporter can call this function.\");\n        require(transporterType>0,\"Transporter type undefined\");\n        if(transporterType==1){\n            RawMaterial(batchId).pickPackage(msg.sender);\n        }\n        else if(transporterType==2){\n            Medicine(batchId).pickPackageDistributor(msg.sender);\n        }\n        else if(transporterType==3){\n            Distributor(distributorId).pickPackageForRetailer(batchId,msg.sender);\n        }\n    }\n}",
  "sourcePath": "D:\\FYP\\till-60-precent-and-onwards\\vite-dash\\src\\contracts\\Transporter.sol",
  "compiler": {
    "name": "solc",
    "version": "0.8.5+commit.a4f2e591.Emscripten.clang"
  },
  "schemaVersion": "3.4.14",
  "updatedAt": "2023-06-01T17:34:46.646Z",
  "devdoc": {
    "kind": "dev",
    "methods": {},
    "version": 1
  },
  "userdoc": {
    "kind": "user",
    "methods": {},
    "version": 1
  }
}