{
  "contractName": "Admin",
  "abi": [
    {
      "inputs": [],
      "payable": false,
      "stateMutability": "nonpayable",
      "type": "constructor"
    },
    {
      "anonymous": false,
      "inputs": [
        {
          "indexed": true,
          "internalType": "address",
          "name": "EthAddress",
          "type": "address"
        },
        {
          "indexed": false,
          "internalType": "string",
          "name": "Name",
          "type": "string"
        }
      ],
      "name": "UserRegister",
      "type": "event"
    },
    {
      "anonymous": false,
      "inputs": [
        {
          "indexed": true,
          "internalType": "address",
          "name": "EthAddress",
          "type": "address"
        },
        {
          "indexed": false,
          "internalType": "string",
          "name": "Name",
          "type": "string"
        },
        {
          "indexed": false,
          "internalType": "uint256",
          "name": "Role",
          "type": "uint256"
        }
      ],
      "name": "UserRoleRessign",
      "type": "event"
    },
    {
      "anonymous": false,
      "inputs": [
        {
          "indexed": true,
          "internalType": "address",
          "name": "EthAddress",
          "type": "address"
        },
        {
          "indexed": false,
          "internalType": "string",
          "name": "Name",
          "type": "string"
        },
        {
          "indexed": false,
          "internalType": "uint256",
          "name": "Role",
          "type": "uint256"
        }
      ],
      "name": "UserRoleRevoked",
      "type": "event"
    },
    {
      "constant": true,
      "inputs": [
        {
          "internalType": "address",
          "name": "",
          "type": "address"
        }
      ],
      "name": "UsersDetails",
      "outputs": [
        {
          "internalType": "string",
          "name": "name",
          "type": "string"
        },
        {
          "internalType": "string",
          "name": "location",
          "type": "string"
        },
        {
          "internalType": "address",
          "name": "ethAddress",
          "type": "address"
        },
        {
          "internalType": "enum Admin.roles",
          "name": "role",
          "type": "uint8"
        }
      ],
      "payable": false,
      "stateMutability": "view",
      "type": "function"
    },
    {
      "constant": true,
      "inputs": [],
      "name": "owner",
      "outputs": [
        {
          "internalType": "address",
          "name": "",
          "type": "address"
        }
      ],
      "payable": false,
      "stateMutability": "view",
      "type": "function"
    },
    {
      "constant": false,
      "inputs": [
        {
          "internalType": "address",
          "name": "EthAddress",
          "type": "address"
        },
        {
          "internalType": "string",
          "name": "Name",
          "type": "string"
        },
        {
          "internalType": "string",
          "name": "Location",
          "type": "string"
        },
        {
          "internalType": "uint256",
          "name": "Role",
          "type": "uint256"
        }
      ],
      "name": "registerUser",
      "outputs": [],
      "payable": false,
      "stateMutability": "nonpayable",
      "type": "function"
    },
    {
      "constant": false,
      "inputs": [
        {
          "internalType": "address",
          "name": "userAddress",
          "type": "address"
        }
      ],
      "name": "revokeRole",
      "outputs": [],
      "payable": false,
      "stateMutability": "nonpayable",
      "type": "function"
    },
    {
      "constant": false,
      "inputs": [
        {
          "internalType": "address",
          "name": "userAddress",
          "type": "address"
        },
        {
          "internalType": "uint256",
          "name": "Role",
          "type": "uint256"
        }
      ],
      "name": "reassignRole",
      "outputs": [],
      "payable": false,
      "stateMutability": "nonpayable",
      "type": "function"
    },
    {
      "constant": true,
      "inputs": [
        {
          "internalType": "address",
          "name": "userAddress",
          "type": "address"
        }
      ],
      "name": "getUserInfo",
      "outputs": [
        {
          "internalType": "string",
          "name": "",
          "type": "string"
        },
        {
          "internalType": "string",
          "name": "",
          "type": "string"
        },
        {
          "internalType": "address",
          "name": "",
          "type": "address"
        },
        {
          "internalType": "uint256",
          "name": "",
          "type": "uint256"
        }
      ],
      "payable": false,
      "stateMutability": "view",
      "type": "function"
    },
    {
      "constant": true,
      "inputs": [],
      "name": "getUsersCount",
      "outputs": [
        {
          "internalType": "uint256",
          "name": "count",
          "type": "uint256"
        }
      ],
      "payable": false,
      "stateMutability": "view",
      "type": "function"
    },
    {
      "constant": true,
      "inputs": [
        {
          "internalType": "uint256",
          "name": "index",
          "type": "uint256"
        }
      ],
      "name": "getUserByIndex",
      "outputs": [
        {
          "internalType": "string",
          "name": "",
          "type": "string"
        },
        {
          "internalType": "string",
          "name": "",
          "type": "string"
        },
        {
          "internalType": "address",
          "name": "",
          "type": "address"
        },
        {
          "internalType": "uint256",
          "name": "",
          "type": "uint256"
        }
      ],
      "payable": false,
      "stateMutability": "view",
      "type": "function"
    },
    {
      "constant": true,
      "inputs": [
        {
          "internalType": "address",
          "name": "_address",
          "type": "address"
        }
      ],
      "name": "getRole",
      "outputs": [
        {
          "internalType": "uint256",
          "name": "",
          "type": "uint256"
        }
      ],
      "payable": false,
      "stateMutability": "view",
      "type": "function"
    }
  ],
  "bytecode": "0x608060405234801561001057600080fd5b50336000806101000a81548173ffffffffffffffffffffffffffffffffffffffff021916908373ffffffffffffffffffffffffffffffffffffffff1602179055506117f0806100606000396000f3fe608060405234801561001057600080fd5b50600436106100935760003560e01c80638da5cb5b116100665780638da5cb5b14610408578063a4a1e26314610452578063a93c7abb14610470578063b57d63f5146104be578063ff5d32fe1461063a57610093565b80631ecd65631461009857806344276733146102095780636386c1c71461026157806380e52e3f146103c4575b600080fd5b6100da600480360360208110156100ae57600080fd5b81019080803573ffffffffffffffffffffffffffffffffffffffff169060200190929190505050610787565b6040518080602001806020018573ffffffffffffffffffffffffffffffffffffffff1673ffffffffffffffffffffffffffffffffffffffff16815260200184600681111561012457fe5b60ff168152602001838103835287818151815260200191508051906020019080838360005b83811015610164578082015181840152602081019050610149565b50505050905090810190601f1680156101915780820380516001836020036101000a031916815260200191505b50838103825286818151815260200191508051906020019080838360005b838110156101ca5780820151818401526020810190506101af565b50505050905090810190601f1680156101f75780820380516001836020036101000a031916815260200191505b50965050505050505060405180910390f35b61024b6004803603602081101561021f57600080fd5b81019080803573ffffffffffffffffffffffffffffffffffffffff169060200190929190505050610914565b6040518082815260200191505060405180910390f35b6102a36004803603602081101561027757600080fd5b81019080803573ffffffffffffffffffffffffffffffffffffffff169060200190929190505050610978565b6040518080602001806020018573ffffffffffffffffffffffffffffffffffffffff1673ffffffffffffffffffffffffffffffffffffffff168152602001848152602001838103835287818151815260200191508051906020019080838360005b8381101561031f578082015181840152602081019050610304565b50505050905090810190601f16801561034c5780820380516001836020036101000a031916815260200191505b50838103825286818151815260200191508051906020019080838360005b8381101561038557808201518184015260208101905061036a565b50505050905090810190601f1680156103b25780820380516001836020036101000a031916815260200191505b50965050505050505060405180910390f35b610406600480360360208110156103da57600080fd5b81019080803573ffffffffffffffffffffffffffffffffffffffff169060200190929190505050610c07565b005b610410610f6c565b604051808273ffffffffffffffffffffffffffffffffffffffff1673ffffffffffffffffffffffffffffffffffffffff16815260200191505060405180910390f35b61045a610f91565b6040518082815260200191505060405180910390f35b6104bc6004803603604081101561048657600080fd5b81019080803573ffffffffffffffffffffffffffffffffffffffff16906020019092919080359060200190929190505050610f9e565b005b610638600480360360808110156104d457600080fd5b81019080803573ffffffffffffffffffffffffffffffffffffffff1690602001909291908035906020019064010000000081111561051157600080fd5b82018360208201111561052357600080fd5b8035906020019184600183028401116401000000008311171561054557600080fd5b91908080601f016020809104026020016040519081016040528093929190818152602001838380828437600081840152601f19601f820116905080830192505050505050509192919290803590602001906401000000008111156105a857600080fd5b8201836020820111156105ba57600080fd5b803590602001918460018302840111640100000000831117156105dc57600080fd5b91908080601f016020809104026020016040519081016040528093929190818152602001838380828437600081840152601f19601f82011690508083019250505050505050919291929080359060200190929190505050611304565b005b6106666004803603602081101561065057600080fd5b810190808035906020019092919050505061169b565b6040518080602001806020018573ffffffffffffffffffffffffffffffffffffffff1673ffffffffffffffffffffffffffffffffffffffff168152602001848152602001838103835287818151815260200191508051906020019080838360005b838110156106e25780820151818401526020810190506106c7565b50505050905090810190601f16801561070f5780820380516001836020036101000a031916815260200191505b50838103825286818151815260200191508051906020019080838360005b8381101561074857808201518184015260208101905061072d565b50505050905090810190601f1680156107755780820380516001836020036101000a031916815260200191505b50965050505050505060405180910390f35b6001602052806000526040600020600091509050806000018054600181600116156101000203166002900480601f0160208091040260200160405190810160405280929190818152602001828054600181600116156101000203166002900480156108335780601f1061080857610100808354040283529160200191610833565b820191906000526020600020905b81548152906001019060200180831161081657829003601f168201915b505050505090806001018054600181600116156101000203166002900480601f0160208091040260200160405190810160405280929190818152602001828054600181600116156101000203166002900480156108d15780601f106108a6576101008083540402835291602001916108d1565b820191906000526020600020905b8154815290600101906020018083116108b457829003601f168201915b5050505050908060020160009054906101000a900473ffffffffffffffffffffffffffffffffffffffff16908060020160149054906101000a900460ff16905084565b6000600160008373ffffffffffffffffffffffffffffffffffffffff1673ffffffffffffffffffffffffffffffffffffffff16815260200190815260200160002060020160149054906101000a900460ff16600681111561097157fe5b9050919050565b606080600080600160008673ffffffffffffffffffffffffffffffffffffffff1673ffffffffffffffffffffffffffffffffffffffff168152602001908152602001600020600001600160008773ffffffffffffffffffffffffffffffffffffffff1673ffffffffffffffffffffffffffffffffffffffff168152602001908152602001600020600101600160008873ffffffffffffffffffffffffffffffffffffffff1673ffffffffffffffffffffffffffffffffffffffff16815260200190815260200160002060020160009054906101000a900473ffffffffffffffffffffffffffffffffffffffff16600160008973ffffffffffffffffffffffffffffffffffffffff1673ffffffffffffffffffffffffffffffffffffffff16815260200190815260200160002060020160149054906101000a900460ff166006811115610ac057fe5b838054600181600116156101000203166002900480601f016020809104026020016040519081016040528092919081815260200182805460018160011615610100020316600290048015610b555780601f10610b2a57610100808354040283529160200191610b55565b820191906000526020600020905b815481529060010190602001808311610b3857829003601f168201915b50505050509350828054600181600116156101000203166002900480601f016020809104026020016040519081016040528092919081815260200182805460018160011615610100020316600290048015610bf15780601f10610bc657610100808354040283529160200191610bf1565b820191906000526020600020905b815481529060010190602001808311610bd457829003601f168201915b5050505050925093509350935093509193509193565b6000809054906101000a900473ffffffffffffffffffffffffffffffffffffffff1673ffffffffffffffffffffffffffffffffffffffff163373ffffffffffffffffffffffffffffffffffffffff1614610cac576040517f08c379a00000000000000000000000000000000000000000000000000000000081526004018080602001828103825260268152602001806117966026913960400191505060405180910390fd5b60006006811115610cb957fe5b600160008373ffffffffffffffffffffffffffffffffffffffff1673ffffffffffffffffffffffffffffffffffffffff16815260200190815260200160002060020160149054906101000a900460ff166006811115610d1457fe5b1415610d88576040517f08c379a00000000000000000000000000000000000000000000000000000000081526004018080602001828103825260138152602001807f75736572206e6f7420726567697374657265640000000000000000000000000081525060200191505060405180910390fd5b8073ffffffffffffffffffffffffffffffffffffffff167f18a4c0aa2d0b9e55cfd3c133652630cc693f845135ba74f56f45c8d38910ce5c600160008473ffffffffffffffffffffffffffffffffffffffff1673ffffffffffffffffffffffffffffffffffffffff168152602001908152602001600020600001600160008573ffffffffffffffffffffffffffffffffffffffff1673ffffffffffffffffffffffffffffffffffffffff16815260200190815260200160002060020160149054906101000a900460ff166006811115610e5d57fe5b6040518080602001838152602001828103825284818154600181600116156101000203166002900481526020019150805460018160011615610100020316600290048015610eec5780601f10610ec157610100808354040283529160200191610eec565b820191906000526020600020905b815481529060010190602001808311610ecf57829003601f168201915b5050935050505060405180910390a2600680811115610f0757fe5b600160008373ffffffffffffffffffffffffffffffffffffffff1673ffffffffffffffffffffffffffffffffffffffff16815260200190815260200160002060020160146101000a81548160ff02191690836006811115610f6457fe5b021790555050565b6000809054906101000a900473ffffffffffffffffffffffffffffffffffffffff1681565b6000600280549050905090565b6000809054906101000a900473ffffffffffffffffffffffffffffffffffffffff1673ffffffffffffffffffffffffffffffffffffffff163373ffffffffffffffffffffffffffffffffffffffff1614611043576040517f08c379a00000000000000000000000000000000000000000000000000000000081526004018080602001828103825260268152602001806117966026913960400191505060405180910390fd5b6000600681111561105057fe5b600160008473ffffffffffffffffffffffffffffffffffffffff1673ffffffffffffffffffffffffffffffffffffffff16815260200190815260200160002060020160149054906101000a900460ff1660068111156110ab57fe5b141561111f576040517f08c379a00000000000000000000000000000000000000000000000000000000081526004018080602001828103825260138152602001807f55736572206e6f7420726567697374657265640000000000000000000000000081525060200191505060405180910390fd5b80600681111561112b57fe5b600160008473ffffffffffffffffffffffffffffffffffffffff1673ffffffffffffffffffffffffffffffffffffffff16815260200190815260200160002060020160146101000a81548160ff0219169083600681111561118857fe5b02179055508173ffffffffffffffffffffffffffffffffffffffff167f35ef25ed794630e2607a853ec75377c24e87b8b51c13fd3e08156fcfda7eb15a600160008573ffffffffffffffffffffffffffffffffffffffff1673ffffffffffffffffffffffffffffffffffffffff168152602001908152602001600020600001600160008673ffffffffffffffffffffffffffffffffffffffff1673ffffffffffffffffffffffffffffffffffffffff16815260200190815260200160002060020160149054906101000a900460ff16600681111561126257fe5b60405180806020018381526020018281038252848181546001816001161561010002031660029004815260200191508054600181600116156101000203166002900480156112f15780601f106112c6576101008083540402835291602001916112f1565b820191906000526020600020905b8154815290600101906020018083116112d457829003601f168201915b5050935050505060405180910390a25050565b6000600681111561131157fe5b600160008673ffffffffffffffffffffffffffffffffffffffff1673ffffffffffffffffffffffffffffffffffffffff16815260200190815260200160002060020160149054906101000a900460ff16600681111561136c57fe5b146113df576040517f08c379a00000000000000000000000000000000000000000000000000000000081526004018080602001828103825260178152602001807f5573657220416c7265616479207265676973746572656400000000000000000081525060200191505060405180910390fd5b82600160008673ffffffffffffffffffffffffffffffffffffffff1673ffffffffffffffffffffffffffffffffffffffff16815260200190815260200160002060000190805190602001906114359291906116f0565b5081600160008673ffffffffffffffffffffffffffffffffffffffff1673ffffffffffffffffffffffffffffffffffffffff168152602001908152602001600020600101908051906020019061148c9291906116f0565b5083600160008673ffffffffffffffffffffffffffffffffffffffff1673ffffffffffffffffffffffffffffffffffffffff16815260200190815260200160002060020160006101000a81548173ffffffffffffffffffffffffffffffffffffffff021916908373ffffffffffffffffffffffffffffffffffffffff16021790555080600681111561151a57fe5b600160008673ffffffffffffffffffffffffffffffffffffffff1673ffffffffffffffffffffffffffffffffffffffff16815260200190815260200160002060020160146101000a81548160ff0219169083600681111561157757fe5b021790555060028490806001815401808255809150509060018203906000526020600020016000909192909190916101000a81548173ffffffffffffffffffffffffffffffffffffffff021916908373ffffffffffffffffffffffffffffffffffffffff160217905550508373ffffffffffffffffffffffffffffffffffffffff167f4578d2996968543afa1dfb0791664b8fb16108663190bcf1f68e698c4589db19846040518080602001828103825283818151815260200191508051906020019080838360005b8381101561165b578082015181840152602081019050611640565b50505050905090810190601f1680156116885780820380516001836020036101000a031916815260200191505b509250505060405180910390a250505050565b6060806000806116e1600286815481106116b157fe5b9060005260206000200160009054906101000a900473ffffffffffffffffffffffffffffffffffffffff16610978565b93509350935093509193509193565b828054600181600116156101000203166002900490600052602060002090601f016020900481019282601f1061173157805160ff191683800117855561175f565b8280016001018555821561175f579182015b8281111561175e578251825591602001919060010190611743565b5b50905061176c9190611770565b5090565b61179291905b8082111561178e576000816000905550600101611776565b5090565b9056fe736f727279212c4f6e6c79206f776e657220697320616c6c6f77656420746f20766973697421a265627a7a72315820523322cc0a119de8316477c1fd8d08fdc6209ee47ba1dfbe02795f72b049a79364736f6c63430005100032",
  "source": "pragma solidity >=0.5.0 <0.8.6;\r\n\r\ncontract Admin{\r\n     address public owner;\r\n\r\n    constructor() public{\r\n        owner=msg.sender;\r\n    }\r\n\r\n    modifier onlyOwner(){\r\n        require(msg.sender==owner,\"sorry!,Only owner is allowed to visit!\");\r\n        _;\r\n    }\r\n\r\n    enum roles{\r\n        norole,\r\n        supplier,\r\n        transporter,\r\n        manufacturer,\r\n        distributor,\r\n        retailer,\r\n        revoke\r\n    }\r\n\r\n    event UserRegister(address indexed EthAddress, string Name);\r\n    event UserRoleRevoked(address indexed EthAddress, string Name, uint Role);\r\n    event UserRoleRessign(address indexed EthAddress, string Name, uint Role);\r\n\r\n     struct UserInfo{\r\n        string name;\r\n        string location;\r\n        address ethAddress;\r\n        roles role;\r\n    }\r\n\r\n      mapping(address => UserInfo) public UsersDetails;\r\n      address[] users;\r\n\r\n    function registerUser(address EthAddress,string memory Name,string memory Location,uint Role) public {\r\n        require(UsersDetails[EthAddress].role==roles.norole,\"User Already registered\");\r\n        UsersDetails[EthAddress].name = Name;\r\n        UsersDetails[EthAddress].location = Location;\r\n        UsersDetails[EthAddress].ethAddress = EthAddress;\r\n        UsersDetails[EthAddress].role = roles(Role);\r\n        users.push(EthAddress);\r\n        emit UserRegister(EthAddress, Name);\r\n    }\r\n\r\n    function revokeRole(address userAddress) public onlyOwner {\r\n        require(UsersDetails[userAddress].role!=roles.norole,\"user not registered\");\r\n        emit UserRoleRevoked(userAddress, UsersDetails[userAddress].name, uint(UsersDetails[userAddress].role));\r\n        UsersDetails[userAddress].role=roles(6);\r\n    }\r\n\r\n    function reassignRole(address userAddress,uint Role) public onlyOwner {\r\n          require(UsersDetails[userAddress].role != roles.norole, \"User not registered\");\r\n        UsersDetails[userAddress].role = roles(Role);\r\n        emit UserRoleRessign(userAddress, UsersDetails[userAddress].name,uint(UsersDetails[userAddress].role));\r\n    }\r\n\r\n    /***********************************************User Section****************************************************/\r\n\r\n   function getUserInfo(address userAddress) public view returns(string memory,string memory,address,uint){\r\n       return (\r\n           UsersDetails[userAddress].name,\r\n           UsersDetails[userAddress].location,\r\n           UsersDetails[userAddress].ethAddress,\r\n           uint(UsersDetails[userAddress].role)\r\n       );\r\n   }\r\n\r\n   function getUsersCount() public view returns(uint count){\r\n       return users.length;\r\n   }\r\n\r\n   function getUserByIndex(uint index) public view returns(string memory,string memory,address,uint){\r\n       return getUserInfo(users[index]);\r\n   }\r\n\r\n   function getRole(address _address) public view returns(uint){\r\n       return uint(UsersDetails[_address].role);\r\n   }\r\n\r\n}",
  "sourcePath": "E:\\University\\FYP\\Development\\FYP_60_Percent\\dashboard\\src\\contracts\\Admin.sol",
  "compiler": {
    "name": "solc",
    "version": "0.5.16+commit.9c3226ce.Emscripten.clang"
  },
  "schemaVersion": "3.4.13",
  "updatedAt": "2023-03-18T10:32:00.524Z",
  "networkType": "ethereum",
  "devdoc": {
    "methods": {}
  },
  "userdoc": {
    "methods": {
      "getUserInfo(address)": {
        "notice": "*********************************************User Section***************************************************"
      }
    }
  }
}