{
  "contractName": "Medicine",
  "abi": [
    {
      "inputs": [
        {
          "internalType": "address",
          "name": "_manufacturer",
          "type": "address"
        },
        {
          "internalType": "string",
          "name": "_description",
          "type": "string"
        },
        {
          "internalType": "address",
          "name": "_rawmaterial",
          "type": "address"
        },
        {
          "internalType": "uint256",
          "name": "_quantity",
          "type": "uint256"
        },
        {
          "internalType": "address",
          "name": "_shipper",
          "type": "address"
        },
        {
          "internalType": "address",
          "name": "_distributor",
          "type": "address"
        }
      ],
      "payable": false,
      "stateMutability": "nonpayable",
      "type": "constructor"
    },
    {
      "anonymous": false,
      "inputs": [
        {
          "indexed": true,
          "internalType": "address",
          "name": "BatchId",
          "type": "address"
        },
        {
          "indexed": true,
          "internalType": "address",
          "name": "Shipper",
          "type": "address"
        },
        {
          "indexed": true,
          "internalType": "address",
          "name": "Receiver",
          "type": "address"
        },
        {
          "indexed": false,
          "internalType": "uint256",
          "name": "TransporterType",
          "type": "uint256"
        },
        {
          "indexed": false,
          "internalType": "uint256",
          "name": "Status",
          "type": "uint256"
        }
      ],
      "name": "ShippmentUpdate",
      "type": "event"
    },
    {
      "constant": true,
      "inputs": [],
      "name": "distributor",
      "outputs": [
        {
          "internalType": "address",
          "name": "",
          "type": "address"
        }
      ],
      "payable": false,
      "stateMutability": "view",
      "type": "function"
    },
    {
      "constant": true,
      "inputs": [],
      "name": "retailer",
      "outputs": [
        {
          "internalType": "address",
          "name": "",
          "type": "address"
        }
      ],
      "payable": false,
      "stateMutability": "view",
      "type": "function"
    },
    {
      "constant": true,
      "inputs": [],
      "name": "getMediceInfo",
      "outputs": [
        {
          "internalType": "address",
          "name": "",
          "type": "address"
        },
        {
          "internalType": "string",
          "name": "",
          "type": "string"
        },
        {
          "internalType": "address",
          "name": "",
          "type": "address"
        },
        {
          "internalType": "uint256",
          "name": "",
          "type": "uint256"
        },
        {
          "internalType": "address",
          "name": "",
          "type": "address"
        },
        {
          "internalType": "address",
          "name": "",
          "type": "address"
        }
      ],
      "payable": false,
      "stateMutability": "view",
      "type": "function"
    },
    {
      "constant": true,
      "inputs": [],
      "name": "getMedicineStatus",
      "outputs": [
        {
          "internalType": "uint256",
          "name": "",
          "type": "uint256"
        }
      ],
      "payable": false,
      "stateMutability": "view",
      "type": "function"
    },
    {
      "constant": false,
      "inputs": [
        {
          "internalType": "address",
          "name": "_shipper",
          "type": "address"
        }
      ],
      "name": "pickPackageDistributor",
      "outputs": [],
      "payable": false,
      "stateMutability": "nonpayable",
      "type": "function"
    },
    {
      "constant": false,
      "inputs": [
        {
          "internalType": "address",
          "name": "_retailer",
          "type": "address"
        }
      ],
      "name": "receivePackageDistributor",
      "outputs": [],
      "payable": false,
      "stateMutability": "nonpayable",
      "type": "function"
    },
    {
      "constant": false,
      "inputs": [
        {
          "internalType": "address",
          "name": "_shipper",
          "type": "address"
        }
      ],
      "name": "pickPackageRetailer",
      "outputs": [],
      "payable": false,
      "stateMutability": "nonpayable",
      "type": "function"
    },
    {
      "constant": false,
      "inputs": [
        {
          "internalType": "address",
          "name": "_retailer",
          "type": "address"
        }
      ],
      "name": "receivePackageRetailer",
      "outputs": [],
      "payable": false,
      "stateMutability": "nonpayable",
      "type": "function"
    }
  ],
  "bytecode": "0x60806040523480156200001157600080fd5b50604051620012a7380380620012a7833981810160405260c08110156200003757600080fd5b8101908080519060200190929190805160405193929190846401000000008211156200006257600080fd5b838201915060208201858111156200007957600080fd5b82518660018202830111640100000000821117156200009757600080fd5b8083526020830192505050908051906020019080838360005b83811015620000cd578082015181840152602081019050620000b0565b50505050905090810190601f168015620000fb5780820380516001836020036101000a031916815260200191505b5060405260200180519060200190929190805190602001909291908051906020019092919080519060200190929190505050856000806101000a81548173ffffffffffffffffffffffffffffffffffffffff021916908373ffffffffffffffffffffffffffffffffffffffff16021790555085600560006101000a81548173ffffffffffffffffffffffffffffffffffffffff021916908373ffffffffffffffffffffffffffffffffffffffff1602179055508460019080519060200190620001c69291906200029d565b5083600260006101000a81548173ffffffffffffffffffffffffffffffffffffffff021916908373ffffffffffffffffffffffffffffffffffffffff1602179055508260038190555081600460006101000a81548173ffffffffffffffffffffffffffffffffffffffff021916908373ffffffffffffffffffffffffffffffffffffffff16021790555080600660006101000a81548173ffffffffffffffffffffffffffffffffffffffff021916908373ffffffffffffffffffffffffffffffffffffffff1602179055505050505050506200034c565b828054600181600116156101000203166002900490600052602060002090601f016020900481019282601f10620002e057805160ff191683800117855562000311565b8280016001018555821562000311579182015b8281111562000310578251825591602001919060010190620002f3565b5b50905062000320919062000324565b5090565b6200034991905b80821115620003455760008160009055506001016200032b565b5090565b90565b610f4b806200035c6000396000f3fe608060405234801561001057600080fd5b50600436106100885760003560e01c8063ef4888031161005b578063ef48880314610183578063f64cd21e146101c7578063f74fdde11461020b578063fc7923311461024f57610088565b80634c1249fc1461008d57806373b037db146100d75780637b1df25c146100f5578063bfe1092814610139575b600080fd5b6100956103a5565b604051808273ffffffffffffffffffffffffffffffffffffffff1673ffffffffffffffffffffffffffffffffffffffff16815260200191505060405180910390f35b6100df6103cb565b6040518082815260200191505060405180910390f35b6101376004803603602081101561010b57600080fd5b81019080803573ffffffffffffffffffffffffffffffffffffffff1690602001909291905050506103ed565b005b610141610676565b604051808273ffffffffffffffffffffffffffffffffffffffff1673ffffffffffffffffffffffffffffffffffffffff16815260200191505060405180910390f35b6101c56004803603602081101561019957600080fd5b81019080803573ffffffffffffffffffffffffffffffffffffffff16906020019092919050505061069c565b005b610209600480360360208110156101dd57600080fd5b81019080803573ffffffffffffffffffffffffffffffffffffffff1690602001909291905050506108e4565b005b61024d6004803603602081101561022157600080fd5b81019080803573ffffffffffffffffffffffffffffffffffffffff169060200190929190505050610b2b565b005b610257610d55565b604051808773ffffffffffffffffffffffffffffffffffffffff1673ffffffffffffffffffffffffffffffffffffffff168152602001806020018673ffffffffffffffffffffffffffffffffffffffff1673ffffffffffffffffffffffffffffffffffffffff1681526020018581526020018473ffffffffffffffffffffffffffffffffffffffff1673ffffffffffffffffffffffffffffffffffffffff1681526020018373ffffffffffffffffffffffffffffffffffffffff1673ffffffffffffffffffffffffffffffffffffffff168152602001828103825287818151815260200191508051906020019080838360005b8381101561036557808201518184015260208101905061034a565b50505050905090810190601f1680156103925780820380516001836020036101000a031916815260200191505b5097505050505050505060405180910390f35b600760009054906101000a900473ffffffffffffffffffffffffffffffffffffffff1681565b6000600760149054906101000a900460ff1660048111156103e857fe5b905090565b600660009054906101000a900473ffffffffffffffffffffffffffffffffffffffff1673ffffffffffffffffffffffffffffffffffffffff163373ffffffffffffffffffffffffffffffffffffffff1614610493576040517f08c379a0000000000000000000000000000000000000000000000000000000008152600401808060200182810382526028815260200180610eef6028913960400191505060405180910390fd5b600160048111156104a057fe5b60048111156104ab57fe5b600760149054906101000a900460ff1660048111156104c657fe5b14610539576040517f08c379a000000000000000000000000000000000000000000000000000000000815260040180806020018281038252601e8152602001807f746865207061636b616765206973206e6f74207769746820736869706572000081525060200191505060405180910390fd5b6002600481111561054657fe5b600760146101000a81548160ff0219169083600481111561056357fe5b021790555080600760006101000a81548173ffffffffffffffffffffffffffffffffffffffff021916908373ffffffffffffffffffffffffffffffffffffffff160217905550600760009054906101000a900473ffffffffffffffffffffffffffffffffffffffff1673ffffffffffffffffffffffffffffffffffffffff16600460009054906101000a900473ffffffffffffffffffffffffffffffffffffffff1673ffffffffffffffffffffffffffffffffffffffff163073ffffffffffffffffffffffffffffffffffffffff167f7e89c4b1a4e2b51aae84eb1f90e8a34cb792ece5ac5cb63db4830c891220b28d60016002604051808381526020018281526020019250505060405180910390a450565b600660009054906101000a900473ffffffffffffffffffffffffffffffffffffffff1681565b600460009054906101000a900473ffffffffffffffffffffffffffffffffffffffff1673ffffffffffffffffffffffffffffffffffffffff168173ffffffffffffffffffffffffffffffffffffffff1614610742576040517f08c379a000000000000000000000000000000000000000000000000000000000815260040180806020018281038252602e815260200180610ec1602e913960400191505060405180910390fd5b6002600481111561074f57fe5b600481111561075a57fe5b600760149054906101000a900460ff16600481111561077557fe5b146107e8576040517f08c379a00000000000000000000000000000000000000000000000000000000081526004018080602001828103825260208152602001807f746865207061636b616765206c65667420746865206469737472696275746f7281525060200191505060405180910390fd5b600360048111156107f557fe5b600760146101000a81548160ff0219169083600481111561081257fe5b0217905550600760009054906101000a900473ffffffffffffffffffffffffffffffffffffffff1673ffffffffffffffffffffffffffffffffffffffff16600460009054906101000a900473ffffffffffffffffffffffffffffffffffffffff1673ffffffffffffffffffffffffffffffffffffffff163073ffffffffffffffffffffffffffffffffffffffff167f7e89c4b1a4e2b51aae84eb1f90e8a34cb792ece5ac5cb63db4830c891220b28d60016003604051808381526020018281526020019250505060405180910390a450565b600760009054906101000a900473ffffffffffffffffffffffffffffffffffffffff1673ffffffffffffffffffffffffffffffffffffffff168173ffffffffffffffffffffffffffffffffffffffff161461098a576040517f08c379a0000000000000000000000000000000000000000000000000000000008152600401808060200182810382526028815260200180610eef6028913960400191505060405180910390fd5b6003600481111561099757fe5b60048111156109a257fe5b600760149054906101000a900460ff1660048111156109bd57fe5b14610a30576040517f08c379a000000000000000000000000000000000000000000000000000000000815260040180806020018281038252601c8152602001807f746865207061636b616765206c6566742074686520736869707065720000000081525060200191505060405180910390fd5b600480811115610a3c57fe5b600760146101000a81548160ff02191690836004811115610a5957fe5b0217905550600760009054906101000a900473ffffffffffffffffffffffffffffffffffffffff1673ffffffffffffffffffffffffffffffffffffffff16600460009054906101000a900473ffffffffffffffffffffffffffffffffffffffff1673ffffffffffffffffffffffffffffffffffffffff163073ffffffffffffffffffffffffffffffffffffffff167f7e89c4b1a4e2b51aae84eb1f90e8a34cb792ece5ac5cb63db4830c891220b28d60016004604051808381526020018281526020019250505060405180910390a450565b600460009054906101000a900473ffffffffffffffffffffffffffffffffffffffff1673ffffffffffffffffffffffffffffffffffffffff168173ffffffffffffffffffffffffffffffffffffffff1614610bd1576040517f08c379a000000000000000000000000000000000000000000000000000000000815260040180806020018281038252602e815260200180610ec1602e913960400191505060405180910390fd5b60006004811115610bde57fe5b6004811115610be957fe5b600760149054906101000a900460ff166004811115610c0457fe5b14610c5a576040517f08c379a0000000000000000000000000000000000000000000000000000000008152600401808060200182810382526021815260200180610ea06021913960400191505060405180910390fd5b60016004811115610c6757fe5b600760146101000a81548160ff02191690836004811115610c8457fe5b0217905550600660009054906101000a900473ffffffffffffffffffffffffffffffffffffffff1673ffffffffffffffffffffffffffffffffffffffff16600460009054906101000a900473ffffffffffffffffffffffffffffffffffffffff1673ffffffffffffffffffffffffffffffffffffffff163073ffffffffffffffffffffffffffffffffffffffff167f7e89c4b1a4e2b51aae84eb1f90e8a34cb792ece5ac5cb63db4830c891220b28d600180604051808381526020018281526020019250505060405180910390a450565b600060606000806000806000809054906101000a900473ffffffffffffffffffffffffffffffffffffffff166001600260009054906101000a900473ffffffffffffffffffffffffffffffffffffffff16600354600460009054906101000a900473ffffffffffffffffffffffffffffffffffffffff16600660009054906101000a900473ffffffffffffffffffffffffffffffffffffffff16848054600181600116156101000203166002900480601f016020809104026020016040519081016040528092919081815260200182805460018160011615610100020316600290048015610e845780601f10610e5957610100808354040283529160200191610e84565b820191906000526020600020905b815481529060010190602001808311610e6757829003601f168201915b5050505050945095509550955095509550955090919293949556fe746865207061636b616765206c65667420746865206d616e756661637475726572546865207061636b6167652063616e206f6e6c79206265207069636b6564206279207468652073686970706572216f6e6c79206469737472696275746f722063616e207265636569766520746865207061636b616765a265627a7a72315820e7388a0f7e31f4909f773d9f65c56c548bc77dd8f5f4ce46e88bf1d23908119c64736f6c63430005100032",
  "source": "pragma solidity >=0.5.0 <0.8.6;\r\n\r\ncontract Medicine{\r\naddress owner;\r\n\r\nenum medicinestatus{\r\n    atmanufacturer,\r\n    picked_for_distributor,\r\n    delivered_to_distributor,\r\n    picked_for_retailer,\r\n    delivered_to_retailer\r\n}\r\n\r\nstring description;\r\naddress rawmaterial;\r\nuint quantity;\r\naddress shipper;\r\naddress manufacturer;\r\naddress public distributor;\r\naddress public retailer;\r\nmedicinestatus status;\r\n\r\nevent ShippmentUpdate(\r\n    address indexed BatchId,\r\n    address indexed Shipper,\r\n    address indexed Receiver,\r\n    uint TransporterType,\r\n    uint Status\r\n);\r\n\r\nconstructor(\r\n    address _manufacturer,\r\n    string memory _description,\r\n    address _rawmaterial,\r\n    uint _quantity,\r\n    address _shipper,\r\n    address _distributor\r\n) public {\r\n    owner=_manufacturer;\r\n    manufacturer=_manufacturer;\r\n    description=_description;\r\n    rawmaterial=_rawmaterial;\r\n    quantity=_quantity;\r\n    shipper=_shipper;\r\n    distributor=_distributor;\r\n}\r\n\r\nfunction getMediceInfo() public view returns(address,string memory,address,uint ,address ,address ){\r\n    return (\r\n         owner,\r\n        description,\r\n        rawmaterial,\r\n        quantity,\r\n        shipper,\r\n        distributor\r\n    );\r\n}\r\n\r\nfunction getMedicineStatus() public view returns(uint){\r\n    return uint(status);\r\n}\r\n\r\nfunction pickPackageDistributor(address _shipper) public {\r\n    require(_shipper==shipper,\"The package can only be picked by the shipper!\");\r\n    require(status==medicinestatus(0),\"the package left the manufacturer\");\r\n    status=medicinestatus(1);\r\n    emit ShippmentUpdate(address(this), shipper, distributor, 1, 1);\r\n}\r\n\r\nfunction receivePackageDistributor(address _retailer) public {\r\n    require(msg.sender==distributor,\"only distributor can receive the package\");\r\n    require(status==medicinestatus(1),\"the package is not with shiper\");\r\n    status=medicinestatus(2);\r\n    retailer=_retailer;\r\n     emit ShippmentUpdate(address(this), shipper, retailer, 1, 2);\r\n}\r\n\r\nfunction pickPackageRetailer(address _shipper) public {\r\n    require(_shipper==shipper,\"The package can only be picked by the shipper!\");\r\n    require(status==medicinestatus(2),\"the package left the distributor\");\r\n    status=medicinestatus(3);\r\n    emit ShippmentUpdate(address(this), shipper, retailer, 1, 3);\r\n}\r\n\r\nfunction receivePackageRetailer(address _retailer) public {\r\n    require(_retailer==retailer,\"only distributor can receive the package\");\r\n    require(status==medicinestatus(3),\"the package left the shipper\");\r\n    status=medicinestatus(4);\r\n     emit ShippmentUpdate(address(this), shipper, retailer, 1, 4);\r\n}\r\n\r\n}",
  "sourcePath": "E:\\University\\FYP\\Development\\FYP_60_Percent\\dashboard\\src\\contracts\\Medicine.sol",
  "compiler": {
    "name": "solc",
    "version": "0.5.16+commit.9c3226ce.Emscripten.clang"
  },
  "schemaVersion": "3.4.13",
  "updatedAt": "2023-03-18T10:31:52.074Z",
  "devdoc": {
    "methods": {}
  },
  "userdoc": {
    "methods": {}
  }
}